:020000040800F2
:10000000000002202D1700087D1700087D1700084A
:100010007D1700087D1700087D170008000000000C
:100020000000000000000000000000007D17000834
:100030007D170008000000007D1700085513000818
:100040007D1700087D1700087D1700087D17000840
:100050007D1700087D1700087D1700087D17000830
:100060007D1700087D1700087D1700087D17000820
:100070007D1700087D1700087D1700087D17000810
:100080007D1700087D1700087D1700087D17000800
:100090007D1700087D1700087D1700087D170008F0
:1000A0007D1700087D1700087D1700087D170008E0
:1000B000611300087D1700087D1700087D170008F0
:1000C0007D1700087D1700087D1700087D170008C0
:1000D0007D1700087D1700087D1700087D170008B0
:1000E0007D1700087D1700087D1700087D170008A0
:1000F0007D1700087D1700087D1700087D17000890
:100100007D1700087D1700087D1700087D1700087F
:100110007D1700087D1700087D1700087D1700086F
:100120007D1700087D1700087D1700087D1700085F
:100130007D1700087D1700087D1700087D1700084F
:100140007D1700087D1700087D1700087D1700083F
:100150007D1700087D1700087D1700087D1700082F
:100160007D1700087D1700087D1700087D1700081F
:100170007D1700087D1700087D17000800000000AB
:080180007D1700087D1700083F
:1001880010B5054C237833B9044B13B10448AFF3C9
:1001980000800123237010BD1C0000200000000017
:1001A800C817000808B5034B1BB103490348AFF350
:1001B800008008BD0000000020000020C8170008CB
:1001C80053B94AB9002908BF00281CBF4FF0FF31B6
:1001D8004FF0FF3000F072B9ADF1080C6DE904CEB4
:1001E80000F006F8DDF804E0DDE9022304B070470A
:1001F8002DE9F047089E04468846002B4BD18A42D9
:10020800154667D9B2FA82F24AB1C2F1200701FA5B
:1002180002F320FA07F7954047EA030894404FEAAB
:10022800154E230CB8FBFEF71FFA85FC0EFB17884A
:1002380043EA084307FB0CF1994209D9EB1807F187
:10024800FF3080F01B81994240F21881023F2B4415
:100258005B1AA4B2B3FBFEF00EFB103344EA03446E
:1002680000FB0CFCA44509D92C1900F1FF3380F0E0
:100278000781A44540F2048102382C4440EA074033
:10028800A4EB0C0400271EB1D4400023C6E90043A8
:100298003946BDE8F0878B4209D9002E00F0EB8083
:1002A8000027C6E9000138463946BDE8F087B3FAA9
:1002B80083F7002F47D18B4202D3824200F2FA80A3
:1002C800841A61EB030301209846002EE0D0C6E9AA
:1002D8000048DDE702B9FFDEB2FA82F2002A40F0F8
:1002E8008F80491B4FEA154E1FFA85F80127B1FB8D
:1002F800FEFC230C0EFB1C1143EA014308FB0CF126
:10030800994207D9EB180CF1FF3002D2994200F25A
:10031800CD808446591AA3B2B1FBFEF00EFB10142F
:1003280043EA044408FB00F8A04507D92C1900F15A
:10033800FF3302D2A04500F2B6801846A4EB0804A9
:1003480040EA0C409FE7C7F1200CBB4022FA0CFEA4
:100358004EEA030E01FA07F420FA0CF521FA0CF321
:100368004FEA1E482543B3FBF8F92C0C08FB193358
:100378001FFA8EFA44EA034309FB0AF49C4202FA84
:1003880007F200FA07F10BD91EEB030309F1FF305E
:1003980080F087809C4240F28480A9F1020973446E
:1003A8001B1BADB2B3FBF8F008FB103345EA03445E
:1003B80000FB0AFAA24508D91EEB040400F1FF333A
:1003C8006BD2A24569D90238744440EA0940A0FBBF
:1003D8000289A4EB0A044C45C2464B4654D351D07B
:1003E800002E69D0B1EB0A0564EB030404FA0CFC97
:1003F800FD40FC404CEA0505C6E90054002747E7E4
:10040800C2F1200320FA03F7954001FA02F021FA1D
:1004180003F34FEA154E3843010CB3FBFEF71FFAFE
:1004280085F80EFB173341EA034107FB08F38B42BB
:1004380004FA02F407D9691807F1FF3C2FD28B425E
:100448002DD9023F2944CB1A81B2B3FBFEF00EFB33
:10045800103341EA034100FB08F38B4207D96918BE
:1004680000F1FF3C17D28B4215D902382944C91A2A
:1004780040EA07473BE73746304609E70746E7E6DD
:100488001846FBE64145ABD2B8EB020A69EB0E020F
:1004980001381346A4E76046E9E7184695E767463A
:1004A800D1E781467CE702382C4447E7ACF1020CDF
:1004B8002B442FE7384608E73746E9E6704700BF80
:1004C80010B504460E4B18784FF47A73B3FBF0F36B
:1004D8000C4A1068B0FBF3F000F096F868B90F2CDE
:1004E80001D901200AE0002221464FF0FF3000F038
:1004F80049F8034B5C60002000E0012010BD00BFFC
:10050800000000201800002008B50B4B1A6842F4C0
:1005180000721A601A6842F480621A601A6842F41B
:1005280080721A60032000F01BF80020FFF7C8FF54
:1005380001F06EF8002008BD003C0240034A116833
:10054800034B1B780B441360704700BF3800002032
:1005580000000020014B1868704700BF38000020D9
:10056800074AD36823F4E0631B041B0C000200F461
:10057800E060184340F0BF6040F40030D06070473E
:1005880000ED00E030B4174BDB68C3F30223C3F17E
:100598000704042C28BF04241D1D062D18D9033B6D
:1005A8004FF0FF3505FA04F421EA0401994005FAF1
:1005B80003F322EA0303194300280BDB0901C9B23C
:1005C80000F1604000F5614080F8001330BC7047CE
:1005D8000023E5E700F00F000901C9B2024B1954E6
:1005E800F4E700BF00ED00E014ED00E0002807DBB1
:1005F80000F01F02400901239340024A42F82030CC
:10060800704700BF00E100E00138B0F1807F0AD2F6
:10061800064B5860064AF02182F8231000209860A3
:1006280007221A6070470120704700BF10E000E001
:1006380000ED00E0042805D0054A136823F0040300
:1006480013607047024A136843F00403136070474D
:1006580010E000E0704708B5FFF7FCFF08BD000098
:1006680000230F2B00F2D780F0B482B039E00722C4
:1006780000E00022B2403A430234674E46F8242094
:10068800664A1468EA4302EA04064F6817F4803F92
:1006980001D045EA0406614C2660646802EA040653
:1006A8004F6817F4003F01D045EA04065B4C6660CA
:1006B800A46802EA04064F6817F4801F01D045EACF
:1006C8000406564CA660E46822404E6816F4001FE3
:1006D80001D045EA0402514CE26001330F2B00F2CD
:1006E800978001229A400C6804EA0205AA42F4D1D4
:1006F8004C68022C01D0122C10D1DE08083650F8B4
:1007080026C003F00704A7000F24BC402CEA040C01
:100718000C69BC4044EA0C0440F8264004685F00B9
:100728000326BE40F64306EA040C4C6804F00304B2
:10073800BC4044EA0C0404604C6804F1FF3CBCF182
:10074800010F03D9112C01D0122C10D1846806EAAC
:10075800040CCC68BC4044EA0C048460446824EA75
:1007680002024C68C4F300149C4014434460C268FD
:1007780016408A68BA403243C2604A6812F0805F05
:10078800ABD000220192264A546C44F4804454644D
:10079800526C02F480420192019A9C08A61C1E4ADF
:1007A80052F8267003F0030296000F22B24027EA9F
:1007B80002071C4A90423FF45CAF02F58062904207
:1007C8001AD002F58062904218D002F580629042F9
:1007D80016D002F58062904214D002F580629042F1
:1007E80012D002F58062904210D002F580629042E9
:1007F8003FF43DAF08223DE701223BE7022239E7FB
:10080800032237E7042235E7052233E7062231E7DA
:1008180002B0F0BC7047704700380140003C01400E
:100828000038024000000240002800F0BB8170B58B
:1008380082B00446036813F0010F3BD0A74B9B68B6
:1008480003F00C03042B2CD0A44B9B6803F00C037F
:10085800082B21D06368B3F5803F4FD0B3F5A02FA4
:1008680052D09E4B1A6822F480321A601A6822F419
:1008780080221A606368002B50D0FFF76BFE054694
:10088800964B1B6813F4003F14D1FFF763FE401B1F
:100898006428F5D903208AE1904B5B6813F4800F34
:1008A800D8D08E4B1B6813F4003F03D06368002B2D
:1008B80000F07A81236813F0020F55D0874B9B68AC
:1008C80013F00C0F3ED0854B9B6803F00C03082BEC
:1008D80033D0E368002B68D0814B01221A60FFF700
:1008E80039FE05467D4B1B6813F0020F54D1FFF704
:1008F80031FE401B0228F5D9032058E1774A1368D6
:1009080043F480331360B5E7744B1A6842F48022CD
:100918001A601A6842F480321A60ABE7FFF71AFED1
:1009280005466E4B1B6813F4003FC3D0FFF712FE59
:10093800401B6428F5D9032039E1684B5B6813F440
:10094800800FC6D1654B1B6813F0020F04D0E36813
:10095800012B01D001202AE1604A136823F0F80333
:10096800216943EAC1031360236813F0080F40D0DC
:10097800636963B35B4B01221A60FFF7EBFD054621
:10098800564B5B6F13F0020F33D1FFF7E3FD401BAB
:100998000228F5D903200AE1504A136823F0F80326
:1009A800216943EAC1031360DEE74D4B00221A6058
:1009B800FFF7D0FD0546494B1B6813F0020FD3D053
:1009C800FFF7C8FD401B0228F5D90320EFE0454B8F
:1009D80000221A60FFF7BEFD0546404B5B6F13F01F
:1009E800020F06D0FFF7B6FD401B0228F5D90320F9
:1009F800DDE0236813F0040F79D0384B1B6C13F03B
:100A0800805F33D100230193344B1A6C42F080523B
:100A18001A641B6C03F080530193019B0125324B30
:100A28001B6813F4807F23D0A368012B34D0052BD7
:100A380038D02A4B1A6F22F001021A671A6F22F077
:100A480004021A67A368002B36D0FFF783FD064619
:100A5800224B1B6F13F0020F48D1FFF77BFD801B61
:100A680041F288339842F3D90320A0E00025D6E765
:100A78001D4A136843F480731360FFF76BFD064645
:100A8800194B1B6813F4807FCED1FFF763FD801BE1
:100A98000228F5D903208AE0104A136F43F00103B6
:100AA8001367CFE70D4B1A6F42F004021A671A6FEB
:100AB80042F001021A67C5E7FFF74CFD0646074BEF
:100AC8001B6F13F0020F11D0FFF744FD801B41F29A
:100AD80088339842F3D9032069E000BF0038024008
:100AE80000004742800E474200700040E5B9A36904
:100AF800002B5BD0304A926802F00C02082A58D0CA
:100B0800022B17D02D4B00221A60FFF723FD044655
:100B1800294B1B6813F0007F42D0FFF71BFD001B19
:100B28000228F5D9032042E0234A136C23F08053AE
:100B38001364DCE7214B00221A60FFF70BFD054622
:100B48001D4B1B6813F0007F06D0FFF703FD401B09
:100B58000228F5D903202AE0E369226A1343626A6E
:100B680043EA8213A26A5208013A43EA0243E26A5C
:100B780043EA0263104A5360104B01221A60FFF7E0
:100B8800E9FC04460C4B1B6813F0007F06D1FFF705
:100B9800E1FC001B0228F5D9032008E0002006E04C
:100BA800002004E001207047012000E0002002B08E
:100BB80070BD0120FBE700BF0038024060004742DB
:100BC800324B9B6803F00C03042B5CD0082B01D03C
:100BD8002F4870472DE9F04B2C4B5A6802F03F0222
:100BE8005B6813F4800F2BD0284B5B68C3F3881322
:100BF8001E4600275C010025E41A65EB0705A901DC
:100C080041EA9461A001001B61EB0501CB0043EAB6
:100C18005073C400A01943EB07014B0243EAD053B9
:100C28004402204619460023FFF7CAFA174B5B68AF
:100C3800C3F3014301335B00B0FBF3F0BDE8F08B75
:100C4800124B5B68C3F388131E4600275C0100251E
:100C5800E41A65EB0705A90141EA9461A001001BAC
:100C680061EB0501CB0043EA5073C400A01943EBC4
:100C780007018B0243EA9053840220461946002359
:100C8800FFF79EFAD2E70348704700BF00380240DA
:100C98000024F40000127A00002800F09D8070B54E
:100CA80004464F4B1B6803F00F038B4209D2CBB2AB
:100CB8004B4A1370136803F00F038B4201D00120D5
:100CC80070BD236813F0020F17D013F0040F04D07F
:100CD800444A936843F4E0539360236813F0080F81
:100CE80004D0404A936843F4604393603D4A936854
:100CF80023F0F003A068034393600D46236813F0C4
:100D0800010F32D06368012B21D09A1E012A25D900
:100D1800344A126812F0020F60D032498A6822F011
:100D2800030213438B60FFF715FC06462D4B9B68A7
:100D380003F00C036268B3EB820F16D0FFF70AFCCE
:100D4800801B41F288339842F0D90320B8E7254A3E
:100D5800126812F4003FE0D10120B1E7214A12687D
:100D680012F0007FD9D10120AAE71D4B1B6803F0C0
:100D78000F03AB4209D9EAB2194B1A701B6803F08A
:100D88000F03AB4201D001209AE7236813F0040F48
:100D980006D0144A936823F4E053E1680B43936048
:100DA800236813F0080F07D00E4A936823F46043B2
:100DB800216943EAC1039360FFF702FF094B9B686F
:100DC800C3F30313084AD35CD840084B18600020CB
:100DD800FFF776FB002073E70120704701206FE7DB
:100DE800003C024000380240E017000818000020CC
:100DF800014B1868704700BF1800002030B4036A20
:100E080023F001030362056A4268846924F07304CD
:100E18000B681C4325F002058B682B43104DA84234
:100E280003D005F58065A84205D123F00803CD68F5
:100E38002B4323F004030A4DA84203D005F580652F
:100E4800A84205D122F440724D6915438A692A43A4
:100E5800426084614A684263036230BC704700BFE5
:100E68000000014030B4036A23F480730362036A0C
:100E78004268C46924F073040D682C4323F400739A
:100E88008D6843EA0523124DA84203D005F5806515
:100E9800A84206D123F40063CD6843EA052323F46E
:100EA80080630B4DA84203D005F58065A84207D1A1
:100EB80022F440524D6942EA05128D6942EA051250
:100EC8004260C4614A68C263036230BC704700BFB5
:100ED8000000014030B4036A23F480530362036ABC
:100EE8004468C26922F4E6420D6842EA052223F406
:100EF80000538D6843EA0533094DA84203D005F530
:100F08008065A84204D124F480444D6944EA8514DC
:100F18004460C2614A680264036230BC704700BF23
:100F2800000001400C2914D8DFE801F0071313135F
:100F38000A1313130D13131310000368586B70472B
:100F48000368986B70470368D86B70470368186C20
:100F5800704700207047704770477047704710B55A
:100F6800044603681A6912F0020F11D0DA6812F009
:100F7800020F0DD06FF002021A6101230377036894
:100F88009B6913F0030F70D0FFF7E6FF0023237768
:100F980023681A6912F0040F12D0DA6812F0040FED
:100FA8000ED06FF004021A610223237723689B692D
:100FB80013F4407F5FD02046FFF7CEFF002323774E
:100FC80023681A6912F0080F12D0DA6812F0080FB5
:100FD8000ED06FF008021A61042323772368DB69B7
:100FE80013F0030F4ED02046FFF7B6FF00232377F8
:100FF80023681A6912F0100F12D0DA6812F0100F75
:101008000ED06FF010021A61082323772368DB697A
:1010180013F4407F3DD02046FFF79EFF002323773F
:1010280023681A6912F0010F03D0DA6812F0010F71
:1010380036D123681A6912F0800F03D0DA6812F0EB
:10104800800F34D123681A6912F0400F03D0DA6890
:1010580012F0400F32D123681A6912F0200F03D022
:10106800DA6812F0200F30D110BD00F09BF920464D
:10107800FFF773FF8AE7204600F094F92046FFF750
:101088006CFF9BE7204600F08DF92046FFF765FFCF
:10109800ACE7204600F086F92046FFF75EFFBDE783
:1010A8006FF001021A612046FFF755FFC1E76FF0A4
:1010B80080021A61204600F048F9C3E76FF0400249
:1010C8001A612046FFF74AFFC5E76FF020021A6150
:1010D800204600F039F9C7E70368304A904212D039
:1010E800B0F1804F0FD0A2F57C4290420BD002F5B0
:1010F8008062904207D002F58062904203D002F5E8
:101108007842904203D123F070034A681343234A7C
:1011180090422AD0B0F1804F27D0A2F57C4290426D
:1011280023D002F5806290421FD002F5806290427F
:101138001BD002F57842904217D002F570529042C7
:1011480013D002F5806290420FD002F5806290427F
:101158000BD0A2F59832904207D002F580629042F7
:1011680003D002F58062904203D123F44073CA6829
:10117800134323F080034A69134303608B68C362F7
:101188000B688362054B984203D003F5806398424D
:1011980001D10B69036301234361704700000140DB
:1011A800A8B110B5044690F83D305BB1022384F82D
:1011B8003D30211D2068FFF78FFF012384F83D3063
:1011C800002010BD80F83C3000F040FAEEE7012026
:1011D8007047000030B4036A23F010030362036A07
:1011E8004468826922F4E6420D6842EA052223F047
:1011F80020038D6843EA0513114DA84203D005F575
:101208008065A84206D123F08003CD6843EA051320
:1012180023F040030A4DA84203D005F58065A84293
:1012280007D124F440644D6944EA85048D6944EA91
:101238008504446082614A688263036230BC7047F7
:101248000000014090F83C30012B28D010B504462E
:10125800012380F83C30022380F83D300C2A0BD85B
:10126800DFE802F0070A0A0A110A0A0A150A0A0A36
:1012780019000068FFF7C2FD012384F83D30002003
:1012880084F83C0010BD0068FFF7A4FFF4E700688D
:10129800FFF7E8FDF0E70068FFF71CFEECE7022027
:1012A800704710B401F01F01012303FA01F4036A27
:1012B80023EA04030362036A8A40134303625DF866
:1012C800044B704710B504460C290DD8DFE801F02F
:1012D800070C0C0C280C0C0C2E0C0C0C340002689F
:1012E800D36843F00203D36001222068FFF7D9FFD7
:1012F8002368144A934203D002F58062934203D1D3
:101308005A6C42F400425A642268936803F0070357
:10131800062B03D0136843F001031360002010BDAF
:101328000268D36843F00403D360DDE70268D3683A
:1013380043F00803D360D7E70268D36843F010038B
:10134800D360D1E7000001407047704708B5FFF748
:10135800F5F8FFF780F908BD08B50248FFF7FFFD6B
:1013680008BD00BF4000002000B587B000230093EF
:101378000A4B1A6B42F008021A631B6B03F008034E
:101388000093009B4FF4805301930123029301A91A
:101398000348FFF765F907B05DF804FB0038024021
:1013A800000C024010B50446037F012B09D0237FAF
:1013B800022B12D0237F042B1CD0237F082B26D08E
:1013C80010BD0021FFF7AEFD174B18601B68174AC8
:1013D800116822680B445363E9E704212046FFF7AC
:1013E800A1FD114B18601B68104A516822680B4414
:1013F8009363DFE708212046FFF794FD0A4B186046
:101408001B680A4A916822680B44D363D5E70C210C
:101418002046FFF787FD044B18601B68034AD16814
:1014280022680B441364CBE73C000020080000202E
:10143800FEE7000010B592B002230693012209923C
:1014480010220A920C9300230D93542844D017D9E4
:10145800782851D0B4283DD110230E934FF4B4739B
:101468000F93022310930F22019202934FF4A0537B
:1014780004934FF48053059300230393052411E04C
:10148800322827D110230E9364230F93022310933D
:101498000F22019202934FF4805304930593002383
:1014A800039301240223119306A8FFF7BDF900282E
:1014B80035D1214601A8FFF7EFFB002831D1FFF70E
:1014C80097FC194BA3FB00308009FFF79DF8042017
:1014D800FFF7B0F812B010BD10230E93A8230F9396
:1014E800022410940F23019302944FF48053049321
:1014F800059300230393D5E710230E93F0230F934E
:10150800022310930F22019202934FF4A0530493E5
:101518004FF480530593002303930324C2E7FFF796
:1015280087FFFFF785FF00BFD34D621000B589B074
:1015380020484FF0804303604FF0FF33C36001231E
:101548004360FFF72DFE00282AD1302301930022A3
:101558000392194B1B68029301A91648FFF772FE04
:1015680000BB154B5B68029304220DEB0201114886
:10157800FFF768FEC0B9104B9B680293082201A9C7
:101588000C48FFF75FFE88B90B4BDB6802930C220F
:1015980001A90848FFF756FE50B909B05DF804FBE9
:1015A800FFF746FFFFF744FFFFF742FFFFF740FF53
:1015B800FFF73EFF400000200800002008B5FEF7B6
:1015C800A3FF3220FFF736FFFFF7CEFEFFF7AEFF8F
:1015D80000210E48FFF776FE08B1FFF729FF042126
:1015E8000A48FFF76FFE08B1FFF722FF08210748F6
:1015F800FFF768FE08B1FFF71BFF0C210348FFF750
:1016080061FE00B9FEE7FFF713FF00BF40000020AE
:1016180008B50320FEF7A4FF0B4A536A43F4E023FE
:101628005362002211466FF00B00FEF7ABFF002259
:1016380011466FF00A00FEF7A5FF002211466FF071
:101648000900FEF79FFF08BD00ED00E070B588B007
:10165800002400941D4B1A6C42F001021A641A6CA3
:1016680002F001020092009A01941A6B42F0010202
:101678001A631A6B02F001020192019A02941A6B22
:1016880042F002021A631B6B03F002030293029BEF
:1016980022230393022604960125079503A90C48E3
:1016A800FEF7DEFF4FF4406303930496079503A902
:1016B8000848FEF7D5FF22460F211C20FEF762FFDF
:1016C8001C20FEF793FF08B070BD00BF0038024031
:1016D80000000240000402400F49D1F8883043F46A
:1016E8007003C1F888300D4B1A6842F001021A6085
:1016F800002098601A6822F0847222F480321A60FE
:10170800074A5A601A6822F480221A60D8604FF09B
:1017180000638B60704700BF00ED00E000380240B6
:1017280010300024DFF834D0002103E00C4B5B5864
:10173800435004310B480C4B42189A42F6D30B4ADB
:1017480002E0002342F8043B094B9A42F9D3FFF721
:10175800C3FF00F011F8FFF731FF704700000220C7
:1017680008180008000000201C0000201C000020B1
:10177800C0000020FEE7000070B50D4E0D4CA41B04
:10178800A4100025A54209D10B4E0C4C00F018F806
:10179800A41BA4100025A54205D170BD56F825301C
:1017A80098470135EEE756F8253098470135F2E7B6
:1017B800001800080018000800180008041800089D
:1017C800F8B500BFF8BC08BC9E467047F8B500BF26
:0817D800F8BC08BC9E467047F6
:1017E00000000000000000000102030406070809D1
:0817F0000000000001020304E7
:0817F80000EAFF7F0100000080
:04180000AD0100082E
:04180400890100084E
:101808000100000010000000A8610000D4300000B2
:0C1818006A180000350C00000024F400E9
:040000050800172DAB
:00000001FF
