:020000040800F2
:10000000F00D00209D010008A5010008A7010008CF
:10001000A9010008AB010008AD01000800000000C4
:10002000000000000000000000000000AF01000818
:10003000B101000800000000B301000851250008CC
:10004000B7010008B7010008B7010008B7010008B0
:10005000B7010008B7010008B7010008B7010008A0
:10006000B7010008B7010008B7010008B701000890
:10007000B7010008B7010008B7010008B701000880
:10008000B7010008B7010008B7010008B701000870
:10009000B7010008B7010008B7010008B701000860
:1000A000B7010008B7010008B7010008B701000850
:1000B000B7010008B7010008B7010008B701000840
:1000C000B7010008B7010008B7010008B701000830
:1000D000B7010008B7010008B7010008B701000820
:1000E000B7010008B7010008B7010008B701000810
:1000F000B7010008B7010008B7010008B701000800
:10010000B7010008B7010008B7010008B7010008EF
:10011000B7010008B7010008B7010008B7010008DF
:10012000B7010008B7010008B7010008B7010008CF
:10013000B7010008B7010008B7010008B7010008BF
:10014000B7010008B7010008B701000845250008FD
:10015000B7010008B7010008B7010008B70100089F
:10016000B7010008B7010008B7010008B70100088F
:10017000B7010008B7010008B7010008000000003F
:10018000B7010008B7010008DFF80CD000F07AF8DA
:100190000048004781360008F00D002006488047DF
:1001A00006480047FEE7FEE7FEE7FEE7FEE7FEE75C
:1001B000FEE7FEE7FEE7FEE71526000889010008D6
:1001C0002DE9F05F0546002092469B46884606468C
:1001D000814640241BE0284641464746224600F01F
:1001E00041F853465A46C01A914110D31146184659
:1001F000224600F028F82D1A67EB01084F462246E8
:100200000120002100F01FF817EB00094E41201ECD
:10021000A4F10104DFDC484631462A464346BDE8E6
:10022000F09F40EA01039B0703D009E008C9121FB1
:1002300008C0042AFAD203E011F8013B00F8013BA0
:10024000521EF9D27047202A04DB203A00FA02F14C
:10025000002070479140C2F1200320FA03F31943B4
:1002600090407047202A04DB203A21FA02F0002156
:10027000704721FA02F3D040C2F1200291400843B6
:1002800019467047064C074D06E0E06840F0010350
:1002900094E8070098471034AC42F6D3FFF778FF94
:1002A00098370008B837000870B50546D0F87403D1
:1002B000C46994F84E0003281BD0042818D1217B70
:1002C000284602F002FD012812D1217B284602F0C7
:1002D000F8FCA16A80B2814213D0628B824210D2B4
:1002E000091AA162216A08442062032084F84E00A2
:1002F00070BD237B628B2846216A02F0CFF904206F
:10030000F4E7002084F84E00284602F023FB70BD7D
:10031000F8B50646D0F874030125C46994F84D0079
:1003200001280AD0022807D1617B304602F0CDFCBB
:10033000012811D002281AD0F8BD228B606A0095DE
:10034000637B904200D882B23046E16902F0B6F990
:10035000022084F84D00F8BD208B626A00218242A1
:1003600008D9121A6262E3691844E06103D084F884
:100370004D50F8BD616284F84D10304602F0EDFA40
:10038000F8BD000001681823CAB2103AB2FBF3F2BC
:10039000054B6FF30901032A9B5CC36500D9091D56
:1003A00081650846704700007437000810B50146A3
:1003B00000208B698A6A4FF0C07453B1B3F5005FB7
:1003C00015D072B1012A0CD0022A0AD0032A09D111
:1003D00004E01AB1012A06D0022A03D1C96AC90170
:1003E00000D5012010BDC96AA142FAD010BD002A73
:1003F000F7D0012AF2D0022AF3D0032AF3D010BD9D
:1004000030B50468256825F480252560046863609C
:100410008368402B036803D099600068C26030BDD8
:100420009A600068C16030BD10B500224FEA020139
:1004300000EB8203521CC3F87C130F2AF8D300226E
:100440004FF400738418521C84F81C119A42F9D39B
:100450000170417001228270C0F8B8130276402307
:100460008371417680F81C1380F81D23002010BD95
:10047000A122027421224274002242828282072237
:10048000C28202F08EBA2DE9F0410446876D00F079
:1004900051FA064694F835000025022806D080203F
:1004A000606584F834500120BDE8F081206801685F
:1004B00021F0160101602068416921F0800141614D
:1004C000206C08B9A06C20B12068016821F00801F7
:1004D00001602068016821F0010101600BE000F07B
:1004E00029FA801B052806D92020606504F8345FAE
:1004F00003206070D8E720680068C007EFD194F847
:100500005C103F208840B86004F8345F01206070C0
:100510000020C9E72DE9F041044600F00BFA064639
:100520005CB1002584F83450022084F8350020683E
:10053000016821F0010101600DE00120BDE8F081BA
:1005400000F0F8F9801B052805D9202060650320FC
:1005500084F83500F2E720680068C007F0D122680F
:10056000116820480140D4E901031843D4E9033657
:100570003343184363691843A3691843E369184375
:10058000236A18430843616A042903D1D4E90B1391
:1005900019430843106020684069666A20F007012B
:1005A00030460E43012704280CD1A06A0643E06AB6
:1005B00040B12046FFF7FAFE20B14020606584F884
:1005C0003570BAE7206846612046FFF7DBFE94F8F5
:1005D0005C203F2191408160656584F83570002082
:1005E000ACE700003F8010F02DE9F74F82B00446E1
:1005F00000208946019000F09DF9009094F83500A4
:100600000027022804D08020606584F8347068E0F8
:1006100020680068C00503D54FF48070606560E015
:1006200094F85C004FF0200B4FF0100AB9F1000F66
:1006300006D00AFA00F6A56D28684FF001083AE0E6
:100640000BFA00F6F7E70498401C12D0049830B17A
:1006500000F070F90099411A0498814209D9C4F850
:1006600054B004F8347F84F80180032005B0BDE85D
:10067000F08F286894F85C2008219140014204D052
:10068000626D42F001026265A96094F85C2008FA8C
:1006900002F1014204D0626D42F002026265A9607B
:1006A00094F85C2004219140014204D0626D42F034
:1006B00004026265A960304202D1606DC007C2D0F9
:1006C000606D302678B1606DC0070CD02046FFF712
:1006D000DAFE94F85C008640AE6004F8347F84F85B
:1006E00001800120C2E7B9F1000F06D094F85C1038
:1006F0000AFA01F0A8600198B8E794F85C00864017
:10070000AE6004F8347F84F80180F4E770B50446E5
:1007100090F83400002501280CD0012084F8340022
:1007200094F835600020012E06D084F834000225AC
:10073000284670BD022070BD022684F835606065D1
:100740002046FFF75DFE2068016841F0010101606D
:10075000EEE7000070B5044600F0ECF80546601CBA
:1007600002D004480078044400F0E4F8401BA042A2
:10077000FAD370BD040000202DE9F84FDFF87CB1FA
:1007800000224FF001084FF0030A4FF00F090BF160
:10079000040E00BF0B6808FA02F42340A3426ED196
:1007A0004D68022D01D0122D0ED1D50800EB850C1D
:1007B000DCF820505607F70E09FA07F6B5430E6924
:1007C000BE402E43CCF82060066855000F790AFA27
:1007D00005FC07F0030726EA0C06AF403743076025
:1007E0004E68012E05D0022E03D0112E01D0122EFC
:1007F0000ED18668CF6826EA0C06AF403743876083
:100800004668A6430C79C4F3001494403443446012
:10081000C6688C6826EA0C06AC403443C4604C6859
:10082000E40065D5364C256845F48045256024688C
:1008300022F0030504F480440094324C2E19D6F8BB
:10084000084895072F0F09FA07F5AC432E4DA8422B
:1008500001D1002524E02D4DA84201D101251FE042
:100860002B4DA84201D102251AE02A4DA84201D100
:10087000032515E0284DA84202D1042510E037E0F9
:10088000264DA84201D105250AE0254DA84201D1F7
:10089000062505E0234DA84201D1072500E00825E3
:1008A000BD402543C6F80858DBF800405D464E6859
:1008B0009C43F60300D51C432C60DEF800407546CF
:1008C0004E689C43B60300D51C432C600B4D083585
:1008D0002C684E689C43F60200D51C432C60074DE3
:1008E0000C352C684E689C43B60200D51C432C6026
:1008F000521C102AFFF44EAFBDE8F88F003C0140B7
:100900004438024000300140000002400004024030
:1009100000080240000C0240001002400014024097
:1009200000180240001C02400AB1816170470904AE
:10093000FBE70000014880687047000004000020C9
:10094000D0F8940202F080B9D0F8940202F090B985
:10095000006802F055BB01EB810100EBC10090F88B
:100960005C00704701EB810100EBC100C06C704777
:1009700010B5044690F89002012809D0012084F8AF
:100980009002206802F044FB002084F8900210BD21
:10099000022010BDFEB50546DDE9096095F89042DC
:1009A000089F012C1ED0012485F8904201EB8104A0
:1009B00005EBC40402F07F0C04F8383F208161701D
:1009C000E67184F802C04FEAD21C84F803C0277194
:1009D0000097CDE90160286802F0BEFB002185F890
:1009E0009012FEBD0220FEBD70472DE9F00301EB21
:1009F0008104DDE90689DDE908C700EBC4040226AD
:100A000084F83B2084F83F30B8F1000F0AD084F816
:100A10004260002553B1012B3FD0022B1DD0032B88
:100A20002AD120E0032584F84250F2E7B8F1010F03
:100A300022D10ABBBCF1000F10D1012284F8512051
:100A400002E084F8425001E084F8426094F85C20AF
:100A5000022A11D084F83D700EE02AB994F8512092
:100A6000002AF1D1EDE712B194F8502001E094F89A
:100A7000512092B184F84260C4E9119C84F85C5022
:100A8000E56484F8391084F85D50027C04F1380183
:100A90000068BDE8F00302F0DBBB84F84250EBE7EE
:100AA0002DE9F041044600680025064602F0ACFA44
:100AB00001287DD1206802F014FD002878D020683C
:100AC00002F00FFD800203D521684FF40010486149
:100AD000206802F006FDC00203D521684FF48010A3
:100AE0004861206802F0FDFC400103D521684FF009
:100AF00080604861206802F0F4FC800702D521681C
:100B000002204861206802F0ECFC800010D5D6F885
:100B1000400420F02E00C6F840042046FFF714FFE2
:100B20000121206802F0C2FC21684FF000504861AA
:100B3000206802F0D6FCC00102D5204601F015FA6B
:100B4000206802F0CEFC000705D5204600F0A8F88A
:100B5000216808204861206802F0C3FC800120D58C
:100B6000206802F06EFB07464FF0010812E000BF5C
:100B700008FA05F038420CD006EB4510D0F8000515
:100B8000E9B20004204602D500F0CBFF01E001F0FD
:100B9000E1F86D1CA068A842EAD821684FF0007007
:100BA0004861206802F09DFCC0060ED5206800E078
:100BB0000BE0816921F010018161204601F02CFADF
:100BC0002068816941F010018161BDE8F08130B594
:100BD0008BB0040026D0032084F89102204600F058
:100BE00023F8206802F0A8F904F1100128220D462C
:100BF0006846FFF716FB94E80F0002F04BF901215D
:100C0000206802F082FC282229466846FFF709FB8B
:100C100094E80F0002F0E0FB012084F8910200202C
:100C20000BB030BD0120FBE730B5006887B0B0F1F4
:100C3000A04F2ED100244FF40070CDE90004164DD2
:100C4000694628460294FFF797FD4FF4E050009064
:100C50000220CDE901040A20CDE903406946284677
:100C6000FFF78AFD0D48016841F0800101600B48E3
:100C70001030016841F4804101600068002200F4F6
:100C8000804005901146432000F058FB432000F0BF
:100C900049FB07B030BD000000000240343802407C
:100CA000D0F8940202F015B810B5044690F89002FE
:100CB00001280DD0012084F89002206802F078F914
:100CC0000121206802F05EF9002084F8900210BD36
:100CD000022010BD10B5044690F89002012809D0FA
:100CE000012084F89002206802F025FC002084F89E
:100CF000900210BD022010BD70B5040004D094F81D
:100D00003D00002510B106E0012070BD84F83C5084
:100D1000204600F075F8242084F83D002068016822
:100D200021F00101016000F0A5FC33492268B0FB0D
:100D3000F1F15160314A6368934206D94FF49673DA
:100D400059434FF47A73B1FBF3F12368491C1962DC
:100D5000616891420BD84900B0FBF1F2C2F30B027B
:100D6000042A01D2042019E0B0FBF1F016E0A368D8
:100D70009BB301EBC10202EB0112B0FBF2F242F4B1
:100D80008042120530D04BB301EBC10202EB0111DE
:100D9000B0FBF1F040F4804040F400402168C861AD
:100DA000D4E90701084321680860D4E90310084327
:100DB00021688860D4E9050108432168C86020687B
:100DC000016841F0010101602564202084F83D00A4
:100DD000256384F83E50002070BD00E006E001EB82
:100DE0004102B0FBF2F2CCE70120D7E701EB410171
:100DF000B0FBF1F0D0E7000040420F00A0860100F8
:100E000000B500680E4987B0884217D14FF41070C2
:100E100000901220019001200290002003900420F5
:100E2000049069460748FFF7A7FC0748016841F4AA
:100E300000110160006800F40010059007B000BDCB
:100E40000054004000040240403802402DE9FE43B7
:100E5000044600688168744D744E4FF0402702913B
:100E6000A84201D1314600E0394689680191C16943
:100E70004FF00108C1F3012102290AD0C16911F420
:100E8000407F06D00199890773D5A84267D13046C3
:100E900066E00299890707D54068C043000603D47D
:100EA0000021204601F034F90198C0070DD02068D8
:100EB000A84201D1304600E038464068C0434006B1
:100EC00003D40121204601F0DFF801984FF65F7945
:100ED000400628D52068A84201D1314600E03946B5
:100EE0004968C94389061ED4A84201D1304600E0B2
:100EF0003846406820F0600101D1304600E03846B5
:100F000041602068416801EA090141602068C168C8
:100F10008068009084F84180606C40F0020060645A
:100F2000204600F086F8029800077BD520684168CB
:100F3000C943890676D4416801EA09014160206805
:100F4000A84201D1304600E03846406820F06000F9
:100F500000D03E46706020688068009057E03846B8
:100F600040686FEA0000000603D40121204601F02A
:100F7000CFF80298C00708D020684068C0434006F8
:100F800003D40021204601F07FF802984FF69F79A4
:100F900040061FD520684168C94389061AD44168B4
:100FA00001EA090141602068A84201D1304600E011
:100FB0003846406820F0A00101D1304600E03846B4
:100FC000416084F84180606C40F00200606420461B
:100FD00000F02FF80198000724D52068A84201D11D
:100FE000314600E039464968C94389061AD4A84207
:100FF00001D1304600E03846406820F0A00000D023
:101000003E4670602068416801EA0901416084F849
:101010004180606C40F0040060642046BDE8FE43FF
:1010200000F007B8BDE8FE830038004000340040FF
:10103000704770472DE9F05F04004FF002064FF053
:1010400000074FF010052CD04FF00209C84684F875
:10105000419054486063204600F0ACF82068C169B4
:1010600040F6BF7A21EA0A01C1612168C1F82080F7
:101070002068D0F81C8060694FF4007B022835D0CE
:10108000E06800B12025A068202800D86D0001206C
:1010900000F086F92169594525D1E16821B1A900FF
:1010A00003E00120BDE8F09FE900B0FBF1F000BFD4
:1010B00000EB800061694000B0FBF1F0401D0A21A7
:1010C000B0FBF1F101F00100091AC1F34F0607026C
:1010D000B01EFE280AD3606C40F010006064204609
:1010E000FFF7A7FFDDE7B0FBF5F0E1E72069216836
:1010F0003E4330430862A0882189228B0843A1899E
:101100001143084380B2216840EA080040F40060BF
:10111000C861206A01283AD12348606323482168C6
:10112000234A4FF04023814201D1114600E0194685
:10113000C96921EA0A0101D1154600E01D46E961AD
:1011400025684946854201D1154600E01D462962C1
:101150002568854201D1114600E01946CE696168D3
:1011600059451BD0D1B100212789B4F80CC047EAFA
:101170000C07B4F818C04CEA010C47EA0C07B9B2E6
:10118000314341F40061854200D01A46D16100200C
:101190006064012084F84100002083E74FF48071EF
:1011A000E2E70000952100084D0E000800380040DD
:1011B0000034004070B50068134986B0884220D1E1
:1011C00012480024016841F40041016000680225D2
:1011D00000F40040059010200090CDE9015406264F
:1011E000CDE9034669460A48FFF7C6FA4FF4A45012
:1011F0000090CDE90154CDE9034669460548FFF763
:10120000BBFA06B070BD0000003C00404038024010
:1012100000000240000802407047704702488168A1
:101220000278114481607047040000200B4810B51B
:10123000016841F400710160016841F4806101605E
:10124000016841F480710160032000F097F80020EC
:1012500000F006F800F024F8002010BD003C024029
:1012600070B50D4D04464FF47A712878B1FBF0F05B
:101270000A490968B1FBF0F000F03BFC48B9102CBA
:1012800007D200222146501E00F058F800206C6062
:1012900070BD012070BD000004000020100000207F
:1012A0001F4808B5016841F480410160006800F4FE
:1012B000804000901A48001F016841F08051016091
:1012C000006800F080500090072000F057F80022DE
:1012D00011466FF00B0000F031F8002211466FF05C
:1012E0000A0000F02BF8002211466FF0090000F010
:1012F00025F800221146501F00F020F80022114668
:10130000101F00F01BF800221146901E00F016F886
:101310000022BDE808401146501E00F00FB8000042
:101320004438024000F01F02012191404009800032
:1013300000F1E020C0F8001170470000F0B40E4B3F
:101340001B680C46C3F30223C3F10705042D00D923
:101350000425191D072901D2002300E0DB1E012608
:1013600006FA05F1491E214099409E40761E16401E
:101370003143F0BC01F0D6B80CED00E0064900F0B6
:10138000070208684FF6FF03184040EA0220034AAC
:1013900010430860704700000CED00E00000FA0503
:1013A00001460020012907D11049096811F4000104
:1013B00003D0012900D10E4870470C48001F016876
:1013C0000068490200F03F0001D50A4900E00A49DF
:1013D000064AB1FBF0F07C321168C1F38811414339
:1013E0001068C0F30270B1FBF0F07047083802409B
:1013F0000080BB0000127A000024F4002DE9F843BD
:10140000054600684FF00109C1074FF0000601D101
:10141000400727D5DFF80C81C8F86860FFF78AFA23
:101420000746414C05E000BFFFF784FAC01B0228C5
:1014300057D820680001F7D468688101287A41EA0A
:101440000070394984310860C8F86890FFF772FA73
:10145000074604E0FFF76EFAC01B022841D8206857
:101460000001F7D52878800752D52F484030016811
:1014700041F08051016000682C4C00F080500090D9
:10148000206840F480702060FFF754FA074604E0BB
:10149000FFF750FAC01B022823D82068C005F7D5F3
:1014A000214C7034206810F4407020D0A98901F4D8
:1014B000407181421BD020681D4920F44070C1F862
:1014C00000900E6020602068C00710D0FFF732FA4D
:1014D000064641F2883707E0FFF72CFA801BB84236
:1014E00002D90320BDE8F88320688007F4D5E968B5
:1014F0000D48C1F301220830032A0BD0016821F402
:10150000F81101602068A989C1F30B01084320602C
:101510000020E7E70268074B22F4F81219400A435B
:101520000260EFE7000047420038024000700040D0
:10153000400E4742FFFCFF0F2DE9F0470E46050025
:1015400065D0DFF81481D8F80000F7B200F00F0082
:10155000B04207D288F80070D8F8000000F00F0001
:10156000B04254D128683D4C810712D5400703D5BD
:10157000206840F4E05020602878000703D52068F8
:1015800040F4604020602068A96820F0F000084323
:1015900020602878C0072DD03049686808390128B4
:1015A00012D0022813D0032811D009688907002916
:1015B0002DDA216821F0030101432160FFF7BAF918
:1015C000814641F2883A0EE009688903EFE709682D
:1015D0008901ECE7FFF7AEF9A0EB0901514502D90B
:1015E0000320BDE8F0872068696800F00C00B0EBCC
:1015F000810FEFD1D8F80010404601F00F01B14241
:1016000007D90770006800F00F00B04201D0012038
:10161000E7E72878400705D52068E96820F4E0501E
:10162000084320602878000706D52068296920F43F
:10163000604040EAC100206000F02CF82168084AB0
:10164000C1F30311515CC840064908600020FFF750
:1016500007FE0020C5E70000003C024008380240B9
:101660007C37000810000020014800687047000027
:10167000100000200448054900680968044AC1F3C5
:101680008221515CC8407047100000200838024099
:101690008C370008154810B5006810F00C0214488B
:1016A00013D04110042A0FD0082A0ED10F4C241F4A
:1016B0002268236802F03F025B0207D52068C0F36E
:1016C0008810A0FB010106E0084610BD2168C1F3A7
:1016D0008811A1FB00010023FEF772FD2168C1F310
:1016E0000141491C4900B0FBF1F010BD083802402F
:1016F0000024F4002DE9F84F050076D02878DFF8B3
:10170000F8B2BE4CC00749D0DBF800105846C1F310
:101710008101012908D00068C0F3810002280AD1A4
:10172000201D0068400206D52068800336D5686811
:101730000028E2D032E06868B0F5803F10D0B0F504
:10174000A02F206810D020F480302060206820F482
:10175000802020606868A0B1FFF7ECF806460CE036
:10176000206840F48030F4E740F480202060F7E700
:10177000FFF7E0F8801B642873D820688003F7D552
:101780000CE0FFF7D7F8064605E000BFFFF7D2F8F8
:10179000801B6428F0D820688003F7D42878DFF80D
:1017A000608280074FF000093ED5DBF800105846F4
:1017B00011F00C0F09D00068C0F3810002280BD192
:1017C0008D48001F0068400206D42068800715D5A8
:1017D000E868012809D111E0E868B8B10120C8F82B
:1017E0000000FFF7A7F8064605E002E1FFF7A2F8C0
:1017F000801B0228C0D820688007F7D52068296997
:1018000020F0F80040EAC10020600DE0C8F8009028
:10181000FFF790F8064604E0FFF78CF8801B0228DB
:101820001FD820688007F7D42878000722D5724E89
:10183000744869696C3671B101210160FFF77AF86B
:10184000074604E0FFF776F8C01B022809D8306885
:101850008007F7D50EE0C0F80090FFF76BF8074659
:1018600005E083E0FFF766F8C01B02287ED83068E9
:101870008007F7D42878400768D5DFF87CA10027D7
:101880000AF1380ADAF80000C0000BD4DAF80010C8
:1018900041F08051CAF80010DAF80000012700F08A
:1018A00080500090584E3068C00510D4306840F425
:1018B00080703060FFF73EF8009005E0FFF73AF8DF
:1018C0000099401A022851D83068C005F6D54A4E12
:1018D000A868683601280FD00528306810D020F09D
:1018E00001003060306820F004003060A868B8B1B2
:1018F000FFF720F800900FE0306840F00100F4E7B7
:1019000040F004003060F7E7FFF714F80099411A3F
:1019100041F28830814264D830688007F4D50EE007
:10192000FFF708F8009007E0FFF704F80099411A64
:1019300041F28830814254D830688007F4D42FB106
:10194000DAF8001021F08051CAF80010A869C0B37D
:10195000DBF80010C1F3810102294AD00228484671
:1019600007D0C8F86000FEF7E5FF00E039E0054663
:101970003AE04746C8F86000FEF7DCFF064604E0A0
:10198000FEF7D8FF801B02282BD820688001F7D4EF
:10199000D5E907010843A96A1C4A490802EB01413D
:1019A0006A6A41EA8211084395F82C1040EA016105
:1019B0001148001F016001203866FEF7BBFF054695
:1019C00005E014E0FEF7B6FF401B022809D82068A6
:1019D0008001F7D50BE000BFFEF7ACFF401B0228EB
:1019E00002D90320BDE8F88F20688001F4D40020DC
:1019F000F8E70120F6E7000008380240003802400E
:101A000000004742800E4742007000400000FFFF88
:101A100070B5040005D00025A56294F8510010B1FE
:101A200006E0012070BD84F85050204600F030F8E8
:101A3000022084F851002068016821F04001016013
:101A4000D4E901010843D4E9031211430843616951
:101A50000843218B01F400710843E1690843216ABE
:101A60000843A16A084321680860A069042101EACB
:101A70001040616A0843216848602068C16921F408
:101A80000061C1616565012084F85100002070BDCE
:101A900000B500680D4987B0884215D10C48002177
:101AA000026842F480520260006800F480500590A1
:101AB000E02000900220CDE901010520CDE90310CE
:101AC00069460448FEF758FE07B000BD00300140EB
:101AD00044380240000002404FF0E0210428086929
:101AE00003D020F004000861704740F00400FAE7DA
:101AF000704710B5401EB0F1807F01D3012010BDAA
:101B00004FF0E02460610F21601700F00BFD002012
:101B1000A06107202061002010BD10B5FFF7E8FF8D
:101B200010BD2DE9F05F06460068884600EB4814BA
:101B3000D4F808054FF0040B410708EB88004FF07C
:101B4000050A4FF0100706EBC00508D5C4F808B524
:101B5000D4F80C0540F00200C4F80C0532E0D4F8CB
:101B60000805800601D520202AE0D4F808054FF0AA
:101B70000809000710D5D4F80C0540F00200C4F89D
:101B80000C0585F85DA0C4F80875C4F808954146B1
:101B9000306801F03DFA15E0D4F80805400511D58C
:101BA000D4F80C0540F00200C4F80C05414630683A
:101BB00001F02EFAC4F8087585F85D904FF4806046
:101BC000C4F80805D4F8080580050ED5D4F80C052E
:101BD00040F00200C4F80C05414604F5A1643068E9
:101BE00001F016FA4FF400708DE0D4F808054FF0BC
:101BF0000001C0074FF0010236D0306930B1A86C47
:101C0000D4F81035C3F31203C01AE86485F85D20D8
:101C1000A965C4F8082595F83F0020B1022802D034
:101C200003280ED019E0D4F80C0540F00200C4F8E7
:101C30000C05414604F5A164306801F0E9F927601C
:101C40000BE0D4F8000540F00050C4F8000585F81A
:101C50005C2041463046FEF7C7FE15F8500F80F075
:101C600001002870BDE8F09FD4F80805800733D53F
:101C7000D4F80C0520F00200C4F80C0595F85D00BE
:101C80000223012806D0052807D0062808D00828F6
:101C900006D018E085F85C2015E085F85CA012E01D
:101CA000A86D421CAA65032803D9A96585F85CB014
:101CB00001E085F85C30D4F8000520F0804040F069
:101CC0000040C4F80005C4F8083595F85C2041468A
:101CD0003046FEF789FEC5E7D4F80805000614D59E
:101CE000D4F80C0540F00200C4F80C05A86D41467C
:101CF000401CA865062085F85D0004F5A1643068E5
:101D000001F086F980202060ACE7D4F80805C00611
:101D1000A8D595F83F00032809D1D4F80C0540F068
:101D20000200C4F80C054146306801F071F9032047
:101D300085F85D00C4F8087595F83F0008B10228E1
:101D400090D1D4F8000520F0804040F00040C4F865
:101D5000000587E72DE9F047026802EB4114D4F84B
:101D600008254FF0040C520709D5C4F808C5D4F86B
:101D70000C0540F00200C4F80C05BDE8F087D4F86B
:101D8000082501EB810392064FF0020600EBC30524
:101D900014D52022C4F8082595F83D20012AECD15D
:101DA00085F85DC0D4F80C2542F00202C4F80C2579
:101DB000006801F02DF985F85C60DEE7D4F80825AD
:101DC0004FF0000352060FD585F85DC0AB65D4F81F
:101DD0000C2542F00202C4F80C25006804F5A16449
:101DE00001F016F9402010E0D4F8082592050ED530
:101DF000D4F80C2542F00202C4F80C25006804F562
:101E0000A16401F005F94FF400702060B5E7D4F843
:101E100008254FF00108D20710D0AB65D4F80C2587
:101E200042F00202C4F80C25006804F5A16401F038
:101E3000EFF8C4F8008085F85D809EE7D4F80825A7
:101E40004FF0080912074FF0050A0DD5C4F80895A0
:101E5000D4F80C2542F00202C4F80C25006801F009
:101E6000D7F885F85DA088E7D4F808254FF010076B
:101E7000D20610D5AB65D4F80C2542F00202C4F8A6
:101E80000C25006804F5A16401F0C2F8032085F870
:101E90005D00276071E7D4F8082512060FD5D4F845
:101EA0000C2542F00202C4F80C25006804F5A16478
:101EB00001F0AEF8062085F85D008020A5E7D4F893
:101EC0000825520511D5D4F80C2542F00202C4F8B9
:101ED0000C25006804F5A16401F09AF827604FF41E
:101EE0008060206085F85D9047E7D4F80825920768
:101EF0008CD5D4F80C2522F00202C4F80C2595F8F4
:101F00005D20012A0AD0032A26D0042A13D0052AEC
:101F100016D0062A17D0082A15D01FE085F85C8055
:101F200095F83F20022A19D195F8512082F001023C
:101F300085F8512012E085F85C6085F83D300DE0B1
:101F400085F85CA00AE0AA6D571CAF65032A03D987
:101F5000AB6585F85CC001E085F85C60C4F8086595
:101F600095F85C20FEF740FD07E77CB50468054660
:101F7000D4F840040190D4F8400420F02E000090E2
:101F8000019880070DD50198C00706D0A06920F000
:101F90000051A1612846FEF7D3FC009840F00200F2
:101FA0000090019800072CD5009840F008000090A0
:101FB000019840071AD5A869022803D0E8680328C9
:101FC0000CD00FE00198C0F341400228286803D0EC
:101FD000012101F06BFA05E00221FAE74EF66020DC
:101FE000C4F804042846FEF7ABFC0AE0D4F8400429
:101FF00020F02E00C4F840042868816941F00051A7
:10200000816101988006009802D540F02000009080
:10201000C4F840047CBD00002DE9F0410246006890
:102020000646016AC1F3434301F00F07C1F30A14E6
:10203000022B25D1002C23D007EB870102EBC10531
:10204000696C00291CD0224601F04FFA686C2044CC
:102050006864E86C2044E86406EB4710D0F810157B
:10206000084A11420CD0D0F8001521F0804141F00F
:102070000041C0F8001515F8500F80F001002870DD
:10208000BDE8F0810000F81F2DE9F041C26A012689
:1020900013460468921C39B11B491C4D4FF0402770
:1020A0008C4217D12C4616E0E168C2621980418E3D
:1020B000491E4186418E00290AD101684A684FF6BF
:1020C0009F731A404A601BE080F84160FEF7B0FF42
:1020D000BDE8F0813C46E468C2621C80428E521E1C
:1020E0004286428E002AF3D102688A4201D12946F3
:1020F00000E03946496821F0600100D03D46696042
:10210000418D0029E0D0E3E7003800400034004072
:1021100070B5426A0125941C0368446241B11B49B1
:1021200012881B4C4FF040268B4216D1234615E0F7
:102130001188D960418D491E4185418D00290BD1FF
:1021400001684A684FF65F731A404A6019E000BFA1
:1021500080F84150FEF76CFF70BD3346DA60428D67
:10216000521E4285428D002AF6D102688A4201D170
:10217000214600E03146496821F0A00100D03446F4
:102180006160418E0029E3D070BD0000003800403E
:1021900000340040FEB5016804468868019094F858
:1021A00041000125042833D101984FF69F76C007DE
:1021B00016D04868C043400612D4CA682046E16A77
:1021C0008B1CE3620A80618E491E6186618E39B97B
:1021D00001684A6832404A6080F84150FFF71CF8B5
:1021E0000198400614D520684168C94389060FD478
:1021F0004168314041602068C1688068009084F87F
:102200004150606C40F0020060642046FEF711FF10
:1022100094F84100032834D101984FF65F76800787
:1022200018D520684068C043000613D4616A204670
:102230008A1C626222680988D160618D491E6185AD
:10224000618D39B901684A6832404A6080F841506E
:10225000FEF7E3FF0198000713D520684168C943E2
:1022600089060ED441683140416020688068009042
:1022700084F84150606C40F0040060642046FEF732
:10228000D8FEFEBD114808B50268002142F4800264
:10229000026000680E4A00F4800000900D48C0E91A
:1022A00000218022C0E90221016141618161042293
:1022B000C161C0E908120322C0E90A210163FEF7E7
:1022C00029F9002800D0FEE708BD000030380240A0
:1022D000106402403001002020B100220121024898
:1022E000FEF722BB0122F9E7000802402DE9F04F7A
:1022F0004E4887B00024016841F010010160016878
:1023000001F010010591016841F0040101600168CC
:1023100001F004010591016841F08001016001684C
:1023200001F080010591016841F00101016001683F
:1023300001F001010591016841F0020101600168AD
:1023400001F002010591016841F008010160006897
:10235000002200F00800059008213548FEF7E4FA55
:10236000DFF8D080012211464046FEF7DDFADFF8A3
:10237000C8B04FF21009002249465846FEF7D4FA79
:10238000082601250096CDE90154694628480394A2
:10239000FEF7F2F90095CDE90154694640460394F1
:1023A000FEF7EAF900960226CDE901640527CDE99A
:1023B000034769464046FEF7DFF9DFF88080009565
:1023C000CDE9018469461E48FEF7D6F90420CDE91F
:1023D0000004DFF870A0694650460294FEF7CCF97D
:1023E000A8020090CDE90164CDE903476946504653
:1023F000FEF7C2F9CDF80090CDE901546946584680
:102400000394FEF7B9F92020CDE900046946584647
:102410000294FEF7B1F90096CDE9018469460448BB
:10242000FEF7AAF907B0BDE8F08F0000303802408F
:102430000010024000080240000C02400000121090
:1024400000000240000402400B4810B50949016039
:102450000A49416000214FF480428160C0E90312C3
:1024600041618161C1610162FEF746FC002800D034
:10247000FEE710BD005400403C000020A086010093
:102480000A490B4810B54A15C0E9001200218160C5
:10249000C0E90312074AC0E90521C1610162FEF7E4
:1024A000C9FD002800D0FEE710BD0000003C004040
:1024B00090000020007701000E4810B50C49016023
:1024C0004FF48271416000218160C1604FF400725D
:1024D0000161C0E90512C1610162416281620A21A4
:1024E000C162FFF795FA002800D0FEE710BD00009A
:1024F00000300140D800002010B5012206490748ED
:1025000000F07AFB0649054800F090FCBDE8104059
:10251000024800F0A4BC0000752E000890010020C5
:10252000140000200907090E002806DA00F00F0049
:1025300000F1E02080F8141D704700F1E02080F8E1
:10254000001470470148FEF7ABBA000058050020A0
:1025500010B5FEF763FEBDE81040FFF7DEBA0000DD
:1025600070B52A4896B00025016841F0805101609D
:10257000006800F0805015902548016841F48041C2
:1025800001600068012600F4804015903004CDE918
:10259000006002248001CDE90640082008904FF435
:1025A000A870CDE9090407200B906846FFF7A2F850
:1025B00000B1FEE70CA90F2081E831004FF4A050D4
:1025C0000F904FF48050109005210CA8FEF7B4FF37
:1025D00000B1FEE7C020CDE91204119611A8FEF764
:1025E0000DFF00B1FEE7FFF73FF84FF47A71B0FB43
:1025F000F1F0FFF77EFA0420FFF76EFA0022114691
:10260000501EFEF79BFE16B070BD00004038024021
:10261000007000401048016841F4700101600F48EB
:10262000016841F0010101600C4A0021083211608B
:1026300002680B4B1A400260031D0A4A1A600268C6
:1026400022F48022026005480C30016002495806DD
:10265000803908607047000088ED00E000380240D3
:10266000FFFFF6FE1030002410B500224FF6FF7376
:1026700000EB8204B4F87C43240409D49A4205D0C8
:1026800000EB820041F40041C0F87C13D0B210BDD1
:10269000521CD2B20B2AEBD31A46F7E77FB51C4681
:1026A000012501AE0023009586E80E0002232A468C
:1026B000214600F099FB04B0002070BD7FB51D4697
:1026C00090F81D33089C03B100240123CDE90031AB
:1026D000CDE9022402230022294600F085FB04B044
:1026E000002070BD70B50446D0F87403C16920465F
:1026F0004031FDF7BDFE050004D1D4F8C42302210A
:1027000020469047284670BD70B50546D0F8740342
:102710000026C469217839B1284600F01FF92178D4
:10272000284600F09EF92670217B39B1284600F03A
:1027300015F9217B284600F094F92673617B39B1A5
:10274000284600F00BF9617B284600F08AF9667391
:10275000D5F87403C06920B100F06AFFD5F874039E
:10276000C661002070BDFEB50227054601233A462A
:10277000394600F054F90646FF287ED00146284627
:1027800000F062FB502000F0BFFFD5F87413044640
:10279000C86106EB860000EBC60005EB400090F830
:1027A00048130A0603D56170B0F84A036081617866
:1027B0002846FFF759FF2070014695F81D036389ED
:1027C00003228DE80D0095F81C336278284600F04E
:1027D00023FB21780022284600F0D6FA00231A466F
:1027E0000A21284600F01BF9FF2854D000EB800195
:1027F00001EBC00005EB400090F848130A0604D531
:10280000E173B0F84A13618303E0A173B0F84A138F
:10281000218390F850130A0604D5E173B0F85203EF
:10282000608303E0A173B0F852032083A17B2846A4
:10283000FFF71AFF6073E17B2846FFF715FF20734F
:10284000208B95F81D1302260091CDE9016095F8C3
:102850001C33A27B617B284600F0DEFA608B95F882
:102860001D130091CDE9016095F81C33E27B217BBB
:10287000284600F0D1FA002000E00CE084F84C007B
:102880000246617B284600F07FFA217B0022284621
:1028900000F07AFA00273846FEBD70472DE9F04176
:1028A0000546D0F8740301270026C4694FF00408D8
:1028B00094F84C0005284AD2DFE800F00305163BE7
:1028C0004200002743E02122A16C2A7420226A746E
:1028D0006E82AE8207222846EA8200F062F848B98A
:1028E000022084F84C0032E004F140012846FDF754
:1028F000BFFD20B101282AD084F84C8027E084F85D
:102900004C60A06C94F84410027991421FD194F865
:102910004610827991421AD194F845104279914239
:1029200015D1216C0068814211D12846FFF7B5FF0F
:102930000DE02846FDF7ECFC2846FDF7B5FC06E067
:102940000021284600F00FF808B984F84C6038469A
:10295000BDE8F081704700207047704710B500F067
:1029600063F9002010BD8278012A07D10222027487
:1029700001224274002242828182C28200221146D8
:1029800000F00FB87FB51C46012501AE002300956D
:1029900086E80E002A46214600F026FA04B0002000
:1029A00070BD70B504460120A3780546012B09D0FF
:1029B000022B06D1204600F060F848B1022800D171
:1029C000A57070BDA160A28125760221A17070BDA5
:1029D000A5700021217670BD7FB51D4690F81D338E
:1029E000089C03B100240123CDE90031CDE9022484
:1029F00000231A46294600F0F7F904B0002070BD04
:102A00001FB500231446CDE900310822CDE9022389
:102A10001A46214600F0E8F904B0002010BD70B558
:102A2000002400F2323004EB840505EBC40500EB12
:102A30004505EE7B0A358E4201D0FF2909D1AE79DA
:102A4000964201D0FF2A04D1ED799D4207D0FF2B99
:102A500005D0641C64B2022CE5DBFF2070BDE0B23F
:102A600070BD0B2907D200EB8100B0F87C13C1F3D5
:102A70000E01C0F87C13002070472DE9F84F044682
:102A80000125007E0B262F464FF009084FF007095D
:102A90004FF0050B4FF00D0A0C281ED2DFE800F0B6
:102AA000A9060E212C38445C67788495627904F17C
:102AB00010012046FFF7A4FF02200DE061792046B7
:102AC00000F003F9012877D1207CE18A00F0800032
:102AD00021B180283BD1032020768AE0802814D0C1
:102AE0002FE0D4F8B803E0812379A2892046A168B9
:102AF000FFF748FF0420EFE72179204600F0E5F8D2
:102B0000012802D0052841D056E084F8188070E0F2
:102B100000976379A2892046A168FFF75DFFD4F88A
:102B2000B803E0810620D7E76179204600F0CDF8B0
:102B3000012806D0052807D0022808D0042809D08B
:102B400057E084F8189054E00C2020761EE084F8BA
:102B500018B04EE026764BE000222379114620463D
:102B6000FFF710FFD4F8B803E0810820B4E721791B
:102B7000204600F0AAF8012804D0042823D0052814
:102B800004D036E084F818A0002532E0032530E0B8
:102B900000970022637911462046FFF71DFFD4F805
:102BA000B803E0810A2097E76179204600F08DF8AC
:102BB000012804D00228A8D0042804D019E0002558
:102BC00084F818A015E0267613E0607E401CC0B2A1
:102BD0006076022805D8204600F0F6F82776A77020
:102BE00007E0D4F8C42306212046904700206076F1
:102BF00002252846BDE8F88F70B50D46040011D0B7
:102C000084F8BC230020C4F87403C4F87803204679
:102C1000FDF70AFC0DB1C4F8C453204600F068F873
:102C2000002070BD022070BD10B50024D0F8C00394
:102C3000FDF79EFE30B1012801D0022801D0022408
:102C400000E00124204610BD10B5017819B10178CB
:102C5000012909D00AE0012180F81E13D0F8C4230D
:102C600022B10421904701E002210170002010BD33
:102C700010B5044600F0A8F821792046FFF7F1FED0
:102C800061792046FFF7EDFE002084F81E03D4F89A
:102C9000C42312B1052120469047204600F084F855
:102CA00003202070002010BD10B590F8BC0301284F
:102CB00002D10846FFF710FBC820FDF74BFD0020AE
:102CC00010BDD0F8C003FDF74DBED0F8C003FDF72E
:102CD00042BED0F8B813491CC0F8B81301780A29CD
:102CE00005D1D0F87413002901D0896908477047CD
:102CF00010B5044690F8BC0301281ED110484FF0CF
:102D0000A0410022C0F89442C4F8C0030160082129
:102D100081600321C0E903120221C0E90612FDF718
:102D200056FF18B1E22107A000F072FC0448FDF73D
:102D30000FFE0146204600F024F8002010BD0000E0
:102D4000580500202E2E2F5372632F757362685F13
:102D5000636F6E662E630000FEB508AC94E8E00079
:102D60008DE8E0000024D0F8C003FDF713FE30B179
:102D7000012801D0022801D0022400E001242046CD
:102D8000FEBDC0F8B8137047D0F8C00301EB810155
:102D900000EBC10090F83B1011B180F8502001E029
:102DA00080F851200020704710B50024D0F8C003EF
:102DB000FDF77AFF30B1012801D0022801D00224AA
:102DC00000E00124204610BD10B50024D0F8C00357
:102DD000FDF780FF30B1012801D0022801D0022484
:102DE00000E00124204610BD2DE9FF410AAC94E823
:102DF000E0108DE8E0100024D0F8C003FDF7F5FDE9
:102E000030B1012801D0022801D0022400E00124C1
:102E100004B02046BDE8F081FEB508AF97E8700029
:102E20008DE87000FFF798FF0020FEBD002211B171
:102E3000D0F8783313B10222104670470123C0F84E
:102E40007833C0F87013F7E70246002092F8363363
:102E50008B4202D982F81F1370470220704710B5C9
:102E60000446FFF7A1FF01212046FFF71DFF0020C8
:102E700010BD000001290AD00548022906D0042906
:102E800003D0052903D1032100E00121017070471F
:102E90000200002070B50446049D06990D98012992
:102EA0000CD0E06840F04000E060204600F028F8D8
:102EB0004FF48030A063012D16D01DE0A16B21F4EA
:102EC0008031A163E1680D4A1140E160E16821F4BD
:102ED0004011E160012803D1E06840F48010E06017
:102EE000204600F00DF8E6E7A06840F00600A0607C
:102EF000A06840F02000A060002070BDBFFFBDFFB3
:102F000001220C4902E0521C8A420BD80369002BB3
:102F1000F9DA026942F001020261012204E0521C66
:102F20008A4201D9032070470369DB07F7D10020EB
:102F300070470000400D0300816821F001018160AD
:102F40000020704730B50246012400230C4800EAF7
:102F5000C44040F0004502F5A06000EB411005615F
:102F600002F5A06000EB4110036823F0804343F0BA
:102F7000004302F5A06000EB41100360002030BD6B
:102F80000000F81F08B5D0F8402422F02E0200926D
:102F9000D20405D4012909D1009941F4805103E0FC
:102FA00021B9009921F48051C0F84014002008BDD7
:102FB000816841F0010181600020704700211022EA
:102FC0000261054A491C914201D9032070470369F7
:102FD000DB06F7D400207047400D030000222023B9
:102FE00043EA811101610549521C8A4201D903203B
:102FF000704703699B06F7D400207047400D03001B
:10300000D0F8080480B27047406900F001007047B2
:1030100010B50246002302F5A06000EB41100068E5
:10302000C0F3814040B102F5A06000EB41100068A0
:10303000C0F38140022846D102F5A06000EB4110A8
:10304000006840F0804402F5A06000EB411004608D
:10305000D06A00F47F0048BB02F5A06000EB41108D
:10306000006820F0004402F5A06000EB411004600D
:1030700002F5A06000EB4110006840F0004402F54A
:10308000A06000EB4110046000BF581C0346B0F57F
:103090007A7F00D909E002F5A06000EB41100068DA
:1030A00000F00040B0F1004FEFD053E002F5A06017
:1030B00000EB4110006840F0004402F5A06000EB16
:1030C0004110046046E002F5A06000EB411000688A
:1030D00040F0804402F5A06000EB411004604FF422
:1030E0008260805880B248BB02F5A06000EB4110BE
:1030F000006820F0004402F5A06000EB411004607D
:1031000002F5A06000EB4110006840F0004402F5B9
:10311000A06000EB4110046000BF581C0346B0F5EE
:103120007A7F00D909E002F5A06000EB4110006849
:1031300000F00040B0F1004FEFD00BE002F5A060CE
:1031400000EB4110006840F0004402F5A06000EB85
:1031500041100460002010BDF0B5DDE906564FF0C7
:10316000FF3C00EB4114059FC4F808C535B1012DA3
:1031700021D0022D02D0032D2AD114E040F29D4C23
:10318000C4F80CC55FEA026C05D500BFD4F80CC5C5
:103190004CF4807C1AE0B0F1A04F19D0D4F80CC5E3
:1031A0004CF0600C12E040F29D6CC4F80CC55FEA74
:1031B000026CEBD40CE040F2252CC4F80CC55FEA9D
:1031C000026C05D5D4F80CC54CF4C07CC4F80CC511
:1031D000D0F818C44FF0010E0EFA01FE4CEA0E0CA6
:1031E000C0F818C4816941F0007181614FF0FE5050
:1031F00000EA83504FF4F04101EAC22108434FF442
:10320000004101EA02210843022F10D05FF00001C3
:1032100040EA41404FF4402101EA85410843C6F3AA
:103220000A010843C4F80005032D02D007E001217C
:10323000EEE7D4F8000540F00050C4F80005002087
:10324000F0BD014640F21440405880B27047000083
:103250002DE9F84F05460C4616464FF0000BDA46AE
:1032600000274FF48078B946B5F1A04F1CD02079E3
:10327000D0B94EB96079012806D161782846FFF7A8
:1032800061FE0020BDE8F88F012E0DD1607805F5B4
:10329000A06101EB4010C06820F06002607801EB93
:1032A0004010C26000206071206968B121892069E6
:1032B0000844401EB0FBF1F087B2474505DD4746A4
:1032C00020897843206100E00127E07810B120894F
:1032D000784320612069C0F312003E4901EAC741EA
:1032E0000843A17A4FF0C04202EA41710843617875
:1032F00005F5A06202EB4111086136B1607805F571
:10330000A06101EB4010E26842614FF481604059D6
:1033100000F0010080F0010B607805F5A06101EB81
:103320004010006820F00052607801EB401002600D
:10333000607801EB4010006840EA4B72607801EB66
:1033400040100260607801EB4010D0F8009029F046
:10335000804949F00049607801EB4010C0F80090C6
:10336000AEBBE07898BB206988B3E07930B1012822
:1033700013D0022803D003281ED10DE000BF20691E
:10338000C01CC0F38F0AE86A80B2504503D2A86916
:1033900040F02000A86110E000BF2069C01CC0F30D
:1033A0008F0A4FF48260405980B2504503D2A86919
:1033B00040F08060A86100E000BF00BF00200090E6
:1033C000208A83B262782846E16800F00DF9002077
:1033D00058E700000000F81F2DE9F04717460446A3
:1033E0000025DDF82090C0F8005E806B20F480207E
:1033F000A063A06B20F40020A063A06B40F4001039
:10340000A0634FF0A048032B06D1444504D0D4F864
:10341000000440F0040003E0D4F8000420F00400AD
:10342000C4F8000410212046FFF7D8FD2046FFF71E
:10343000C5FD0020461E06E004EB4011C1F80865FA
:10344000C1F80C55401C8742F6D801212046FFF7F1
:1034500099FDC820FDF77EF9A5616661444505D157
:10346000802060620C48A0620C4805E04FF40070B8
:1034700060620B48A0620B48C4F80001B9F1000F6C
:1034800003D1A06940F01000A061A069064908437B
:10349000A0610020BDE8F08780006000E0004000EF
:1034A000000200010003E000080020A3D0F800247F
:1034B00022F00302C0F80024D0F8002401F0030336
:1034C0001A43C0F80024012902D0022903D006E0E3
:1034D0004BF6803101E041F27071C0F80414002015
:1034E0007047416980690840704710B50346002065
:1034F000D21C920803F5805303E01C6841F8044B8A
:10350000401C9042F9D3084610BD10B5C26822F0A5
:10351000C042C260012901D021B107E0C16841F079
:10352000005102E0C16841F08041C1603220FDF7E6
:1035300011F9002010BDF0B505460027A86820F05D
:103540000100A86010212846FFF748FD2846FFF734
:1035500035FD002411E005F5A06000EB441006687D
:1035600046F0804626F0004626F4004605F5A060A9
:1035700000EB44100660601CC4B20F2CEBDD00248D
:1035800023E005F5A06000EB4410066846F0804695
:1035900046F0004626F4004605F5A06000EB441016
:1035A000066000BF781C0746B0F57A7F00D909E0B5
:1035B00005F5A06000EB4410006800F00040B0F199
:1035C000004FEFD000BF601CC4B20F2CD9DD4FF00C
:1035D000FF3140F21440415108466861A86840F04C
:1035E0000100A8600020F0BD30B50024039D6DB936
:1035F000DB1C9B0800EB023000F5805004E000BFAC
:1036000051F8042B0260641C9C42F9D3002030BDA9
:10361000FEE702E008C8121F08C1002AFAD170476D
:103620007047002001E001C1121F002AFBD1704742
:1036300010B5002821D0114B0022001F196803E0AB
:10364000814203D80A4649680029F9D152B113686A
:10365000841A9C4204D1006818441060104602E0AD
:10366000506000E0186039B102680B1A934203D130
:103670000B681A4402604968416010BD34000020A4
:10368000FDF7D4FDFEF76CFFFEF730FEFEF7FAFD06
:10369000FEF7DAFEFEF7F4FEFEF70EFFFEF72CFF54
:1036A000164D174F4FF0FF3601232A46144915488F
:1036B000FDF72CF8324600211248FCF795FFFDF784
:1036C00039F900F57A7400BFFDF734F9A042FBD94F
:1036D00001232A46791C0B48FDF718F832460021D1
:1036E0000848FCF781FFFDF725F900F57A7400BF63
:1036F000FDF720F9A042FBD9D6E70000140C0240E8
:103700000000002030010020F0B50B30154D20F0F6
:1037100007010024144A0FE003688B420BD38B424D
:1037200005D95E1A43184768C3E9006700E043689B
:10373000136002C004E0021D10680028ECD120468E
:10374000002802D1286808B10020F0BD064A0748C9
:103750001060074A121A22F00702C0E90024012073
:103760002860D7E73800002034000020F40700204C
:10377000F0090020000610160006101600000000D8
:103780000000000001020304060708090000000011
:103790000102030443444300B8370008000000203E
:1037A0003C00000012360008F43700083C000020FE
:1037B000B40D00002236000800FF000001000000E8
:1037C00010000000000000000024F40094370008FE
:1037D000020000006727000809270008E526000806
:1037E0009D28000857290008000000000000000084
:0437F00000000000D5
:040000050800018965
:00000001FF
