:020000040800F2
:10000000880500209D010008A5010008A70100083F
:10001000A9010008AB010008AD01000800000000C4
:10002000000000000000000000000000AF01000818
:10003000B101000800000000B3010008D517000856
:10004000B7010008B7010008B7010008B7010008B0
:10005000B7010008B7010008B7010008B7010008A0
:10006000B7010008B7010008B7010008B701000890
:10007000B7010008B7010008B7010008B701000880
:10008000B7010008B7010008B7010008B701000870
:10009000B7010008B7010008B7010008B701000860
:1000A000B7010008B7010008B7010008B701000850
:1000B000B7010008B7010008B7010008B701000840
:1000C000B7010008B7010008B7010008B701000830
:1000D000B7010008B7010008B7010008B701000820
:1000E000B7010008B7010008B7010008B701000810
:1000F000B7010008B7010008B7010008B701000800
:10010000B7010008B7010008B7010008B7010008EF
:10011000B7010008B7010008B7010008B7010008DF
:10012000B7010008B7010008B7010008B7010008CF
:10013000B7010008B7010008B7010008B7010008BF
:10014000B7010008B7010008B7010008B7010008AF
:10015000B7010008B7010008B7010008B70100089F
:10016000B7010008B7010008B7010008B70100088F
:10017000B7010008B7010008B7010008000000003F
:10018000B7010008B7010008DFF80CD000F050FA02
:1001900000480047CD2E000888050020064880470B
:1001A00006480047FEE7FEE7FEE7FEE7FEE7FEE75C
:1001B000FEE7FEE7FEE7FEE7811800088901000878
:1001C0002DE9F05F0546002092469B46884606468C
:1001D000814640241BE0284641464746224600F01F
:1001E0005EF853465A46C01A914110D3114618463C
:1001F000224600F045F82D1A67EB01084F462246CB
:100200000120002100F03CF817EB00094E41201EB0
:10021000A4F10104DFDC484631462A464346BDE8E6
:10022000F09FD2B201E000F8012B491EFBD27047CB
:100230000022F6E710B513460A4604461946FFF7B2
:10024000F0FF204610BD421C10F8011B0029FBD115
:10025000801A704730B50B46014600202022012449
:1002600009E021FA02F59D4205D303FA02F5491B84
:1002700004FA02F52844151EA2F10102F1DC30BD9A
:10028000202A04DB203A00FA02F100207047914056
:10029000C2F1200320FA03F3194390407047202A4B
:1002A00004DB203A21FA02F00021704721FA02F320
:1002B000D040C2F1200291400843194670472DE911
:1002C000FE4F804681EA0300C00F0C46009021F0EB
:1002D000004123F00045B8EB0200A94105D2404699
:1002E000214690461C460B46024623F00040104330
:1002F00047D0270DC7F30A00C3F30A510290401AF2
:10030000019040286BDAC3F3130040F4801B00987F
:10031000924620B10023D2EB030A63EB0B0B01984A
:100320005946C0F140025046FFF7AAFF06460D4667
:1003300050465946019A00F08DF910EB08006141D2
:10034000002487EA115284EAE7731A4340D0009AE6
:1003500062B3019A012A4FEA075215DC001B61EBD8
:1003600002014FF0004202EA0752CDE90042001CB0
:1003700041F5801132462B4600F08DF903B0BDE8FF
:10038000F08F40462146F9E7001B61EB0201001C9B
:1003900041F5801300185B412018A2F5001747EBC8
:1003A000030140EAD570B6196D4111E06D084FEABE
:1003B000360645EAC0754FEA0752001B61EB0201A1
:1003C000001C41F5801149084FEA300000195141E5
:1003D00032462B4603B0BDE8F04F00F04DB900980F
:1003E000012240000023D0EB020263EBE07300988F
:1003F00021464FEAE074B8EB000061EB0401E9E745
:1004000083F000435BE781F0004158E72DE9FE4FA0
:1004100081EA030404F0004421F0004100944FF00D
:10042000000B23F0004350EA01045ED052EA0304BB
:100430005BD0C3F30A54C1F30A552C44A4F2F3343D
:100440000194A0FB0254C1F3130141F48011C3F3E2
:10045000130343F4801301FB024400FB034E840AA0
:10046000970A44EA815447EA8357A4FB0768029538
:100470008D0A05FB07854FEA932C04FB0C542705D6
:10048000029D4FEA065847EA1637B5EB08056EEBB2
:10049000070C870E920E47EA811742EA8312A7FBE8
:1004A0000201B6EB0B0164EB00042B0D43EA0C33A5
:1004B0005E1844EB1C50DA465146E7FB0201C5F3D7
:1004C00013044FEA0B3343EA14534FEA0432019CFE
:1004D00043EA0603A4F10C040294009CCDE900B4A5
:1004E00000F0D9F803B0BDE8F08F00200146F9E72D
:1004F0002DE9F04D81EA030404F0004B21F00045A2
:1005000014464FF0000A23F0004150EA050220D0C3
:1005100054EA01021DD0C5F30A570246C5F313037E
:10052000C1F31300C1F30A5640F4801543F480135D
:10053000A7EB0608101BD64608F2FD3873EB050042
:1005400002D308F1010801E092185B41B8F1000FF5
:1005500003DA00200146BDE8F08D00204FF4801141
:10056000064684460EE0171B73EB050705D3121BE6
:1005700063EB050306434CEA010C49084FEA3000DF
:1005800092185B4150EA0107EDD152EA030012D004
:1005900082EA040083EA0501084305D0101BAB4141
:1005A00006D20122002306E000224FF0004302E0C1
:1005B0006FF0010253101AEB06004CEB085110EBE0
:1005C0000A0041EB0B01BDE8F04D00F055B8C1F356
:1005D0000A52C1F3130140F2FF3341F480119A42F1
:1005E00002DA00200146704740F233439A42A2F2F9
:1005F000334202DC5242FFF752BEFFF741BE000019
:1006000030B5041E71F1000404DB4FF00044404299
:1006100064EB0101141E73F1000405DB1C464FF06E
:100620000043524263EB0403994208BF904230BD3D
:10063000064C074D06E0E06840F0010394E807002F
:1006400098471034AC42F6D3FFF7A2FD5C300008A7
:100650007C300008202A06DBCB17203A41FA02F052
:1006600043EAE07306E041FA02F3D040C2F120020F
:10067000914008431946704710B5141E73F10004E9
:1006800008DA401C41F1000192185B411A4301D184
:1006900020F0010010BD2DE9F04D92469B4611B1AE
:1006A000B1FA81F202E0B0FA80F220329046FFF710
:1006B000E7FD04460F4640EA0A0041EA0B015346B3
:1006C0005A46084313D0114653EA010019D0C8F125
:1006D00040025046FFF7E3FD05460E465046594698
:1006E0004246FFF7CDFD084305D0012004E0204637
:1006F0003946BDE8F08D0020054346EAE0762C43FC
:1007000037430A986305E40AA0EB08000022FD0ABB
:1007100044EA47540A3002D500200146E9E70105C2
:1007200010196941DDE9084500196941BDE8F04D3E
:10073000A2E70000002229B101291AD002291BD00A
:100740004FF440720E490B6823F440730B600B6842
:1007500013430B600A6822F0F8020A600A68022359
:1007600003EBC00002430A60086840F48030086070
:1007700070474FF48072E5E74FF40072E2E7000043
:10078000103C02401348016889050FD5016821F427
:1007900000710160016841F400610160016821F4A9
:1007A00000610160016841F4007101600168490560
:1007B0000FD5016821F480610160016841F4805126
:1007C0000160016821F480510160016841F4806199
:1007D00001607047003C024008490A6822F44072F8
:1007E0000A600A6842F004020A600A684FF4803323
:1007F00043EA002002430A6070470000103C0240B8
:10080000064A136823F44073136013681360136877
:1008100043F001031360017070470000103C024078
:10082000084910B50C6824F440740C600C6844F45A
:1008300040740C600C6844F001040C60026043607A
:1008400010BD0000103C0240074A136823F44073B7
:100850001360136843F480731360136843F001035B
:100860001360018070470000103C0240074A136883
:1008700023F440731360136843F400731360136828
:1008800043F001031360016070470000103C024018
:1008900017490868C206174805D5C26942F0100218
:1008A000C26110220A600A68920605D5C26942F048
:1008B0000802C26120220A600A68520605D5C26990
:1008C00042F00402C26140220A600A68120605D59D
:1008D000C26942F00202C26180220A600A6892077D
:1008E00005D5C26942F02002C2610220086070474B
:1008F0000C3C02406801002070B5114904460020FC
:10090000C86100F0EDF906460E4D09E0601C07D005
:1009100024B100F0E5F9801BA04201D9032070BD8D
:100920002868C003F2D42868C00701D001202860DD
:10093000286810F0F200F2D0FFF7AAFF012070BD86
:10094000680100200C3C024070B504790023012CA2
:1009500004D0012404710225457106E0022070BD17
:10096000066851F8235035605B1C9342F8D34471FC
:10097000002101710068006870BD10B5040002D04C
:10098000607910B106E0012010BD002020712046E2
:1009900000F006F80220607101206071002010BD97
:1009A00008B500680649884208D10648016841F444
:1009B00080510160006800F48050009008BD000084
:1009C00000300240303802402DE9F047044622480A
:1009D0000F46017E01290AD00121804601764CF2A2
:1009E00050394846FFF788FF020003D02FE002206D
:1009F000BDE8F0874FF0FF3038602068174D0128C0
:100A000001D0A6681CE0207C6168FFF7E5FE48463F
:100A1000FFF772FF0246286820F00400286014E007
:100A2000217C3046FFF786FE4846FFF765FF02004F
:100A3000286820F0FA00286001D03E6005E0761CAE
:100A4000D4E902100844B042EAD8FFF79BFE002127
:100A500088F818101046CBE768010020103C0240CF
:100A60000348016841F00041016000207047000028
:100A7000103C02402DE9F0471B4E05461446307EDF
:100A80001F468946012808D0012030764CF25038A4
:100A90004046FFF731FF18B114E00220BDE8F087AF
:100AA0009DB1012D16D0022D19D022463B46484655
:100AB000FFF7B6FE4046FFF71FFF0C490A6822F019
:100AC00001020A6000213176E8E7E1B24846FFF70B
:100AD00097FEEFE7A1B24846FFF7B6FEEAE72146E8
:100AE0004846FFF7C3FEE5E768010020103C0240DE
:100AF000074900200A68002A09DA054A054B0C3A22
:100B00001360054B13600968002900DA0120704763
:100B1000103C024023016745AB89EFCD2DE9F84F2A
:100B2000DFF87CB100224FF001084FF0030A4FF0CC
:100B30000F090BF1040E00BF0B6808FA02F4234002
:100B4000A3426ED14D68022D01D0122D0ED1D508D1
:100B500000EB850CDCF820505607F70E09FA07F673
:100B6000B5430E69BE402E43CCF8206006685500A0
:100B70000F790AFA05FC07F0030726EA0C06AF40D6
:100B8000374307604E68012E05D0022E03D0112E88
:100B900001D0122E0ED18668CF6826EA0C06AF402F
:100BA000374387604668A6430C79C4F30014944029
:100BB00034434460C6688C6826EA0C06AC40344373
:100BC000C4604C68E40065D5364C256845F4804522
:100BD0002560246822F0030504F480440094324C1C
:100BE0002E19D6F8084895072F0F09FA07F5AC43D8
:100BF0002E4DA84201D1002524E02D4DA84201D15F
:100C000001251FE02B4DA84201D102251AE02A4DF3
:100C1000A84201D1032515E0284DA84202D10425A0
:100C200010E037E0264DA84201D105250AE0254D08
:100C3000A84201D1062505E0234DA84201D1072590
:100C400000E00825BD402543C6F80858DBF8004001
:100C50005D464E689C43F60300D51C432C60DEF8CD
:100C6000004075464E689C43B60300D51C432C607B
:100C70000B4D08352C684E689C43F60200D51C438A
:100C80002C60074D0C352C684E689C43B60200D58D
:100C90001C432C60521C102AFFF44EAFBDE8F88FA5
:100CA000003C014044380240003001400000024056
:100CB0000004024000080240000C02400010024004
:100CC0000014024000180240001C02400069084065
:100CD00000D0012070470AB1816170470904FBE729
:100CE00001488068704700001000002002488168B9
:100CF0000278114481607047100000200B4810B545
:100D0000016841F400710160016841F48061016093
:100D1000016841F480710160032000F08BF800202D
:100D200000F006F800F024F8002010BD003C02405E
:100D300070B50D4D04464FF47A712878B1FBF0F090
:100D40000A490968B1FBF0F000F00FFB48B9102C1C
:100D500007D200222146501E00F04CF800206C60A3
:100D600070BD012070BD0000100000201C0000209C
:100D70001F4808B5016841F480410160006800F433
:100D8000804000901A48001F016841F080510160C6
:100D9000006800F080500090072000F04BF800221F
:100DA00011466FF00B0000F025F8002211466FF09D
:100DB0000A0000F01FF8002211466FF0090000F051
:100DC00019F800221146501F00F014F800221146B5
:100DD000101F00F00FF800221146901E00F00AF8D4
:100DE0000022BDE808401146501E00F003B8000084
:100DF00044380240F0B40E4B1B680C46C3F3022388
:100E0000C3F10705042D00D90425191D072901D2B6
:100E1000002300E0DB1E012606FA05F1491E2140F1
:100E200099409E40761E16403143F0BC00F0C2BC93
:100E30000CED00E0064900F0070208684FF6FF03DA
:100E4000184040EA0220034A10430860704700003F
:100E50000CED00E00000FA052DE9F0470E46050014
:100E600065D0DFF81481D8F80000F7B200F00F0069
:100E7000B04207D288F80070D8F8000000F00F00E8
:100E8000B04254D128683D4C810712D5400703D5A4
:100E9000206840F4E05020602878000703D52068DF
:100EA00040F4604020602068A96820F0F00008430A
:100EB00020602878C0072DD030496868083901289B
:100EC00012D0022813D0032811D0096889070029FD
:100ED0002DDA216821F0030101432160FFF700FFB3
:100EE000814641F2883A0EE009688903EFE7096814
:100EF0008901ECE7FFF7F4FEA0EB0901514502D9A7
:100F00000320BDE8F0872068696800F00C00B0EBB2
:100F1000810FEFD1D8F80010404601F00F01B14227
:100F200007D90770006800F00F00B04201D001201F
:100F3000E7E72878400705D52068E96820F4E05005
:100F4000084320602878000706D52068296920F426
:100F5000604040EAC100206000F03CF82168084A87
:100F6000C1F30311515CC840064908600020FFF737
:100F7000DFFE0020C5E70000003C024008380240C8
:100F8000443000081C000020014800687047000041
:100F90001C0000200448054900680968044AC1F3A0
:100FA0008221515CC84070471C0000200838024074
:100FB000543000080448054900680968044AC1F330
:100FC0004231515CC84070471C0000200838024084
:100FD00054300008154810B5006810F00C02144891
:100FE00013D04110042A0FD0082A0ED10F4C241F11
:100FF0002268236802F03F025B0207D52068C0F335
:101000008810A0FB010106E0084610BD2168C1F36D
:101010008811A1FB00010023FFF7D2F82168C1F37A
:101020000141491C4900B0FBF1F010BD08380240F5
:101030000024F4002DE9F84F050076D02878DFF879
:10104000F8B2BE4CC00749D0DBF800105846C1F3D7
:101050008101012908D00068C0F3810002280AD16B
:10106000201D0068400206D52068800336D56868D8
:101070000028E2D032E06868B0F5803F10D0B0F5CB
:10108000A02F206810D020F480302060206820F449
:10109000802020606868A0B1FFF722FE06460CE0C1
:1010A000206840F48030F4E740F480202060F7E7C7
:1010B000FFF716FE801B642873D820688003F7D5DD
:1010C0000CE0FFF70DFE064605E000BFFFF708FE47
:1010D000801B6428F0D820688003F7D42878DFF8D4
:1010E000608280074FF000093ED5DBF800105846BB
:1010F00011F00C0F09D00068C0F3810002280BD159
:101100008D48001F0068400206D42068800715D56E
:10111000E868012809D111E0E868B8B10120C8F8F1
:101120000000FFF7DDFD064605E002E1FFF7D8FD10
:10113000801B0228C0D820688007F7D5206829695D
:1011400020F0F80040EAC10020600DE0C8F80090EF
:10115000FFF7C6FD064604E0FFF7C2FD801B02282C
:101160001FD820688007F7D42878000722D5724E50
:10117000744869696C3671B101210160FFF7B0FDF7
:10118000074604E0FFF7ACFDC01B022809D8306811
:101190008007F7D50EE0C0F80090FFF7A1FD0746E5
:1011A00005E083E0FFF79CFDC01B02287ED8306875
:1011B0008007F7D42878400768D5DFF87CA100279E
:1011C0000AF1380ADAF80000C0000BD4DAF800108F
:1011D00041F08051CAF80010DAF80000012700F051
:1011E00080500090584E3068C00510D4306840F4EC
:1011F00080703060FFF774FD009005E0FFF770FD30
:101200000099401A022851D83068C005F6D54A4ED8
:10121000A868683601280FD00528306810D020F063
:1012200001003060306820F004003060A868B8B178
:10123000FFF756FD00900FE0306840F00100F4E742
:1012400040F004003060F7E7FFF74AFD0099411ACB
:1012500041F28830814264D830688007F4D50EE0CE
:10126000FFF73EFD009007E0FFF73AFD0099411AB5
:1012700041F28830814254D830688007F4D42FB1CD
:10128000DAF8001021F08051CAF80010A869C0B344
:10129000DBF80010C1F3810102294AD00228484638
:1012A00007D0C8F86000FFF71BFD00E039E00546F5
:1012B0003AE04746C8F86000FFF712FD064604E032
:1012C000FFF70EFD801B02282BD820688001F7D481
:1012D000D5E907010843A96A1C4A490802EB014104
:1012E0006A6A41EA8211084395F82C1040EA0161CC
:1012F0001148001F016001203866FFF7F1FC054628
:1013000005E014E0FFF7ECFC401B022809D8206838
:101310008001F7D50BE000BFFFF7E2FC401B02287D
:1013200002D90320BDE8F88F20688001F4D40020A2
:10133000F8E70120F6E700000838024000380240D4
:1013400000004742800E4742007000400000FFFF4F
:101350004FF0E0210428086903D020F00400086160
:10136000704740F00400FAE7704710B5401EB0F136
:10137000807F01D3012010BD4FF0E02460610F2178
:10138000601700F017FA0020A061072020610020FC
:1013900010BD10B5FFF7E8FF10BD70B5040004D014
:1013A00094F83900002510B106E0012070BD84F8E2
:1013B0003850204600F022F8242084F839002068B4
:1013C000C16821F40051C160204600F083FA206812
:1013D000016921F4904101612068416921F02A01ED
:1013E00041612068C16841F40051C160E56320207B
:1013F00084F8390084F83A00002070BD70B5164EAC
:1014000005681648022101220323072486B0B5424D
:101410000DD1056845F400350560006800F4003022
:1014200005900C208DE81F0069460D4810E00D4E18
:10143000B5420FD1056845F480250560006800F4C9
:10144000802005904FF440608DE81F0069460648F3
:10145000FFF764FB06B070BD004400404038024016
:101460000000024000480040000802402DE9F84317
:10147000044690F83A00994616460D4620284FD16A
:1014800095B18EB194F83800012849D0012084F834
:1014900038000027E763222084F83A00FFF720FC99
:1014A000A6858046E68531E00120BDE8F883E08D21
:1014B000401EE085A0684346B0F5805F4FF0000213
:1014C0004FF020012046CDF8009004D000F058FBEA
:1014D00098B10320E9E700F053FB0028F9D1206917
:1014E00000282068406803D0C1B225F8011B0DE038
:1014F000C0F3080125F8021B08E0206900282068D5
:10150000406801D000F07F0005F8010BE08D002855
:10151000CDD1202084F83A0084F838700020C4E748
:101520000220C2E72DE9F843044690F839001F462F
:1015300016460D46202850D1A5B19EB194F838002A
:1015400001284AD0012084F838004FF00008C4F880
:101550003C80212084F83900FFF7C2FBA684814635
:10156000E68426E00120BDE8F883E08C401EE0849C
:10157000A0684B46B0F5805F4FF000024FF080014D
:101580002046009703D000F0FBFAE8B90DE000F028
:10159000F7FAC8B928882168C0F3080048602069B4
:1015A00008B16D1C05E0AD1C03E0216815F8010BC6
:1015B0004860E08C0028D8D14B46002240212046CC
:1015C000009700F0DDFA08B10320CCE7202084F872
:1015D000390084F838800020C5E70220C3E7000006
:1015E0002DE9F04F6C4887B00024016841F01001EC
:1015F0000160016801F010010591016841F00401EA
:101600000160016801F004010591016841F0800169
:101610000160016801F080010591016841F001015C
:101620000160016801F001010591016841F00201CA
:101630000160016801F002010591016841F00801B3
:1016400001600068002200F008000590082153485E
:10165000FFF741FB012211465148FFF73CFB4FF2D7
:10166000100B002259464F48FFF735FB082501268D
:101670000095CDE90164694648480394FFF74EFAA6
:101680000096CDE90164694645480394FFF746FAA0
:1016900000950225CDE901540527CDE903476946A8
:1016A0003F48FFF73BFADFF800810096CDE901845F
:1016B00069463E48FFF732FA10200090CDE9015408
:1016C0004FF00609CDE9034969463848FFF726FA85
:1016D000E0200090CDE90154CDE903476946334845
:1016E000FFF71CFA4FF0040ACDE900A46946304820
:1016F0000294FFF713FA68020090CDE90154CDE996
:10170000034769462A48FFF709FACDF800B0CDE94A
:101710000164694623480394FFF700FA4FF48450AC
:101720000090CDE90154CDE9034969461C48FFF713
:10173000F5F92802CDE9000469461C480294FFF738
:10174000EDF94FF4E0500090CDE901540A20CDE9C5
:10175000034069461548FFF7E1F92020CDE9000470
:10176000694610480294FFF7D9F94FF410700090C1
:101770001220CDE90106CDE9034A69460C48FFF77E
:10178000CDF90095CDE9018469460448FFF7C6F913
:1017900007B0BDE8F08F0000303802400010024072
:1017A00000080240000C024000001210000002403D
:1017B000000402400907090E002806DA00F00F00B5
:1017C00000F1E02080F8141D704700F1E02080F85F
:1017D0000014704710B5FFF789FABDE81040FFF715
:1017E000D8BD000030B5244893B00024016841F012
:1017F00080510160006800F0805011901F4801681E
:1018000041F4804101600068022500F4804011909D
:10181000012003901020009506950490CDE9074023
:101820004FF4A870099004200A9007200B90684696
:10183000FFF700FC00B1FEE70F20CDE90C054FF4E7
:101840008050CDE90E4002210CA81094FFF704FB54
:1018500000B1FEE7FFF798FB4FF47A71B0FBF1F0AF
:10186000FFF783FD0420FFF773FD00221146501E91
:10187000FFF7C0FA13B030BD40380240007000409E
:101880001048016841F4700101600F48016841F09F
:10189000010101600C4A00210832116002680B4B03
:1018A0001A400260031D0A4A1A60026822F480226C
:1018B000026005480C300160024958068039086012
:1018C0007047000088ED00E000380240FFFFF6FEA0
:1018D000103000242DE9F04104460068016921F42C
:1018E0004052E168114301612168C86849F20C6205
:1018F00090432369A268E5691A4363692B431A433D
:101900000243CA602168486920F44072A06910430C
:101910004861E1696425B1F5004F9748974A21680D
:101920004FF032083FD0914201D081427CD1FFF785
:1019300041FB00EBC00101EB001061688900B0FBC6
:10194000F1F6FFF737FB00EBC00101EB0010616817
:101950008900B0FBF1F0B0FBF5F06FF018014843DF
:1019600006EB800108EB0110B0FBF5F000F0F0068B
:10197000FFF720FB00EBC00101EB0010616889005C
:10198000B0FBF1F0B0FBF5F006EB0016FFF712FB31
:1019900000EBC00101EB001061688900B0FBF1F7BA
:1019A000FFF708FBD2E0914201D081423DD1FFF721
:1019B00001FB00EBC00101EB001061684900B0FBC6
:1019C000F1F0B0FBF5F00601FFF7F4FA00EBC0010F
:1019D00001EB001061684900B0FBF1F7FFF7EAFA8C
:1019E00000EBC00101EB001061684900B0FBF1F0B1
:1019F000B0FBF5F06FF01801484307EB800108EBEE
:101A0000C100B0FBF5F000F0F80006EB4006FFF770
:101A1000D1FA00EBC00101EB001061684900B0FB96
:101A2000F1F7FFF7C7FA3CE055E0FFF7B3FA00EB38
:101A3000C00101EB001061684900B0FBF1F0B0FBA0
:101A4000F5F00601FFF7A6FA00EBC00101EB00106C
:101A500061684900B0FBF1F7FFF79CFA00EBC001A9
:101A600001EB001061684900B0FBF1F0B0FBF5F04C
:101A70006FF01801484307EB800108EBC100B0FB91
:101A8000F5F000F0F80006EB4006FFF783FA00EBF4
:101A9000C00101EB001061684900B0FBF1F7FFF7EE
:101AA00079FA00EBC00101EB001061684900B0FB5E
:101AB000F1F0B0FBF5F06FF01801484307EB80013F
:101AC00008EBC100B0FBF5F000F0070021683044DE
:101AD0008860BDE8F081FFF75DFA00EBC00101EB23
:101AE000001061688900B0FBF1F6FFF753FA00EBD4
:101AF000C00101EB001061688900B0FBF1F0B0FBA0
:101B0000F5F06FF01801484306EB800108EB011077
:101B1000B0FBF5F000F0F006FFF73CFA00EBC00177
:101B200001EB001061688900B0FBF1F0B0FBF5F04B
:101B300006EB0016FFF72EFA00EBC00101EB0010D8
:101B400061688900B0FBF1F7FFF724FA00EBC001F0
:101B500001EB001061688900B0FBF1F0B0FBF5F01B
:101B60006FF01801484307EB800108EB0110B0FB50
:101B7000F5F000F00F00A9E700140140001001404B
:101B80002DE9F041984617460E460446069D1DE095
:101B9000681C1BD02DB1FFF7A3F8A0EB0800A842EA
:101BA00014D92068C16821F4D071C16020684169EE
:101BB00021F001014161202084F8390084F83A00C5
:101BC000002084F838000320BDE8F0812068006818
:101BD00036EA000004D00020B842D9D00020F3E754
:101BE0000120F9E737B514460846064B6A462146F8
:101BF00000F0DCF804466946002000F06EFC204648
:101C00003EBD0000DB24000802E008C8121F08C126
:101C1000002AFAD170477047002001E001C1121F6D
:101C2000002AFBD1704700002DE9FF5F82B0002140
:101C3000DDE90430020DDDF840B0034318D044F66E
:101C40001050A2F2FF3242431514119801281FD000
:101C5000A5EB0B00401C5FEA000A4FF000064E4F58
:101C6000DFF83891B046504615D5CAF1000413E0AC
:101C7000119801244AA3012801D16FEA0B010298AF
:101C8000119AC0E90031C0E9024206B0BDE8F09FF8
:101C9000CBF10000DFE704460021404A491842EB3F
:101CA0000450CDE9001012E0E00707D032463B4671
:101CB00040464946FEF7AAFB8046894632463B46E7
:101CC00010461946FEF7A2FB06460F466410002C8C
:101CD000EAD1DDE90401DDE90023BAF1000F06DAFB
:101CE000FEF794FB42464B46FEF790FB05E0FEF7FD
:101CF000FFFB42464B46FEF7FBFB04460E46002226
:101D0000284BFEF77DFC03D84FF0FF30014607E07B
:101D10000022254B20463146FEF7D1FAFEF757FC4C
:101D2000102409E0002C0ADB0A220023FEF748FAFF
:101D3000039B30321A55641E50EA0102F2D1641C32
:101D4000039AC4F111031444119A012A03D0012209
:101D500008430DD10AE0084304D000204FF0110BD6
:101D6000119072E7A3EB0B056D1E0DE05B4504DDE2
:101D70004FF0000205F1010504E003DA4FF0000224
:101D8000A5F10105002AECD002981199C0E90231B1
:101D9000C0E9004579E70000000014400000F03F72
:101DA000300000000000F0430000E03F2DE9FF4F4D
:101DB00095B09B468946064600250FE2252877D137
:101DC00000242746F84A0121059400E0044316F850
:101DD000013F203B01FA03F01042F7D130782A2866
:101DE00011D06FF02F033078A0F13002092A16D8F5
:101DF000059A44F0020402EB820203EB4202104413
:101E0000761C0590EFE759F8042B0592002A03DAB7
:101E1000504244F40054059044F00204761C30789B
:101E20002E2816D116F8010F44F004042A280DD0EC
:101E30006FF02F023078A0F13003092B09D807EB9F
:101E4000870302EB4303C718761CF3E759F8047BBA
:101E5000761C30786C280FD006DC4C2817D0682808
:101E60000DD06A2814D104E0742810D07A280FD13C
:101E70000DE044F400140AE044F4801401E044F45A
:101E800040147278824202D104F58014761C761CCC
:101E9000307866280BD013DC582877D009DC00286E
:101EA00075D04528F6D04628F4D047281AD19DE1B0
:101EB00018E0632835D0642879D0652812D195E1DF
:101EC000702873D008DC6728F1D069286FD06E289D
:101ED0000DD06F2806D1B5E073282CD0752875D0A9
:101EE000782874D05A46179990476D1C75E1C4F351
:101EF0000250022809D003280DD0D9F80010042878
:101F00000DD00D6009F1040967E1D9F80010EA1756
:101F1000C1E90052F6E7D9F800100D80F2E70D7024
:101F2000F0E719F8041B8DF8001000208DF801006F
:101F3000EA46012003E059F804AB4FF0FF30610797
:101F40004FF0000102D40DE008F101018846B942CA
:101F50000FDA8045F8DB1AF808100029F4D108E000
:101F600008F1010188468142FADB1AF808100029BD
:101F7000F6D105985B46A0EB080721463846179A2C
:101F800000F094FA284400EB080507E04DE029E151
:101F90000DE01AF8010B5A4617999047B8F101085D
:101FA000F7D25B4621463846179A13E142E00A22EF
:101FB0000092C4F302524FF0000A022A08D059F8E6
:101FC00004CB032A4FEAEC710AD00DE029E02AE0A5
:101FD00009F1070121F00702F2E802C1914609E088
:101FE0000FFA8CFC4FEAEC71042A03D14FFA8CFCF7
:101FF0004FEAEC71002907DA0A460021DCF1000CF7
:1020000061EB02012D2202E0220504D52B228DF87E
:102010000420012203E0E20701D02022F7E79046E6
:1020200059E00A2102E010220DE010214FF0000AD1
:1020300000910BE010224FF0000A44F0040408273E
:10204000009203E008224FF0000A0092C4F302520B
:10205000022A05D059F804CB0021032A08D009E050
:1020600009F1070121F00702F2E802C1914605E0FB
:102070001FFA8CFC042A01D10CF0FF0C4FF0000871
:10208000220728D5702806D0009B83F0100353EA5E
:102090000A0305D00EE040228DF80420012208E05A
:1020A0005CEA010206D030228DF804208DF805008C
:1020B00002229046009B83F0080353EA0A030AD1E8
:1020C0005CEA010201D1620705D530228DF80420B7
:1020D0004FF001087F1E582804D034A003900EA8AA
:1020E00002900DE036A0F9E753466046009AFEF7ED
:1020F00067F884460398825C0298401E0290027042
:102100005CEA0100F0D1029806A9081A00F1200A41
:10211000600702D524F4803400E00127574502DD32
:10212000A7EB0A0000E0002000EB0A0100900598F0
:102130004144401A0590E00306D45B462146179AB5
:10214000059800F0B3F90544002706E001A85A46B7
:10215000C05D179990476D1C7F1C4745F6DBE00377
:102160000CD55B462146179A059800F09FF9054467
:1021700004E030205A46179990476D1C0099481E7C
:1021800000900029F5DC08E0029802995A46007890
:10219000491C0291179990476D1CBAF10001AAF1F0
:1021A000010AF1DC65E10000092801003031323319
:1021B0003435363738396162636465660000000083
:1021C000303132333435363738394142434445466D
:1021D0000000000000F058F90544761C3078002813
:1021E0007FF4ECAD19B02846BDE8F08F620700D44B
:1021F000062709F1070222F0070CFCE80223E1465A
:1022000003F000485FEA080C02D00FF2702C0DE0DA
:102210005FEA045C02D50FF2682C07E05FEAC47C39
:1022200002D00FF2602C01E0AFF2700C4FF0FF38DB
:1022300023F00043CDF850C065280CD006DC4528BB
:1022400009D046281DD047283DD13DE0662818D04A
:1022500067287ED138E00021112F01DB112000E03A
:10226000781CCDE9000106A90EA8FFF7DDFCDDE929
:102270000F010E9A03910021009207F1010A0491C7
:102280004DE04FF000400097CDE9011006A90EA8DF
:10229000FFF7CAFCDDE90F0203920E9B11990022A1
:1022A000DDF80CA00093049211B9791C00EB010A2F
:1022B000B7EB0A0004D4C0F1FF3007F1010A049023
:1022C000AAEB0700019044E0012F00DA012700216A
:1022D000112F01DD112000E03846CDE9000106A9EB
:1022E0000EA8FFF7A1FCDDE90F010E9A0391002172
:1022F00004910092BA4621070CD40399514500DAA3
:102300008A46BAF1010F05DD009AAAF10101515C7C
:10231000302908D0B84202DA10F1040F06DA0121A0
:10232000CDE9011015E0AAF10101E9E7002805DC7B
:10233000049901440491AAEB000102E0411C5145BB
:1023400000DD8A460499401A401C01904FF000407D
:102350000290200704D40198504501DBCDF8048099
:1023600000208DF84F0002980DF14F07B0F1004F9B
:1023700025D02B200E9002984FF0020800280CDA8E
:10238000404202902D200E9007E00A210298FDF7AE
:1023900061FF3031029007F8011DB8F10001A8F18A
:1023A0000108F2DC02980028EFD1791E0E9808701F
:1023B000307800F0200040F0450007F8020D12A828
:1023C000C01B00F107081498007800B1012000EB51
:1023D0000A01019801EBE07105984144401A401E42
:1023E0000590E00306D45B462146179A059800F055
:1023F0005DF805441498007818B15A46179990472B
:102400006D1CE00324D55B462146179A059800F021
:102410004DF805441CE00498002807DBDDE90301C2
:10242000884203DD0098405C179901E0179930203D
:102430005A469047049805F10105401C0490019804
:10244000401E019004D12E205A46179990476D1CCA
:10245000BAF10001AAF1010ADDDC05E017F8010B71
:102460005A46179990476D1CB8F10001A8F1010870
:10247000F4DC5B462146179A0598ABE62D00000078
:102480002B000000200000002DE9F041044600254B
:102490001E461746880404D405E039462020B0477C
:1024A0006D1C641EF9D52846BDE8F0812DE9F04188
:1024B000044600251E469046C80301D5302700E09B
:1024C0002027880404D505E041463846B0476D1CF6
:1024D000641EF9D52846BDE8F0810A68531C0B60DC
:1024E00010707047F8B5044600208DF800001EA05B
:1024F00000F074FD2178491C6018091F50F8042C65
:10250000204600F07DFC28B123A000F067FD00F01C
:10251000FFFBF8BD28A000F061FD2078012100F04C
:10252000E7FBE278A1782DA000F058FD0122384F9A
:10253000A5789603E47831463846FEF7CCFB214671
:10254000284600F07DFC8DF8000000223146384618
:10255000FEF7C1FB9DF800102EA000F03FFD012109
:10256000684600F043FCF8BD424C5F444542554785
:102570005F4D53473A626F6F746C6F616465725F51
:1025800068616E646C655F666C6173685F657261DB
:1025900073655F636D640A00424C5F444542554772
:1025A0005F4D53473A636865636B73756D20666171
:1025B000696C2021210A0000424C5F444542554786
:1025C0005F4D53473A636865636B73756D20737530
:1025D00063636573732021210A000000424C5F444D
:1025E000454255475F4D53473A20696E69746961AA
:1025F0006C5F736563746F723A20256420096E6F97
:102600005F6F665F736563746F72733A2025640051
:10261000000C0240424C5F44454255475F4D5347D2
:102620003A20666C6173682065726173652073740B
:10263000617475733A202523780A000038B5044682
:1026400012A000F0CBFC2178491C6018091F50F83B
:10265000042C204600F0D4FB28B117A000F0BEFCEB
:1026600000F056FB38BD1CA000F0B8FC2078022119
:1026700000F03EFB214800680221C0F30B00ADF8DA
:102680000000684600F0B2FB38BD0000424C5F44D9
:10269000454255475F4D53473A626F6F746C6F61A7
:1026A0006465725F68616E646C655F6765745F63C3
:1026B00069645F636D640A00424C5F44454255475C
:1026C0005F4D53473A636865636B73756D20666150
:1026D000696C2021210A0000424C5F444542554765
:1026E0005F4D53473A636865636B73756D2073750F
:1026F00063636573732021210A000000002004E059
:1027000010B5044610A000F069FC2178491C60183F
:10271000091F50F8042C204600F072FB30B115A0C0
:1027200000F05CFCBDE8104000F0F2BA19A000F027
:1027300055FC2078082100F0DBFABDE810400821A4
:102740001D4800F053BB0000424C5F4445425547D2
:102750005F4D53473A626F6F746C6F616465725F6F
:1027600068616E646C655F67657468656C705F63F3
:102770006D640A00424C5F44454255475F4D5347E4
:102780003A636865636B73756D206661696C2021BF
:10279000210A0000424C5F44454255475F4D534774
:1027A0003A636865636B73756D20737563636573F6
:1027B000732021210A0000000000002038B50446E3
:1027C0000020ADF8000011A000F008FC2178491CA1
:1027D0006018091F50F8042C204600F011FB28B1A6
:1027E00015A000F0FBFB00F093FA38BD1AA000F032
:1027F000F5FB2078022100F07BFA00F05FFBADF8DA
:1028000000000121684600F0F1FA38BD424C5F44F7
:10281000454255475F4D53473A626F6F746C6F6125
:102820006465725F68616E646C655F6765745F6341
:1028300069645F636D640A00424C5F4445425547DA
:102840005F4D53473A636865636B73756D206661CE
:10285000696C2021210A0000424C5F4445425547E3
:102860005F4D53473A636865636B73756D2073758D
:1028700063636573732021210A00000038B50446A4
:1028800012A000F0ABFB2178491C6018091F50F81A
:10289000042C204600F0B4FA28B117A000F09EFBEB
:1028A00000F036FA38BD1CA000F098FB207801211A
:1028B00000F01EFA10218DF800100A461FA000F04B
:1028C0008DFB0121684600F091FA38BD424C5F440F
:1028D000454255475F4D53473A626F6F746C6F6165
:1028E0006465725F68616E646C655F676574766568
:1028F000725F636D640A0000424C5F444542554775
:102900005F4D53473A636865636B73756D2066610D
:10291000696C2021210A0000424C5F444542554722
:102920005F4D53473A636865636B73756D207375CC
:1029300063636573732021210A000000424C5F44E9
:10294000454255475F4D53473A424C5F56455220EA
:102950003A202564202523780A0000001CB504468F
:1029600000208DF8000001208DF804001AA000F06E
:1029700035FB2178491C6018091F50F8042C2046AB
:1029800000F03EFA28B121A000F028FB00F0C0F9C9
:102990001CBD26A000F022FB2078012100F0A8F940
:1029A000D4F802402AA0214600F018FB204600F08F
:1029B0002DFB38B12DA000F011FB012101A800F082
:1029C00015FA1CBD0121684600F010FA30A0641C05
:1029D00000F004FBA0471CBD424C5F4445425547F4
:1029E0005F4D53473A626F6F746C6F616465725FDD
:1029F00068616E646C655F676F746F5F6164647259
:102A00006573735F636D640A00000000424C5F44AD
:102A1000454255475F4D53473A636865636B73752D
:102A20006D206661696C2021210A0000424C5F44E0
:102A3000454255475F4D53473A636865636B73750D
:102A40006D20737563636573732021210A00000094
:102A5000424C5F44454255475F4D53473A474F20EC
:102A6000414444523A202523780A0000424C5F44F6
:102A7000454255475F4D53473A474F206164647262
:102A800020696E76616C69642021200A00000000D4
:102A9000424C5F44454255475F4D53473A6A756D16
:102AA00070696E6720746F20616464726573730A65
:102AB000000000002DE9F843044600208DF80000D6
:102AC00094F80680D4F8025022A000F087FA21780A
:102AD000491C6018091F50F8042C204600F090F99A
:102AE00030B128A000F07AFA00F012F9BDE8F883BE
:102AF0002CA000F073FA2078012100F0F9F82946A3
:102B000031A000F06BFA284600F080FA50B138A0EE
:102B100000F064FA01208DF800000121684600F001
:102B200065F9E3E73DA000F059FA0122454F56034D
:102B300031463846FEF7CFF842462946E01D00F000
:102B4000A3F98DF80000002231463846FEF7C3F89D
:102B5000E3E70000424C5F44454255475F4D534711
:102B60003A626F6F746C6F616465725F68616E6406
:102B70006C655F6D656D5F77726974655F636D64C9
:102B80000A000000424C5F44454255475F4D5347A1
:102B90003A636865636B73756D206661696C2021AB
:102BA000210A0000424C5F44454255475F4D534760
:102BB0003A636865636B73756D20737563636573E2
:102BC000732021210A000000424C5F4445425547D2
:102BD0005F4D53473A206D656D20777269746520AB
:102BE00061646472657373203A202523780A0000BB
:102BF000424C5F44454255475F4D53473A20696E0A
:102C000076616C6964206D656D20777269746520EA
:102C1000616464726573730A00000000424C5F4493
:102C2000454255475F4D53473A2076616C696420B1
:102C30006D656D2077726974652061646472657377
:102C4000730A0000000C024070B50AA000F0C6F93B
:102C5000134D2C6813A0214600F0C0F984F30888B6
:102C60006C6818A0214600F0B9F9A446BDE8704090
:102C700060470000424C5F44454255475F4D534713
:102C80003A626F6F746C6F616465725F6A756D70C4
:102C90005F746F5F757365725F6170700A0000002A
:102CA00000800008424C5F44454255475F4D534702
:102CB0003A4D53502076616C7565203A2025237873
:102CC0000A000000424C5F44454255475F4D534760
:102CD0003A206170702072657365742068616E645B
:102CE0006C65722061646472203A202523780A00A2
:102CF00008B5A5208DF800008DF801104FF0FF33C6
:102D0000022269460148FEF70DFC08BD20000020A4
:102D100008B57F208DF800004FF0FF33012269468F
:102D20000148FEF7FFFB08BD20000020204C4FF0BB
:102D3000FF35C8211E48FDF77BFA1D492B460122AD
:102D4000A1F18000FEF792FB194822782B46611C06
:102D50008038FEF78BFB607851380C2824D2DFE8EE
:102D600000F0070B0F13171B1F0606060606E0E709
:102D70000F48FFF783FDDCE70D48FFF7C1FCD8E7FC
:102D80000B48FFF75BFCD4E70948FFF717FDD0E7D6
:102D90000748FFF7E3FDCCE70548FFF7A3FBC8E7CB
:102DA0000348FFF787FEC4E702A000F017F9C0E769
:102DB000A0000020424C5F44454255475F4D5347B9
:102DC0003A496E76616C696420636F6D6D616E6403
:102DD00020636F646520726563656976656420664B
:102DE000726F6D20686F7374200A00008AB201460A
:102DF0004FF0FF330148FEF795BB00002000002094
:102E0000F8B50746FF2016460D46002407E0385D5A
:102E10000090012269460948FDF796FD641CAC420A
:102E2000F5D3064909688A6842F001028A60B04217
:102E300001D10020F8BD0120F8BD000008000020ED
:102E400038B50C291ED80122FF2804D0072819D82C
:102E50000023236000E022606260C0F10C02D2B265
:102E6000A0608A4200D21146E160FDF741FE0220D7
:102E7000206169462046FDF7A7FD0446FDF7F0FDF9
:102E8000204638BD042038BD2DE9F04116460F46D6
:102E900080460025FDF72CFE002408E0002318F8EA
:102EA000042039191846FDF7E5FD0546641CB442B7
:102EB000F4D3FDF7D5FD2846BDE8F081024800684F
:102EC000C0F307207047000000C0FF1F70B5FDF77A
:102ED00015FFFEF787FCFEF783FB1E481C494FF4E5
:102EE000E13500240160C0E901540C26C460C0E94A
:102EF00004468461C461FEF750FA00B1FEE715484C
:102F0000154940300160C0E90154C460C0E904467D
:102F10008461C461FEF741FA00B1FEE710490F4831
:102F200008600846FDF729FD00B1FEE701210D48C4
:102F3000FDF7CCFE20B10CA000F050F8FFF7F6FE34
:102F400017A000F04BF8FFF77FFE002070BD0000D7
:102F500000440040200000200048004000300240B3
:102F60000800002000000240424C5F4445425547A3
:102F70005F4D53473A427574746F6E2069732070C9
:102F8000726573736564202E2E20676F696E6720EB
:102F9000746F20424C206D6F64650A0D00000000C4
:102FA000424C5F44454255475F4D53473A42757422
:102FB000746F6E206973206E6F7420707265737306
:102FC0006564202E2E20657865637574696E6720B0
:102FD00075736572206170700A0000000FB400B54F
:102FE00095B017AA68461699FEF7FCFD6846FDF7EE
:102FF0002AF982B24FF0FF3369460348FEF792FA8E
:1030000015B05DF814FB000060000020A0F1005135
:10301000B1F5E03F0ED909490144B1F5804F09D916
:10302000A0F10061B1F5801F04D305490844B0F553
:10303000805F01D800207047012070470040FEDF0C
:1030400000C0FDBF000000000000000001020304FA
:103050000607080900000000010203047C30000894
:103060000000002020000000081C00089C30000820
:103070002000002068050000181C0008515253541D
:103080005556575A000000000000000001000000E3
:0C30900010000000000000000024F4000C
:040000050800018965
:00000001FF
