:020000040800F2
:10000000D80400209D010008531600085113000871
:1000100051160008610400083117000800000000B4
:10002000000000000000000000000000571600085B
:1000300015050008000000005516000859160008B4
:10004000B7010008B7010008B7010008B7010008B0
:10005000B7010008B701000819050008B70100083A
:10006000B7010008B7010008B7010008B701000890
:10007000B7010008B7010008B7010008B701000880
:10008000B7010008B7010008B7010008B701000870
:10009000B7010008B7010008B7010008B701000860
:1000A000B7010008B7010008B7010008B701000850
:1000B000B7010008B7010008B7010008B701000840
:1000C000B7010008B7010008B7010008B701000830
:1000D000B7010008B7010008B7010008B701000820
:1000E000B7010008B7010008B7010008B701000810
:1000F000B7010008B7010008B7010008B701000800
:10010000B7010008B7010008B7010008B7010008EF
:10011000B7010008B7010008B7010008B7010008DF
:10012000B7010008B7010008B7010008B7010008CF
:1001300065040008B7010008B7010008B70100080E
:10014000B7010008B7010008B7010008B7010008AF
:10015000B7010008B7010008B7010008B70100089F
:10016000B7010008B7010008B7010008B70100088F
:10017000B7010008B7010008B7010008000000003F
:10018000B7010008B7010008DFF80CD000F07AF8DA
:100190000048004771170008D8040020064880472F
:1001A00006480047FEE7FEE7FEE7FEE7FEE7FEE75C
:1001B000FEE7FEE7FEE7FEE7DD160008890100081E
:1001C0002DE9F05F0546002092469B46884606468C
:1001D000814640241BE0284641464746224600F01F
:1001E00041F853465A46C01A914110D31146184659
:1001F000224600F028F82D1A67EB01084F462246E8
:100200000120002100F01FF817EB00094E41201ECD
:10021000A4F10104DFDC484631462A464346BDE8E6
:10022000F09FD2B201E000F8012B491EFBD27047CB
:100230000022F6E710B513460A4604461946FFF7B2
:10024000F0FF204610BD202A04DB203A00FA02F11C
:10025000002070479140C2F1200320FA03F31943B4
:1002600090407047202A04DB203A21FA02F0002156
:10027000704721FA02F3D040C2F1200291400843B6
:1002800019467047064C074D06E0E06840F0010350
:1002900094E8070098471034AC42F6D3FFF778FF94
:1002A000C4170008E417000810B50146806B026C03
:1002B00012F0500F05D0026CD20626D500F0E6F9F8
:1002C00010BD016C41F40071016401688A6812F08C
:1002D000405F17D1027EAAB9CA6A12F4700F02D029
:1002E0008A6852050ED44A6822F020024A60016CE6
:1002F00021F480710164016CC90403D4016C41F0E4
:100300000101016400F0C0F910BD806BC26CBDE852
:1003100010400846104710B5806B40210164416CC5
:1003200041F00401416400F0B1F910BD10B5806BDB
:1003300000F0ABF910BD0000464910B54A6822F440
:1003400040324A604A6843681A434A6001684A6812
:1003500022F480724A6001684A68036942EA032213
:100360004A6001684A6822F040724A6001684A683F
:1003700083681A434A6001688A6822F400628A60CE
:1003800001688A68C3681A438A60816A6FF0706284
:10039000D14201688A6822F070628A6001688A68C6
:1003A0000CD0836A1A438A6001688A6822F040523E
:1003B0008A6001688A68C36A1A4301E022F04052E9
:1003C0008A6001688A6822F002028A6001688A688D
:1003D000037E42EA43028A6090F8201000290168F7
:1003E0004A680FD042F400624A6001684A6822F409
:1003F00060424A6001684A68174C436A04EB433321
:100400001A4301E022F400624A600168CA6A22F4D9
:100410007002CA620168CA6A838B104C04EB0353F2
:100420001A43CA6201688A6822F400728A6001680D
:100430008A6890F8303042EA43228A6001688A680C
:1004400022F480628A6001688A68406942EA8020FA
:10045000886010BD0023014000E0FFFF0000F0FFB6
:10046000FEE70000014800F005BA00005800002037
:1004700001681823CAB2103AB2FBF3F2054B6FF3CE
:100480000901032A9B5CC36500D9091D81650846E3
:1004900070470000AC17000810B5014600208B69BA
:1004A0008A6A4FF0C07453B1B3F5005F15D072B1D2
:1004B000012A0CD0022A0AD0032A09D104E01AB179
:1004C000012A06D0022A03D1C96AC90100D5012038
:1004D00010BDC96AA142FAD010BD002AF7D0012A86
:1004E000F2D0022AF3D0032AF3D010BD30B504684D
:1004F000256825F480252560046863608368402BA7
:10050000036803D099600068C26030BD9A600068DB
:10051000C16030BD7047000010B510220449054885
:1005200000F010F9BDE81040012000F01BBB0000F6
:10053000B8000020100000207047000078B50024AB
:10054000009490F83C20012A19D0012280F83C2028
:100550000A6807230568092A13D9EE680A3A02EBEC
:10056000420293409E43EE600B788A680A3B03EB9D
:1005700043039A400368DD682A43DA6010E00220F2
:1005800078BD2E6902EB420293409E432E610B78A8
:100590008A6803EB43039A4003681D692A431A6182
:1005A0004A681F23072A13D205686E6B521E02EB9E
:1005B000820293409E436E630B790A885B1E92B25F
:1005C00003EB83039A4003685D6B2A435A6327E079
:1005D00005680D2A12D22E6BD21F02EB82029340C5
:1005E0009E432E630B790A88DB1F92B203EB8303D1
:1005F0009A4003681D6B2A431A6311E0EE6A0D3AB4
:1006000002EB820293409E43EE620B790A880D3B17
:1006100092B203EB83039A400368DD6A2A43DA62ED
:10062000164B0568144A9D4206D10D68122D03D160
:10063000556845F48005556005689D4218D10B68E2
:10064000102B01D0112B13D1536843F400035360D6
:10065000096810290CD10A490A4A0968B1FBF2F16C
:1006600001EB8101490000E0491E00910029FBD106
:1006700080F83C40002078BD00230140002001406C
:100680000C00002040420F0070477047704770B563
:1006900004004FF0000503D0206C002610B107E0E5
:1006A000012070BD204600F01DF8666484F83C60AF
:1006B000206CC00610D4206C20F4885040F002005A
:1006C00020642046FFF738FE6664206C20F00200AC
:1006D00040F00100206400E0012584F83C602846D9
:1006E00070BD000038B5054600681249884220D127
:1006F00011480021026842F4807202600068104CC8
:1007000000F4807000900D48C4E900010015A1605C
:10071000C4E90310400060618000C4E90601216261
:100720002046616200F076F908B1FFF705FFAC637F
:10073000A56338BD00200140443802407064024087
:1007400058000020F8B50E4600210446009190F8AC
:100750003C00012807D0012084F83C002068836811
:10076000DB0702D011E00220F8BD836843F00103EB
:1007700083603748374B0068B0FBF3F000EB400074
:1007800000E0401E00900028FBD120688368DB0752
:100790005CD0236C40F20165AB4343F48073236467
:1007A0004068400505D5206C20F4005040F480508E
:1007B0002064206CC00404D5606C20F006006064E6
:1007C00000E0616484F83C10A16B2448224DC863AA
:1007D000A16B23480864A16B2248C86421686FF0AC
:1007E000220008602068416841F080614160206813
:1007F000816841F4807181602168134632464C3132
:10080000A06B00F071F968681749C006206806D02F
:1008100088421BD1816811F0405F13D016E08842F6
:10082000F8D0124A904203D1D1F80423D206F1D075
:100830000F4A90420AD1D1F8041301F01F01102988
:10084000E8D303E0816841F0804181600020F8BD79
:100850000C00002040420F0000230140A9020008C4
:100860002D0300081703000800200140002101406B
:10087000002201402DE9F84304464FF00009CDF86D
:10088000009063484FF41651A56D0068B0FBF1F776
:100890002E6894F85C10082000FA01F131420FD064
:1008A00021680A6852070BD50A6822F004020A6020
:1008B00094F85C108840A860606D40F001006065AD
:1008C00094F85C104FF0010808FA01F0304208D0AB
:1008D00021684969090604D5A860606D40F00200EE
:1008E000606594F85C1004208840304208D021688C
:1008F0000968890704D5A860606D40F00400606550
:1009000094F85C1010208840304218D021680968A3
:10091000090714D5A86020680168490304D5006858
:10092000000308D5A16C07E00168C90503D401687C
:1009300021F008010160216C09B12046884794F834
:100940005C1020208840304231D021680968C906F7
:100950002DD5A86094F8350005282068016806D0D8
:10096000490347D5006800031DD4616C1CE021F0E9
:10097000160101602068416921F080014161206C0D
:1009800008B9A06C20B12068016821F0080101605D
:1009900094F85C103F208840A86084F8349084F874
:1009A0003580216D1FE0E16B09B120468847606DFD
:1009B00000282BD0606DC00714D0052084F83500C6
:1009C0002068016821F0010101600098401C00903E
:1009D000B84203D820680068C007F6D184F8349084
:1009E00084F83580E16C002910D001B02046BDE8C4
:1009F000F04308470168C905D5D4016821F010010A
:100A0000016084F8349084F83580CCE7BDE8F88341
:100A10000C0000202DE9F041044600F08DF9064657
:100A20005CB1002584F83450022084F83500206839
:100A3000016821F0010101600DE00120BDE8F081B5
:100A400000F07AF9801B052805D920206065032075
:100A500084F83500F2E720680068C007F0D122680A
:100A6000116820480140D4E901031843D4E9033652
:100A70003343184363691843A3691843E369184370
:100A8000236A18430843616A042903D1D4E90B138C
:100A900019430843106020684069666A20F0070126
:100AA00030460E43012704280CD1A06A0643E06AB1
:100AB00040B12046FFF7F0FC20B14020606584F88B
:100AC0003570BAE7206846612046FFF7D1FC94F8FC
:100AD0005C203F2191408160656584F8357000207D
:100AE000ACE700003F8010F02DE9F0410446866D30
:100AF00090F83400002501280DD0012084F834003E
:100B000094F835700020012F07D084F834000225B6
:100B10002846BDE8F0810220FBE7022784F8357003
:100B200060652046FFF7E2FC94F85C103F208840A7
:100B3000B0602068016841F01601016020684169D9
:100B400041F080014161206C20B12068016841F0D2
:100B5000080101602068016841F001010160D7E7E8
:100B600070470000044910B50A68024202D00860CC
:100B7000FFF7F6FF10BD0000143C01402DE9F84FCF
:100B8000DFF87CB100224FF001084FF0030A4FF06C
:100B90000F090BF1040E00BF0B6808FA02F42340A2
:100BA000A3426ED14D68022D01D0122D0ED1D50871
:100BB00000EB850CDCF820505607F70E09FA07F613
:100BC000B5430E69BE402E43CCF820600668550040
:100BD0000F790AFA05FC07F0030726EA0C06AF4076
:100BE000374307604E68012E05D0022E03D0112E28
:100BF00001D0122E0ED18668CF6826EA0C06AF40CF
:100C0000374387604668A6430C79C4F300149440C8
:100C100034434460C6688C6826EA0C06AC40344312
:100C2000C4604C68E40065D5364C256845F48045C1
:100C30002560246822F0030504F480440094324CBB
:100C40002E19D6F8084895072F0F09FA07F5AC4377
:100C50002E4DA84201D1002524E02D4DA84201D1FE
:100C600001251FE02B4DA84201D102251AE02A4D93
:100C7000A84201D1032515E0284DA84202D1042540
:100C800010E037E0264DA84201D105250AE0254DA8
:100C9000A84201D1062505E0234DA84201D1072530
:100CA00000E00825BD402543C6F80858DBF80040A1
:100CB0005D464E689C43F60300D51C432C60DEF86D
:100CC000004075464E689C43B60300D51C432C601B
:100CD0000B4D08352C684E689C43F60200D51C432A
:100CE0002C60074D0C352C684E689C43B60200D52D
:100CF0001C432C60521C102AFFF44EAFBDE8F88F45
:100D0000003C0140443802400030014000000240F5
:100D10000004024000080240000C024000100240A3
:100D20000014024000180240001C02400AB1816118
:100D300070470904FBE70000014880687047000025
:100D400000000020024881680278114481607047E9
:100D5000000000200B4810B5016841F400710160EB
:100D6000016841F480610160016841F480710160B3
:100D7000032000F071F8002000F006F800F024F8DD
:100D8000002010BD003C024070B50D4D04464FF4EC
:100D90007A712878B1FBF0F00A490968B1FBF0F0EC
:100DA00000F0C2FA48B9102C07D200222146501E8A
:100DB00000F032F800206C6070BD012070BD0000B2
:100DC000000000200C0000200B4882B0016841F4B4
:100DD00080410160006800F4804000900648001FD8
:100DE000016841F080510160006800F0805000907F
:100DF000072002B000F030B844380240002809DB78
:100E000000F01F02012191404009800000F1E02024
:100E1000C0F8001170470000F0B40E4B1B680C4680
:100E2000C3F30223C3F10705042D00D90425191DBE
:100E3000072901D2002300E0DB1E012606FA05F196
:100E4000491E214099409E40761E16403143F0BC19
:100E500000F06FBC0CED00E0064900F007020868E6
:100E60004FF6FF03184040EA0220034A104308608F
:100E7000704700000CED00E00000FA052DE9F04796
:100E80000E46050065D0DFF81481D8F80000F7B2EF
:100E900000F00F00B04207D288F80070D8F80000C8
:100EA00000F00F00B04254D128683D4C810712D5A4
:100EB000400703D5206840F4E05020602878000700
:100EC00003D5206840F4604020602068A96820F0C5
:100ED000F000084320602878C0072DD030496868AA
:100EE0000839012812D0022813D0032811D009682C
:100EF000890700292DDA216821F0030101432160CF
:100F0000FFF71AFF814641F2883A0EE0096889032B
:100F1000EFE709688901ECE7FFF70EFFA0EB090195
:100F2000514502D90320BDE8F0872068696800F0C8
:100F30000C00B0EB810FEFD1D8F80010404601F063
:100F40000F01B14207D90770006800F00F00B042EE
:100F500001D00120E7E72878400705D52068E96837
:100F600020F4E050084320602878000706D5206868
:100F7000296920F4604040EAC100206000F016F8C2
:100F80002168084AC1F30311515CC8400649086052
:100F90000020FFF7F9FE0020C5E70000003C0240FA
:100FA00008380240B41700080C000020154810B59E
:100FB000006810F00C02144813D04110042A0FD01E
:100FC000082A0ED10F4C241F2268236802F03F022A
:100FD0005B0207D52068C0F38810A0FB010106E082
:100FE000084610BD2168C1F38811A1FB0001002350
:100FF000FFF7E6F82168C1F30141491C4900B0FB45
:10100000F1F010BD083802400024F4002DE9F84F3B
:10101000050076D02878DFF8F8B2BE4CC00749D07A
:10102000DBF800105846C1F38101012908D000689F
:10103000C0F3810002280AD1201D0068400206D5B5
:101040002068800336D568680028E2D032E06868FE
:10105000B0F5803F10D0B0F5A02F206810D020F45C
:1010600080302060206820F4802020606868A0B173
:10107000FFF762FE06460CE0206840F48030F4E79B
:1010800040F480202060F7E7FFF756FE801B6428BD
:1010900073D820688003F7D50CE0FFF74DFE0646B5
:1010A00005E000BFFFF748FE801B6428F0D82068E9
:1010B0008003F7D42878DFF8608280074FF00009BA
:1010C0003ED5DBF80010584611F00C0F09D000682F
:1010D000C0F3810002280BD18D48001F0068400238
:1010E00006D42068800715D5E868012809D111E0E9
:1010F000E868B8B10120C8F80000FFF71DFE0646F9
:1011000005E002E1FFF718FE801B0228C0D8206826
:101110008007F7D52068296920F0F80040EAC1006F
:1011200020600DE0C8F80090FFF706FE064604E0D8
:10113000FFF702FE801B02281FD820688007F7D423
:101140002878000722D5724E744869696C3671B1EF
:1011500001210160FFF7F0FD074604E0FFF7ECFD19
:10116000C01B022809D830688007F7D50EE0C0F808
:101170000090FFF7E1FD074605E083E0FFF7DCFDA7
:10118000C01B02287ED830688007F7D42878400733
:1011900068D5DFF87CA100270AF1380ADAF80000E8
:1011A000C0000BD4DAF8001041F08051CAF80010EA
:1011B000DAF80000012700F080500090584E3068A7
:1011C000C00510D4306840F480703060FFF7B4FD83
:1011D000009005E0FFF7B0FD0099401A022851D8B1
:1011E0003068C005F6D54A4EA868683601280FD089
:1011F0000528306810D020F001003060306820F001
:1012000004003060A868B8B1FFF796FD00900FE0C9
:10121000306840F00100F4E740F004003060F7E788
:10122000FFF78AFD0099411A41F28830814264D863
:1012300030688007F4D50EE0FFF77EFD009007E0F0
:10124000FFF77AFD0099411A41F28830814254D863
:1012500030688007F4D42FB1DAF8001021F0805103
:10126000CAF80010A869C0B3DBF80010C1F381010F
:1012700002294AD00228484607D0C8F86000FFF784
:101280005BFD00E039E005463AE04746C8F86000FB
:10129000FFF752FD064604E0FFF74EFD801B0228D3
:1012A0002BD820688001F7D4D5E907010843A96A43
:1012B0001C4A490802EB01416A6A41EA821108436B
:1012C00095F82C1040EA01611148001F01600120CF
:1012D0003866FFF731FD054605E014E0FFF72CFD09
:1012E000401B022809D820688001F7D50BE000BF19
:1012F000FFF722FD401B022802D90320BDE8F88F2A
:1013000020688001F4D40020F8E70120F6E700000F
:10131000083802400038024000004742800E474231
:10132000007000400000FFFF10B5401EB0F1807F4C
:1013300001D3012010BD4FF0E02460610F21601740
:1013400000F0F7F90020A06107202061002010BD07
:10135000FEE700007FB500243E480094019402940B
:101360003B49039401604FF48031C0E90114012529
:101370000461057680F820403749C0E90A14102638
:10138000C661C46080F830504561FFF780F900966F
:10139000CDE9015469462F48FFF7D0F802200190AB
:1013A00069462C48FFF7CAF803200190694629488E
:1013B000FFF7C4F80420019069462648FFF7BEF8FD
:1013C0000520019069462348FFF7B8F806200190F0
:1013D00069462048FFF7B2F80720019069461D488A
:1013E000FFF7ACF80820019069461A48FFF7A6F805
:1013F0000920019069461748FFF7A0F80A200190DC
:1014000069461448FFF79AF80B2001906946114885
:10141000FFF794F80C20019069460E48FFF78EF80C
:101420000D20019069460B48FFF788F80E200190C7
:1014300069460848FFF782F80F2001906946054881
:10144000FFF77CF8694603480196FFF777F87FBD00
:1014500000200140100000200100000F2DE9F04F96
:1014600087B014216846FEF7E3FE71480024016846
:1014700041F010010160016801F01001059101685F
:1014800041F004010160016801F004010591016867
:1014900041F080010160016801F08001059101685F
:1014A00041F001010160016801F00101059101684D
:1014B00041F002010160016801F00201059101683B
:1014C00041F0080101600068002200F0080005906A
:1014D00008215848FFF72AFC012211465648FFF719
:1014E00025FC4FF2100A002251465448FFF71EFC1B
:1014F000082501260095CDE9016469464D4803940D
:10150000FFF73CFB0096CDE9016469464A48039425
:10151000FFF734FB00950225CDE901540527CDE9FD
:10152000034769464448FFF729FB45480096CDE943
:101530000104DFF810B169465846FFF71FFB102081
:101540000090CDE901544FF00608CDE90348694603
:101550005846FFF713FBE0200090CDE90154CDE998
:10156000034769465846FFF709FB4FF00409CDE9E8
:101570000094694634480294FFF700FB680200902B
:10158000CDE90154CDE9034769462F48FFF7F6FA44
:10159000CDF800A0CDE90164694628480394FFF71F
:1015A000EDFA4FF4A4500090CDE90154CDE9034881
:1015B00069462148FFF7E2FA2802CDE900046946AE
:1015C00058460294FFF7DAFA4FF4E0500090CDE964
:1015D00001540A20CDE9034069465846FFF7CEFA88
:1015E0002020CDE90004694614480294FFF7C6FAAA
:1015F0004FF4107000901220CDE90106CDE90349A7
:1016000069461148FFF7BAFA10480095CDE9010480
:1016100069460848FFF7B2FA002211460620FFF794
:10162000FBFB0620FFF7EAFB07B0BDE8F08F0000E8
:10163000303802400010024000080240000C024016
:1016400000002110000002400004024000001210BF
:10165000FEE7704770477047FFF774BB30B593B033
:1016600030216846FEF7E4FD14210CA8FEF7E0FDEA
:1016700018480025016841F080510160006800F0C1
:10168000805011901448016841F480410160006865
:10169000022400F480401190012000900004019089
:1016A0008001CDE90640042008905420CDE90904CA
:1016B00007200B906846FFF7A9FC0CA90F2081E8D2
:1016C0003100E0020F90109002210CA8FFF7D6FB2A
:1016D00013B030BD4038024000700040104801682F
:1016E00041F4700101600F48016841F0010101609F
:1016F0000C4A00210832116002680B4B1A4002604C
:10170000031D0A4A1A60026822F48022026005481A
:101710000C300160024958068039086070470000AB
:1017200088ED00E000380240FFFFF6FE1030002494
:10173000FEE70907090E002804DB00F1E02080F82D
:101740000014704700F00F0000F1E02080F8141D35
:10175000704702E008C8121F08C1002AFAD170477A
:101760007047002001E001C1121F002AFBD1704721
:1017700008B5FFF7EFFAFFF771FFFFF76FFE0A48B2
:10178000016841F4800101600068002200F48000DB
:10179000009011463C20FFF73FFB3C20FFF72EFB5B
:1017A000FFF7D8FDFEE700003038024000061016B3
:1017B00000061016000000000000000001020304F3
:1017C00006070809E41700080000002010000000C8
:1017D00052170008F417000810000020C804000089
:1017E0006217000801000000100000000000000067
:0417F0000024F400DD
:040000050800018965
:00000001FF
