:020000040800F2
:10000000780400209D010008A5010008A701000850
:10001000A9010008AB010008AD01000800000000C4
:10002000000000000000000000000000AF01000818
:10003000B101000800000000B30100081D11000814
:10004000B7010008B7010008B7010008B7010008B0
:10005000B7010008B7010008B7010008B7010008A0
:10006000B7010008B7010008B7010008B701000890
:10007000B7010008B7010008B7010008B701000880
:10008000B7010008B7010008B7010008B701000870
:10009000B7010008B7010008B7010008B701000860
:1000A000B7010008B7010008B7010008B701000850
:1000B000B7010008B7010008B7010008B701000840
:1000C000B7010008B7010008B7010008B701000830
:1000D000B7010008B7010008B7010008B701000820
:1000E000B7010008B7010008B7010008B701000810
:1000F000B7010008B7010008B7010008B701000800
:10010000B7010008B7010008B7010008B7010008EF
:10011000B7010008B7010008B7010008B7010008DF
:1001200085020008B7010008B7010008B701000800
:10013000B7010008B7010008B7010008B7010008BF
:10014000B7010008B7010008B7010008B7010008AF
:10015000B7010008B7010008B7010008B70100089F
:10016000B7010008B7010008B7010008B70100088F
:10017000B7010008B7010008B7010008000000003F
:10018000B7010008B7010008DFF80CD000F068F8EC
:1001900000480047411200087804002006488047C4
:1001A00006480047FEE7FEE7FEE7FEE7FEE7FEE75C
:1001B000FEE7FEE7FEE7FEE7CD1100088901000833
:1001C0002DE9F05F0546002092469B46884606468C
:1001D000814640241BE0284641464746224600F01F
:1001E0002FF853465A46C01A914110D3114618466B
:1001F000224600F016F82D1A67EB01084F462246FA
:100200000120002100F00DF817EB00094E41201EDF
:10021000A4F10104DFDC484631462A464346BDE8E6
:10022000F09F202A04DB203A00FA02F100207047F8
:100230009140C2F1200320FA03F319439040704724
:10024000202A04DB203A21FA02F00021704721FA2B
:1002500002F3D040C2F12002914008431946704792
:10026000064C074D06E0E06840F0010394E8070003
:1002700098471034AC42F6D3FFF78AFFC812000843
:10028000E8120008014800F055B8000018000020EE
:1002900001681823CAB2103AB2FBF3F2054B6FF3B0
:1002A0000901032A9B5CC36500D9091D81650846C5
:1002B00070470000AE12000810B5014600208B699F
:1002C0008A6A4FF0C07453B1B3F5005F15D072B1B4
:1002D000012A0CD0022A0AD0032A09D104E01AB15B
:1002E000012A06D0022A03D1C96AC90100D501201A
:1002F00010BDC96AA142FAD010BD002AF7D0012A68
:10030000F2D0022AF3D0032AF3D010BD30B504682E
:10031000256825F480252560046863608368402B88
:10032000036803D099600068C26030BD9A600068BD
:10033000C16030BD2DE9F84304464FF00009CDF807
:10034000009063484FF41651A56D0068B0FBF1F7BB
:100350002E6894F85C10082000FA01F131420FD0A9
:1003600021680A6852070BD50A6822F004020A6065
:1003700094F85C108840A860606D40F001006065F2
:1003800094F85C104FF0010808FA01F0304208D0F0
:1003900021684969090604D5A860606D40F0020033
:1003A000606594F85C1004208840304208D02168D1
:1003B0000968890704D5A860606D40F00400606595
:1003C00094F85C1010208840304218D021680968E9
:1003D000090714D5A86020680168490304D500689E
:1003E000000308D5A16C07E00168C90503D40168C2
:1003F00021F008010160216C09B12046884794F87A
:100400005C1020208840304231D021680968C9063C
:100410002DD5A86094F8350005282068016806D01D
:10042000490347D5006800031DD4616C1CE021F02E
:10043000160101602068416921F080014161206C52
:1004400008B9A06C20B12068016821F008010160A2
:1004500094F85C103F208840A86084F8349084F8B9
:100460003580216D1FE0E16B09B120468847606D42
:1004700000282BD0606DC00714D0052084F835000B
:100480002068016821F0010101600098401C009083
:10049000B84203D820680068C007F6D184F83490C9
:1004A00084F83580E16C002910D001B02046BDE809
:1004B000F04308470168C905D5D4016821F010014F
:1004C000016084F8349084F83580CCE7BDE8F88387
:1004D000140000202DE9F041044600F0A7F906467B
:1004E0005CB1002584F83450022084F8350020687F
:1004F000016821F0010101600DE00120BDE8F081FB
:1005000000F094F9801B052805D9202060650320A0
:1005100084F83500F2E720680068C007F0D122684F
:10052000116820480140D4E901031843D4E9033697
:100530003343184363691843A3691843E3691843B5
:10054000236A18430843616A042903D1D4E90B13D1
:1005500019430843106020684069666A20F007016B
:1005600030460E43012704280CD1A06A0643E06AF6
:1005700040B12046FFF7A0FE20B14020606584F81E
:100580003570BAE7206846612046FFF781FE94F88F
:100590005C203F2191408160656584F835700020C2
:1005A000ACE700003F8010F010B590F83440002315
:1005B000012C0CD0012480F8344090F83540012CF7
:1005C00007D00123002180F83410184610BD022006
:1005D00010BD0629F6D2DFE801F0030507090B0D6F
:1005E000C263EFE70264EDE74264EBE78264E9E7A8
:1005F000C264E7E70265E5E72DE9F0410446866D50
:1006000090F83400002501280DD0012084F8340032
:1006100094F835700020012F07D084F834000225AB
:100620002846BDE8F0810220FBE7022784F83570F8
:1006300060652046FFF76AFE94F85C103F20884012
:10064000B0602068016841F01601016020684169CE
:1006500041F080014161206C20B12068016841F0C7
:10066000080101602068016841F001010160D7E7DD
:100670002DE9F84FDFF87CB100224FF001084FF070
:10068000030A4FF00F090BF1040E00BF0B6808FAC4
:1006900002F42340A3426ED14D68022D01D0122DE9
:1006A0000ED1D50800EB850CDCF820505607F70E6C
:1006B00009FA07F6B5430E69BE402E43CCF8206018
:1006C000066855000F790AFA05FC07F0030726EAC9
:1006D0000C06AF40374307604E68012E05D0022E4E
:1006E00003D0112E01D0122E0ED18668CF6826EAD3
:1006F0000C06AF40374387604668A6430C79C4F3C5
:100700000014944034434460C6688C6826EA0C06A2
:10071000AC403443C4604C68E40065D5364C256871
:1007200045F480452560246822F0030504F48044E4
:100730000094324C2E19D6F8084895072F0F09FA65
:1007400007F5AC432E4DA84201D1002524E02D4DE4
:10075000A84201D101251FE02B4DA84201D102255D
:100760001AE02A4DA84201D1032515E0284DA842E0
:1007700002D1042510E037E0264DA84201D105251D
:100780000AE0254DA84201D1062505E0234DA842E7
:1007900001D1072500E00825BD402543C6F80858CB
:1007A000DBF800405D464E689C43F60300D51C43D1
:1007B0002C60DEF8004075464E689C43B60300D5B9
:1007C0001C432C600B4D08352C684E689C43F60288
:1007D00000D51C432C60074D0C352C684E689C439B
:1007E000B60200D51C432C60521C102AFFF44EAFF9
:1007F000BDE8F88F003C0140443802400030014021
:10080000000002400004024000080240000C0240C8
:10081000001002400014024000180240001C024078
:100820000AB1816170470904FBE700000148806854
:1008300070470000080000200248816802781144D7
:1008400081607047080000200B4810B5016841F432
:1008500000710160016841F480610160016841F448
:1008600080710160032000F097F8002000F006F886
:1008700000F024F8002010BD003C024070B50D4D82
:1008800004464FF47A712878B1FBF0F00A49096800
:10089000B1FBF0F000F0FBFA48B9102C07D20022AF
:1008A0002146501E00F058F800206C6070BD0120F9
:1008B00070BD000008000020140000201F4808B58B
:1008C000016841F480410160006800F480400090BC
:1008D0001A48001F016841F080510160006800F073
:1008E00080500090072000F057F8002211466FF06A
:1008F0000B0000F031F8002211466FF00A0000F002
:100900002BF8002211466FF0090000F025F80022B4
:100910001146501F00F020F800221146101F00F071
:100920001BF800221146901E00F016F80022BDE8C8
:1009300008401146501E00F00FB800004438024035
:1009400000F01F02012191404009800000F1E020E9
:10095000C0F8001170470000F0B40E4B1B680C4645
:10096000C3F30223C3F10705042D00D90425191D83
:10097000072901D2002300E0DB1E012606FA05F15B
:10098000491E214099409E40761E16403143F0BCDE
:1009900000F0B4BB0CED00E0064900F00702086867
:1009A0004FF6FF03184040EA0220034A1043086054
:1009B000704700000CED00E00000FA052DE9F0475B
:1009C0000E46050065D0DFF81481D8F80000F7B2B4
:1009D00000F00F00B04207D288F80070D8F800008D
:1009E00000F00F00B04254D128683D4C810712D569
:1009F000400703D5206840F4E050206028780007C5
:100A000003D5206840F4604020602068A96820F089
:100A1000F000084320602878C0072DD0304968686E
:100A20000839012812D0022813D0032811D00968F0
:100A3000890700292DDA216821F003010143216093
:100A4000FFF7F4FE814641F2883A0EE00968890317
:100A5000EFE709688901ECE7FFF7E8FEA0EB090181
:100A6000514502D90320BDE8F0872068696800F08D
:100A70000C00B0EB810FEFD1D8F80010404601F028
:100A80000F01B14207D90770006800F00F00B042B3
:100A900001D00120E7E72878400705D52068E968FC
:100AA00020F4E050084320602878000706D520682D
:100AB000296920F4604040EAC100206000F01CF881
:100AC0002168084AC1F30311515CC8400649086017
:100AD0000020FFF7D3FE0020C5E70000003C0240E5
:100AE00008380240B61200081400002001480068CF
:100AF0007047000014000020154810B5006810F081
:100B00000C02144813D04110042A0FD0082A0ED129
:100B10000F4C241F2268236802F03F025B0207D5B6
:100B20002068C0F38810A0FB010106E0084610BD54
:100B30002168C1F38811A1FB00010023FFF740FBEE
:100B40002168C1F30141491C4900B0FBF1F010BD1F
:100B5000083802400024F4002DE9F84F050076D053
:100B60002878DFF8F8B2BE4CC00749D0DBF8001097
:100B70005846C1F38101012908D00068C0F3810003
:100B800002280AD1201D0068400206D52068800393
:100B900036D568680028E2D032E06868B0F5803F5A
:100BA00010D0B0F5A02F206810D020F48030206045
:100BB000206820F4802020606868A0B1FFF736FE2E
:100BC00006460CE0206840F48030F4E740F48020D2
:100BD0002060F7E7FFF72AFE801B642873D820689F
:100BE0008003F7D50CE0FFF721FE064605E000BFC5
:100BF000FFF71CFE801B6428F0D820688003F7D420
:100C00002878DFF8608280074FF000093ED5DBF8D6
:100C10000010584611F00C0F09D00068C0F3810095
:100C200002280BD18D48001F0068400206D42068BE
:100C3000800715D5E868012809D111E0E868B8B146
:100C40000120C8F80000FFF7F1FD064605E002E1CB
:100C5000FFF7ECFD801B0228C0D820688007F7D57D
:100C60002068296920F0F80040EAC10020600DE00A
:100C7000C8F80090FFF7DAFD064604E0FFF7D6FD5E
:100C8000801B02281FD820688007F7D42878000727
:100C900022D5724E744869696C3671B101210160C8
:100CA000FFF7C4FD074604E0FFF7C0FDC01B0228A4
:100CB00009D830688007F7D50EE0C0F80090FFF73C
:100CC000B5FD074605E083E0FFF7B0FDC01B022835
:100CD0007ED830688007F7D42878400768D5DFF8D9
:100CE0007CA100270AF1380ADAF80000C0000BD412
:100CF000DAF8001041F08051CAF80010DAF800006C
:100D0000012700F080500090584E3068C00510D484
:100D1000306840F480703060FFF788FD009005E097
:100D2000FFF784FD0099401A022851D83068C005A9
:100D3000F6D54A4EA868683601280FD005283068D5
:100D400010D020F001003060306820F004003060E6
:100D5000A868B8B1FFF76AFD00900FE0306840F076
:100D60000100F4E740F004003060F7E7FFF75EFDB4
:100D70000099411A41F28830814264D83068800776
:100D8000F4D50EE0FFF752FD009007E0FFF74EFDAF
:100D90000099411A41F28830814254D83068800766
:100DA000F4D42FB1DAF8001021F08051CAF8001005
:100DB000A869C0B3DBF80010C1F3810102294AD051
:100DC0000228484607D0C8F86000FFF72FFD00E072
:100DD00039E005463AE04746C8F86000FFF726FDCF
:100DE000064604E0FFF722FD801B02282BD820686E
:100DF0008001F7D4D5E907010843A96A1C4A4908CC
:100E000002EB01416A6A41EA8211084395F82C100D
:100E100040EA01611148001F016001203866FFF7B8
:100E200005FD054605E014E0FFF700FD401B022824
:100E300009D820688001F7D50BE000BFFFF7F6FC6A
:100E4000401B022802D90320BDE8F88F20688001EA
:100E5000F4D40020F8E70120F6E70000083802404B
:100E60000038024000004742800E474200700040B8
:100E70000000FFFF4FF0E0210428086903D020F0B4
:100E800004000861704740F00400FAE7704710B5AD
:100E9000401EB0F1807F01D3012010BD4FF0E0244F
:100EA00060610F21601700F029F90020A061072080
:100EB0002061002010BD10B5FFF7E8FF10BD000055
:100EC000164808B50268002142F4800202600068FA
:100ED000134A00F4800000901248C0E900218022EB
:100EE000C0E902211201C0E904129200C0E9062102
:100EF0000422C0E908120322C0E90A210163FFF7B6
:100F0000E9FA00B1FEE7002211463820FFF724FD80
:100F1000BDE808403820FFF713BD0000303802401C
:100F200010640240180000202DE9F04F6C4887B093
:100F30000024016841F010010160016801F0100116
:100F40000591016841F004010160016801F00401AC
:100F50000591016841F080010160016801F08001A4
:100F60000591016841F001010160016801F0010192
:100F70000591016841F002010160016801F0020180
:100F80000591016841F0080101600068002200F04D
:100F90000800059008215348FFF742FC0122114642
:100FA0005148FFF73DFC4FF2100B002259464F48C5
:100FB000FFF736FC082601250096CDE90154694665
:100FC00048480394FFF754FB0095CDE90154694666
:100FD00045480394FFF74CFB00960226CDE90164D7
:100FE0000527CDE9034769463F48FFF741FBDFF896
:100FF00000810095CDE9018469463E48FFF738FB42
:1010000010200090CDE901644FF00609CDE90349B5
:1010100069463848FFF72CFBE0200090CDE90164D9
:10102000CDE9034769463348FFF722FB4FF0040A36
:10103000CDE900A4694630480294FFF719FBA802E5
:101040000090CDE90164CDE9034769462A48FFF7DE
:101050000FFB0320CDE90250CDE900B569462348D6
:10106000FFF706FB4FF4A4500090CDE90164CDE9F1
:10107000034969461C48FFF7FBFA6802CDE9000402
:1010800069461C480294FFF7F3FA4FF4E0500090D1
:10109000CDE901640A20CDE9034069461548FFF710
:1010A000E7FA2020CDE90004694610480294FFF7D2
:1010B000DFFA4FF4107000901220CDE90105CDE960
:1010C000034A69460C48FFF7D3FA0096CDE901843C
:1010D00069460448FFF7CCFA07B0BDE8F08F00007E
:1010E000303802400010024000080240000C02406C
:1010F0000000121000000240000402400907090E1F
:10110000002806DA00F00F0000F1E02080F8141D3E
:10111000704700F1E02080F80014704710B5FFF729
:101120008BFBBDE81040FFF7C6BE000030B5254878
:1011300093B00025016841F080510160006800F023
:10114000805011902048016841F48041016000689E
:10115000022400F4804011900120009000040190CE
:101160008001CDE90640082008904FF4A870CDE931
:10117000090407200B906846FFF7EEFC00B1FEE77C
:101180000CA90F2081E831004FF4A0500F904FF4CC
:101190008050109005210CA8FFF710FC00B1FEE76D
:1011A000FFF7A4FC4FF47A71B0FBF1F0FFF76FFE8C
:1011B0000420FFF75FFE00221146501EFFF7CCFB14
:1011C00013B030BD40380240007000401048016844
:1011D00041F4700101600F48016841F001010160B4
:1011E0000C4A00210832116002680B4B1A40026061
:1011F000031D0A4A1A60026822F480220260054830
:101200000C300160024958068039086070470000C0
:1012100088ED00E000380240FFFFF6FE10300024A9
:1012200002E008C8121F08C1002AFAD170477047AF
:10123000002001E001C1121F002AFBD1704700000D
:10124000FFF702FBFFF772FFFFF76EFEFFF738FEB6
:10125000124A00211248FFF7A7F9124C124D04233D
:10126000224611490E48FFF7C7F9FFF7DFFA00F5EC
:10127000FA7600BFFFF7DAFAB042FBD90423224620
:10128000291D0748FFF7B8F9FFF7D0FA00F5FA76FD
:10129000FFF7CCFAB042FBD9E1E70000AD1200083D
:1012A00018000020140C02400000002070470006C7
:1012B00010160006101600000000000000000102D9
:1012C0000304060708090000E812000800000020D7
:1012D0001800000020120008001300081800002069
:1012E0006004000030120008FFFF00000000000052
:1012F0000100000010000000000000000024F400C5
:040000050800018965
:00000001FF
