:020000040800F2
:100000000000022089190008D9190008D919000830
:10001000D9190008D9190008D919000800000000F2
:10002000000000000000000000000000D9190008D6
:10003000D919000800000000D9190008E1150008CE
:10004000D9190008D9190008D9190008D9190008C8
:10005000D9190008D9190008D9190008D9190008B8
:10006000D9190008D9190008D9190008D9190008A8
:10007000D9190008D9190008D9190008D919000898
:10008000D9190008D9190008D9190008D919000888
:10009000D9190008D9190008D9190008D919000878
:1000A000D9190008D9190008D9190008D919000868
:1000B000D9190008D9190008D9190008D919000858
:1000C000D9190008D9190008D9190008D919000848
:1000D000D9190008D9190008D9190008D919000838
:1000E000D9190008D9190008D9190008D919000828
:1000F000D9190008D9190008D9190008D919000818
:10010000D9190008D9190008D9190008D919000807
:10011000D9190008D9190008D9190008D9190008F7
:10012000D9190008D9190008D9190008D9190008E7
:10013000D9190008D9190008D9190008D9190008D7
:10014000D9190008D9190008D9190008D9190008C7
:10015000D9190008D9190008D9190008D9190008B7
:10016000D9190008D9190008D9190008D9190008A7
:10017000D9190008D9190008D91900080000000091
:08018000D9190008D919000883
:1001880010B5054C237833B9044B13B10448AFF3C9
:1001980000800123237010BD0C0000200000000027
:1001A800241A000808B5034B1BB103490348AFF3F1
:1001B800008008BD0000000010000020241A00087C
:1001C80053B94AB9002908BF00281CBF4FF0FF31B6
:1001D8004FF0FF3000F072B9ADF1080C6DE904CEB4
:1001E80000F006F8DDF804E0DDE9022304B070470A
:1001F8002DE9F047089E04468846002B4BD18A42D9
:10020800154667D9B2FA82F24AB1C2F1200701FA5B
:1002180002F320FA07F7954047EA030894404FEAAB
:10022800154E230CB8FBFEF71FFA85FC0EFB17884A
:1002380043EA084307FB0CF1994209D9EB1807F187
:10024800FF3080F01B81994240F21881023F2B4415
:100258005B1AA4B2B3FBFEF00EFB103344EA03446E
:1002680000FB0CFCA44509D92C1900F1FF3380F0E0
:100278000781A44540F2048102382C4440EA074033
:10028800A4EB0C0400271EB1D4400023C6E90043A8
:100298003946BDE8F0878B4209D9002E00F0EB8083
:1002A8000027C6E9000138463946BDE8F087B3FAA9
:1002B80083F7002F47D18B4202D3824200F2FA80A3
:1002C800841A61EB030301209846002EE0D0C6E9AA
:1002D8000048DDE702B9FFDEB2FA82F2002A40F0F8
:1002E8008F80491B4FEA154E1FFA85F80127B1FB8D
:1002F800FEFC230C0EFB1C1143EA014308FB0CF126
:10030800994207D9EB180CF1FF3002D2994200F25A
:10031800CD808446591AA3B2B1FBFEF00EFB10142F
:1003280043EA044408FB00F8A04507D92C1900F15A
:10033800FF3302D2A04500F2B6801846A4EB0804A9
:1003480040EA0C409FE7C7F1200CBB4022FA0CFEA4
:100358004EEA030E01FA07F420FA0CF521FA0CF321
:100368004FEA1E482543B3FBF8F92C0C08FB193358
:100378001FFA8EFA44EA034309FB0AF49C4202FA84
:1003880007F200FA07F10BD91EEB030309F1FF305E
:1003980080F087809C4240F28480A9F1020973446E
:1003A8001B1BADB2B3FBF8F008FB103345EA03445E
:1003B80000FB0AFAA24508D91EEB040400F1FF333A
:1003C8006BD2A24569D90238744440EA0940A0FBBF
:1003D8000289A4EB0A044C45C2464B4654D351D07B
:1003E800002E69D0B1EB0A0564EB030404FA0CFC97
:1003F800FD40FC404CEA0505C6E90054002747E7E4
:10040800C2F1200320FA03F7954001FA02F021FA1D
:1004180003F34FEA154E3843010CB3FBFEF71FFAFE
:1004280085F80EFB173341EA034107FB08F38B42BB
:1004380004FA02F407D9691807F1FF3C2FD28B425E
:100448002DD9023F2944CB1A81B2B3FBFEF00EFB33
:10045800103341EA034100FB08F38B4207D96918BE
:1004680000F1FF3C17D28B4215D902382944C91A2A
:1004780040EA07473BE73746304609E70746E7E6DD
:100488001846FBE64145ABD2B8EB020A69EB0E020F
:1004980001381346A4E76046E9E7184695E767463A
:1004A800D1E781467CE702382C4447E7ACF1020CDF
:1004B8002B442FE7384608E73746E9E6704700BF80
:1004C800034613F8012B002AFBD1181A013870478C
:1004D80010B504460E4B18784FF47A73B3FBF0F35B
:1004E8000C4A1068B0FBF3F000F0F2F968B90F2C71
:1004F80001D901200AE0002221464FF0FF3000F028
:10050800A5F9034B5C60002000E0012010BD00BF8E
:10051800000000200800002008B50B4B1A6842F4C0
:1005280000721A601A6842F480621A601A6842F40B
:1005380080721A60032000F077F90020FFF7C8FFE7
:1005480001F074F9002008BD003C0240034A11681C
:10055800034B1B780B441360704700BF2800002032
:1005680000000020014B1868704700BF28000020D9
:10057800002800F0A18038B5044690F82030D3B1A7
:100588002268136823F002031360FFF7EBFF0546A8
:1005980023685A6812F0020F10D0FFF7E3FF401BE0
:1005A8000A28F5D9636A43F400336362052384F8A3
:1005B8002030012038BD01F057F9E1E71A6842F010
:1005C80001021A60FFF7CEFF054623685A6812F049
:1005D800010F0DD1FFF7C6FF401B0A28F5D9636A42
:1005E80043F400336362052384F820300120E1E7F7
:1005F800227E012A3DD01A6822F080021A60637EAA
:10060800012B3BD02268136823F040031360A37EBC
:10061800012B39D02268136823F020031360E37E8E
:10062800012B37D02268136843F010031360237F2F
:10063800012B35D02268136823F008031360637F09
:10064800012B33D02268136823F004031360A368D6
:10065800E268134322691343626913436268013AEB
:1006680021681343CB6100206062012384F82030A5
:10067800A0E71A6842F080021A60C0E7226813688F
:1006880043F040031360C2E72268136843F0200375
:100698001360C4E72268136823F010031360C6E7E9
:1006A8002268136843F008031360C8E722681368D8
:1006B80043F004031360CAE70120704738B590F887
:1006C8002030DBB2012B05D0436A43F40023436298
:1006D800012038BD0446022380F8203002681368E0
:1006E80023F001031360FFF73DFF054623685B68AD
:1006F80013F0010F0DD0FFF735FF401B0A28F5D97D
:10070800636A43F400336362052384F820300120D0
:10071800DFE700206062DCE770B490F820400568ED
:10072800AD68013CE4B2012C06D9436A43F4802346
:100738004362012070BC704715F0E05F5BD0C5F3E1
:100748000165022D3ED80124AC401C608B68002B4B
:100758003ED10E68CB68046843EA465605F1180393
:100768001B01E65003680C6905F1180603EB061334
:100778005C600B7D012B36D0D17993791B0443EA59
:100788000163517943EA01231479016823432C0159
:100798002144C1F88C31D17893781B0443EA016372
:1007A800517843EA0123117802680B432244C2F8C6
:1007B8008831026818352D01535943F0010353510C
:1007C8000020B7E7436A43F4000343620120B1E71E
:1007D8004C6843EAC403CC680668234305F118044F
:1007E80024013351BEE7036803EB0613596841F44B
:1007F80080715960C0E7436A43F4001343620120E3
:1008080098E790F82030013BDBB2012B01D900209A
:10081800704703689B68890631EA030301D0012009
:100828007047002070470000074AD36823F4E0634C
:100838001B041B0C000200F4E060184340F0BF608A
:1008480040F40030D060704700ED00E030B4174B42
:10085800DB68C3F30223C3F10704042C28BF042474
:100868001D1D062D18D9033B4FF0FF3505FA04F47A
:1008780021EA0401994005FA03F322EA0303194324
:1008880000280BDB0901C9B200F1604000F56140A6
:1008980080F8001330BC70470023E5E700F00F0034
:1008A8000901C9B2024B1954F4E700BF00ED00E09A
:1008B80014ED00E0002807DB00F01F0240090123C7
:1008C8009340024A42F82030704700BF00E100E040
:1008D8000138B0F1807F0AD2064B5860064AF021F1
:1008E80082F823100020986007221A6070470120C0
:1008F800704700BF10E000E000ED00E0042805D0DC
:10090800054A136823F0040313607047024A13680A
:1009180043F004031360704710E000E0704708B527
:10092800FFF7FCFF08BD000000230F2B00F2D78063
:10093800F0B482B039E0072200E00022B2403A4326
:100948000234674E46F82420664A1468EA4302EAED
:1009580004064F6817F4803F01D045EA0406614C4D
:100968002660646802EA04064F6817F4003F01D065
:1009780045EA04065B4C6660A46802EA04064F6810
:1009880017F4801F01D045EA0406564CA660E468B7
:1009980022404E6816F4001F01D045EA0402514C6B
:1009A800E26001330F2B00F2978001229A400C6815
:1009B80004EA0205AA42F4D14C68022C01D0122C98
:1009C80010D1DE08083650F826C003F00704A70047
:1009D8000F24BC402CEA040C0C69BC4044EA0C040B
:1009E80040F8264004685F000326BE40F64306EA46
:1009F800040C4C6804F00304BC4044EA0C04046092
:100A08004C6804F1FF3CBCF1010F03D9112C01D053
:100A1800122C10D1846806EA040CCC68BC4044EA65
:100A28000C048460446824EA02024C68C4F300148D
:100A38009C4014434460C26816408A68BA403243F6
:100A4800C2604A6812F0805FABD000220192264A49
:100A5800546C44F480445464526C02F48042019211
:100A6800019A9C08A61C1E4A52F8267003F003023D
:100A780096000F22B24027EA02071C4A90423FF430
:100A88005CAF02F5806290421AD002F58062904213
:100A980018D002F58062904216D002F5806290422A
:100AA80014D002F58062904212D002F58062904222
:100AB80010D002F5806290423FF43DAF08223DE736
:100AC80001223BE7022239E7032237E7042235E710
:100AD800052233E7062231E702B0F0BC70477047C1
:100AE80000380140003C014000380240000002404C
:100AF800002800F0BB8170B582B00446036813F08B
:100B0800010F3BD0A74B9B6803F00C03042B2CD0A0
:100B1800A44B9B6803F00C03082B21D06368B3F542
:100B2800803F4FD0B3F5A02F52D09E4B1A6822F4C5
:100B380080321A601A6822F480221A606368002BD7
:100B480050D0FFF70FFD0546964B1B6813F4003F86
:100B580014D1FFF707FD401B6428F5D903208AE16B
:100B6800904B5B6813F4800FD8D08E4B1B6813F43E
:100B7800003F03D06368002B00F07A81236813F0EC
:100B8800020F55D0874B9B6813F00C0F3ED0854B56
:100B98009B6803F00C03082B33D0E368002B68D064
:100BA800814B01221A60FFF7DDFC05467D4B1B686F
:100BB80013F0020F54D1FFF7D5FC401B0228F5D9DA
:100BC800032058E1774A136843F480331360B5E78C
:100BD800744B1A6842F480221A601A6842F4803210
:100BE8001A60ABE7FFF7BEFC05466E4B1B6813F4B3
:100BF800003FC3D0FFF7B6FC401B6428F5D903209B
:100C080039E1684B5B6813F4800FC6D1654B1B68EC
:100C180013F0020F04D0E368012B01D001202AE170
:100C2800604A136823F0F803216943EAC10313609B
:100C3800236813F0080F40D0636963B35B4B01224C
:100C48001A60FFF78FFC0546564B5B6F13F0020FD7
:100C580033D1FFF787FC401B0228F5D903200AE1AE
:100C6800504A136823F0F803216943EAC10313606B
:100C7800DEE74D4B00221A60FFF774FC0546494B2E
:100C88001B6813F0020FD3D0FFF76CFC401B02283F
:100C9800F5D90320EFE0454B00221A60FFF762FC0C
:100CA8000546404B5B6F13F0020F06D0FFF75AFC66
:100CB800401B0228F5D90320DDE0236813F0040F58
:100CC80079D0384B1B6C13F0805F33D1002301932C
:100CD800344B1A6C42F080521A641B6C03F0805338
:100CE8000193019B0125324B1B6813F4807F23D0AD
:100CF800A368012B34D0052B38D02A4B1A6F22F069
:100D080001021A671A6F22F004021A67A368002BFF
:100D180036D0FFF727FC0646224B1B6F13F0020F55
:100D280048D1FFF71FFC801B41F288339842F3D962
:100D38000320A0E00025D6E71D4A136843F480731A
:100D48001360FFF70FFC0646194B1B6813F4807FEE
:100D5800CED1FFF707FC801B0228F5D903208AE0D3
:100D6800104A136F43F001031367CFE70D4B1A6F57
:100D780042F004021A671A6F42F001021A67C5E7C7
:100D8800FFF7F0FB0646074B1B6F13F0020F11D05D
:100D9800FFF7E8FB801B41F288339842F3D9032020
:100DA80069E000BF0038024000004742800E474219
:100DB80000700040E5B9A369002B5BD0304A926807
:100DC80002F00C02082A58D0022B17D02D4B002213
:100DD8001A60FFF7C7FB0446294B1B6813F0007F16
:100DE80042D0FFF7BFFB001B0228F5D9032042E0E1
:100DF800234A136C23F080531364DCE7214B002251
:100E08001A60FFF7AFFB05461D4B1B6813F0007F08
:100E180006D0FFF7A7FB401B0228F5D903202AE0DC
:100E2800E369226A1343626A43EA8213A26A520898
:100E3800013A43EA0243E26A43EA0263104A536012
:100E4800104B01221A60FFF78DFB04460C4B1B6800
:100E580013F0007F06D1FFF785FB001B0228F5D9A8
:100E6800032008E0002006E0002004E0012070478D
:100E7800012000E0002002B070BD0120FBE700BFA8
:100E88000038024060004742324B9B6803F00C0375
:100E9800042B5CD0082B01D02F4870472DE9F04B6C
:100EA8002C4B5A6802F03F025B6813F4800F2BD07A
:100EB800284B5B68C3F388131E4600275C01002596
:100EC800E41A65EB0705A90141EA9461A001001B3A
:100ED80061EB0501CB0043EA5073C400A01943EB52
:100EE80007014B0243EAD053440220461946002327
:100EF800FFF766F9174B5B68C3F3014301335B00E7
:100F0800B0FBF3F0BDE8F08B124B5B68C3F38813BA
:100F18001E4600275C010025E41A65EB0705A901B8
:100F280041EA9461A001001B61EB0501CB0043EA93
:100F38005073C400A01943EB07018B0243EA905396
:100F48008402204619460023FFF73AF9D2E70348FE
:100F5800704700BF003802400024F40000127A00F5
:100F6800002800F09D8070B504464F4B1B6803F0C5
:100F78000F038B4209D2CBB24B4A1370136803F0AC
:100F88000F038B4201D0012070BD236813F0020FBC
:100F980017D013F0040F04D0444A936843F4E05385
:100FA8009360236813F0080F04D0404A936843F411
:100FB800604393603D4A936823F0F003A0680343BD
:100FC80093600D46236813F0010F32D06368012B3C
:100FD80021D09A1E012A25D9344A126812F0020F2C
:100FE80060D032498A6822F0030213438B60FFF70E
:100FF800B9FA06462D4B9B6803F00C036268B3EB05
:10100800820F16D0FFF7AEFA801B41F28833984260
:10101800F0D90320B8E7254A126812F4003FE0D15E
:101028000120B1E7214A126812F0007FD9D10120CE
:10103800AAE71D4B1B6803F00F03AB4209D9EAB2BC
:10104800194B1A701B6803F00F03AB4201D0012043
:101058009AE7236813F0040F06D0144A936823F420
:10106800E053E1680B439360236813F0080F07D03F
:101078000E4A936823F46043216943EAC1039360ED
:10108800FFF702FF094B9B68C3F30313084AD35CBD
:10109800D840084B18600020FFF71AFA002073E7C1
:1010A8000120704701206FE7003C024000380240F1
:1010B800441A000808000020014B1868704700BF58
:1010C8000800002008B5FFF7F7FF044B9B68C3F33F
:1010D8008223034AD35CD84008BD00BF00380240D1
:1010E800541A000808B5FFF7E7FF044B9B68C3F3E1
:1010F8004233034AD35CD84008BD00BF00380240E1
:10110800541A00082DE9F84304460268136923F4C9
:101118004053C1680B4313618368026913434269F2
:101128001343C2691A430168CB6823F4164323F0BA
:101138000C031343CB600268536923F4407381693D
:101148000B435361C369B3F5004F60D00368B84AD5
:10115800934200F0148102F58062934200F00F81FF
:10116800FFF7B0FF00EB800000EB80006568AD0082
:10117800B0FBF5F5AF4FA7FB05356D092E01FFF75D
:10118800A1FF00EB800000EB80006568AD00B0FBBC
:10119800F5F9FFF797FF00EB800000EB800065682A
:1011A800AD00B0FBF5F5A7FB05356D094FF06408F8
:1011B80008FB15952D013235A7FB05356D0905F09E
:1011C800F0053544FFF77EFF00EB800000EB800060
:1011D8006668B600B0FBF6F6FFF774FF00EB800018
:1011E80000EB800063689B00B0FBF3F0A7FB0030C6
:1011F800400908FB10684FEA081808F13208A7FBF5
:101208000837C7F3431723682F449F600DE103682D
:10121800874A93425BD002F58062934257D0FFF72A
:1012280051FF00EB800000EB800065686D00B0FBAB
:10123800F5F5804FA7FB05356D092E01FFF742FF35
:1012480000EB800000EB800065686D00B0FBF5F9ED
:10125800FFF738FF00EB800000EB800065686D0049
:10126800B0FBF5F5A7FB05356D094FF0640808FBE1
:101278001595ED003235A7FB05356D096D0005F4B0
:10128800F8753544FFF71EFF00EB800000EB800087
:1012980066687600B0FBF6F6FFF714FF00EB8000F7
:1012A80000EB800063685B00B0FBF3F3A7FB03234C
:1012B8005B0908FB13684FEAC80808F13208A7FB66
:1012C8000837C7F3421723682F449F60ADE0FFF744
:1012D80009FF00EB800000EB800065686D00B0FB43
:1012E800F5F5544FA7FB05356D092E01FFF7FAFEFA
:1012F80000EB800000EB800065686D00B0FBF5F93D
:10130800FFF7F0FE00EB800000EB800065686D00E1
:10131800B0FBF5F5A7FB05356D094FF0640808FB30
:101328001595ED003235A7FB05356D096D0005F4FF
:10133800F8753544FFF7D6FE00EB800000EB80001F
:1013480066687600B0FBF6F6FFF7CCFE00EB80008F
:1013580000EB800063685B00B0FBF3F3A7FB03239B
:101368005B0908FB13684FEAC80808F13208A7FBB5
:101378000837C7F3421723682F449F6055E0FFF7EB
:10138800B1FE00EB800000EB80006568AD00B0FBAB
:10139800F5F5284FA7FB05356D092E01FFF7A2FECD
:1013A80000EB800000EB80006568AD00B0FBF5F94C
:1013B800FFF798FE00EB800000EB80006568AD0049
:1013C800B0FBF5F5A7FB05356D094FF0640808FB80
:1013D80015952D013235A7FB05356D0905F0F0058A
:1013E8003544FFF77FFE00EB800000EB8000666865
:1013F800B600B0FBF6F6FFF775FE00EB800000EBD9
:10140800800063689B00B0FBF3F0A7FB0030400945
:1014180008FB10684FEA081808F13208A7FB0837DC
:10142800C7F3431723682F449F60BDE8F88300BFC4
:10143800001001401F85EB512DE9F04105460F468C
:1014480016469846069C2B681B6837EA03030CBFB0
:1014580001230023B3421DD1B4F1FF3FF3D02CB1D7
:10146800FFF780F8A0EB0800A042ECD92A68D368FF
:1014780023F4D073D3602A68536923F001035361BE
:10148800202385F8393085F83A30002385F838303C
:10149800032000E00020BDE8F08158B310B50446F1
:1014A80090F839300BB3242384F839302268D36894
:1014B80023F40053D3602046FFF724FE2268136903
:1014C80023F4904313612268536923F02A0353617C
:1014D8002268D36843F40053D3600020E0632023DC
:1014E80084F8393084F83A3010BD80F8383000F08C
:1014F800E7F9D8E7012070472DE9F04182B01E4690
:1015080090F83930DBB2202B55D104460D46904671
:10151800002955D0002A55D090F83830012B53D0E7
:10152800012380F838300023C363212380F8393041
:10153800FFF718F80746A4F82480A4F8268010E0DE
:1015480000963B46002280212046FFF775FF0028C1
:101558003CD12B882268C3F3080353602369C3B9BD
:101568000235E38C9BB2B3B1E38C013B9BB2E384BD
:10157800A368B3F5805FE3D000963B460022802144
:101588002046FFF759FF18BB2A7823685A600135AF
:10159800E7E70135E5E700963B4600224021204673
:1015A800FFF74AFF0346A8B9202284F83920002211
:1015B80084F8382000E00223184602B0BDE8F08124
:1015C8000123F9E70123F7E70223F5E70323F3E70C
:1015D8000323F1E70323EFE708B5FEF7B7FFFFF7AB
:1015E8009EF908BD00B587B0002300930A4B1A6B1B
:1015F80042F008021A631B6B03F008030093009B78
:101608004FF4805301930123029301A90348FFF784
:101618008BF907B05DF804FB00380240000C02406B
:10162800FEE7000010B592B002230693012209924A
:1016380010220A920C9300230D93542844D017D9F2
:10164800782851D0B4283DD110230E934FF4B473A9
:101658000F93022310930F22019202934FF4A05389
:1016680004934FF48053059300230393052411E05A
:10167800322827D110230E9364230F93022310934B
:101688000F22019202934FF4805304930593002391
:10169800039301240223119306A8FFF729FA0028CF
:1016A80035D1214601A8FFF75BFC002831D1FFF7AF
:1016B80003FD194BA3FB00308009FFF709F904204B
:1016C800FFF71CF912B010BD10230E93A8230F9337
:1016D800022410940F23019302944FF4805304932F
:1016E800059300230393D5E710230E93F0230F935C
:1016F800022310930F22019202934FF4A0530493F4
:101708004FF480530593002303930324C2E7FFF7A4
:1017180087FFFFF785FF00BFD34D621008B5094862
:10172800094B03604FF4E133436000238360C360D7
:10173800036183610C234361FFF7AFFE00B908BD65
:10174800FFF76EFF2C0000200044004008B50D484C
:101758000D4B03604FF080438360002343760122E2
:10176800C276837603770376437705224260C360A7
:101778004FF4E02202614361FEF7FAFE00B908BDAA
:10178800FFF74EFF6C0000200064004030B597B0B2
:10179800184B93E8030000908DF804100523149368
:1017A80040F25D6310930023129313930FAB6A46C4
:1017B80010A91148FEF7B0FFD0B90F990E48FFF7EE
:1017C80020F80028F9D102AC0C4D0FCD0FC495E8D4
:1017D800030044F8040B217002A8FEF771FE4FF0D5
:1017E800FF3382B202A90648FFF786FE17B030BD64
:1017F800FFF716FF3C1A00086C0000205C1A00086E
:101808002C00002008B5FEF787FE3220FFF70AFFFC
:10181800FFF784FFFFF7E6FEFFF798FF0248FEF7A1
:101828004DFFFFF7B3FFFEE76C00002008B503206B
:10183800FEF7FAFF0B4A536A43F4E023536200228F
:1018480011466FF00B00FFF701F8002211466FF008
:101858000A00FEF7FBFF002211466FF00900FEF7B1
:10186800F5FF08BD00ED00E000B589B00022019247
:10187800114B196C41F000711964196C01F0007179
:10188800019101990292196B41F0080119631B6BD0
:1018980003F008030293029B03230393022104919C
:1018A800059206930923079303A90448FFF73CF818
:1018B80009B05DF804FB00BF00380240000C02408C
:1018C80030B589B000240194184B1A6C42F40032E8
:1018D8001A641A6C02F400320192019A02941A6B8B
:1018E80042F001021A631B6B03F001030293029B8F
:1018F80004230393022304930123059306940723E7
:1019080007930B4D03A92846FFF70EF80823039306
:1019180003A92846FFF708F82620FEF7CBFF224642
:101928000F212620FEF792FF09B030BD0038024093
:10193800000002400F49D1F8883043F47003C1F821
:1019480088300D4B1A6842F001021A600020986036
:101958001A6822F0847222F480321A60074A5A60A8
:101968001A6822F480221A60D8604FF000638B60F6
:10197800704700BF00ED00E000380240103000243E
:10198800DFF834D0002103E00C4B5B58435004319E
:101998000B480C4B42189A42F6D30B4A02E000233C
:1019A80042F8043B094B9A42F9D3FFF7C3FF00F012
:1019B80011F8FFF727FF704700000220841A00087B
:1019C800000000200C0000200C00002094000020E3
:1019D800FEE7000070B50D4E0D4CA41BA4100025A9
:1019E800A54209D10B4E0C4C00F018F8A41BA4100A
:1019F8000025A54205D170BD56F825309847013518
:101A0800EEE756F8253098470135F2E77C1A0008CA
:101A18007C1A00087C1A0008801A0008F8B500BF74
:101A2800F8BC08BC9E467047F8B500BFF8BC08BCB7
:041A38009E4670470F
:101A3C0068656C6C6F000000000000000000000086
:101A4C000102030406070809000000000102030458
:101A5C004D657373616765207472616E736D697423
:081A6C007465640A000000002B
:081A740084E7FF7F0100000080
:041A7C00AD010008B0
:041A800089010008D0
:0C1A840001000000100000000024F4002D
:04000005080019894D
:00000001FF
