:020000040800F2
:10000000E00400209D010008371200083D100008A0
:1000100035120008A902000875160008000000004B
:100020000000000000000000000000003B1200087B
:100030005D03000800000000391200083D120008AE
:10004000B7010008B7010008B7010008B7010008B0
:10005000B7010008B701000861030008B7010008F4
:10006000B7010008B7010008B7010008B701000890
:10007000B7010008B7010008B7010008B701000880
:10008000B7010008AD020008B7010008B701000879
:10009000B7010008B7010008B7010008B701000860
:1000A000B7010008B7010008B7010008B701000850
:1000B000B7010008B7010008B7010008B701000840
:1000C000B7010008B7010008B7010008B701000830
:1000D000B7010008B7010008B7010008B701000820
:1000E000B7010008B7010008B7010008B701000810
:1000F000B7010008B7010008B7010008B701000800
:10010000B7010008B7010008B7010008B7010008EF
:10011000B7010008B7010008B7010008B7010008DF
:10012000B7010008B7010008B7010008B7010008CF
:10013000B7010008B7010008B7010008B7010008BF
:10014000B7010008B7010008B7010008B7010008AF
:10015000B7010008B7010008B7010008B70100089F
:10016000B7010008B7010008B7010008B70100088F
:10017000B7010008B7010008B7010008000000003F
:10018000B7010008B7010008DFF80CD000F07AF8DA
:1001900000480047B5160008E004002006488047E4
:1001A00006480047FEE7FEE7FEE7FEE7FEE7FEE75C
:1001B000FEE7FEE7FEE7FEE7C5120008890100083A
:1001C0002DE9F05F0546002092469B46884606468C
:1001D000814640241BE0284641464746224600F01F
:1001E00041F853465A46C01A914110D31146184659
:1001F000224600F028F82D1A67EB01084F462246E8
:100200000120002100F01FF817EB00094E41201ECD
:10021000A4F10104DFDC484631462A464346BDE8E6
:10022000F09FD2B201E000F8012B491EFBD27047CB
:100230000022F6E710B513460A4604461946FFF7B2
:10024000F0FF204610BD202A04DB203A00FA02F11C
:10025000002070479140C2F1200320FA03F31943B4
:1002600090407047202A04DB203A21FA02F0002156
:10027000704721FA02F3D040C2F1200291400843B6
:1002800019467047064C074D06E0E06840F0010350
:1002900094E8070098471034AC42F6D3FFF778FF94
:1002A0003417000854170008FEE70000014800F06A
:1002B0006DB800007C00002001681823CAB2103A13
:1002C000B2FBF3F2054B6FF30901032A9B5CC36594
:1002D00000D9091D81650846704700001417000801
:1002E00010B5014600208B698A6A4FF0C07453B183
:1002F000B3F5005F15D072B1012A0CD0022A0AD0E2
:10030000032A09D104E01AB1012A06D0022A03D136
:10031000C96AC90100D5012010BDC96AA142FAD03D
:1003200010BD002AF7D0012AF2D0022AF3D0032A06
:10033000F3D010BD30B50468256825F4802525600C
:10034000046863608368402B036803D09960006889
:10035000C26030BD9A600068C16030BD7047000067
:10036000064810B50088064982B2064800F024FE0F
:10037000BDE81040012000F081B9000028000020F5
:10038000000000203C000020704700002DE9F843E9
:1003900004464FF00009CDF8009063484FF4165121
:1003A000A56D0068B0FBF1F72E6894F85C1008208A
:1003B00000FA01F131420FD021680A6852070BD5CB
:1003C0000A6822F004020A6094F85C108840A86071
:1003D000606D40F00100606594F85C104FF001081A
:1003E00008FA01F0304208D021684969090604D5AD
:1003F000A860606D40F00200606594F85C10042015
:100400008840304208D021680968890704D5A8606F
:10041000606D40F00400606594F85C101020884026
:10042000304218D021680968090714D5A8602068EF
:100430000168490304D50068000308D5A16C07E0F2
:100440000168C90503D4016821F008010160216C2D
:1004500009B12046884794F85C102020884030423B
:1004600031D021680968C9062DD5A86094F83500F7
:1004700005282068016806D0490347D500680003B5
:100480001DD4616C1CE021F01601016020684169F7
:1004900021F080014161206C08B9A06C20B1206876
:1004A000016821F00801016094F85C103F20884049
:1004B000A86084F8349084F83580216D1FE0E16BEA
:1004C00009B120468847606D00282BD0606DC007B9
:1004D00014D0052084F835002068016821F001015E
:1004E00001600098401C0090B84203D82068006862
:1004F000C007F6D184F8349084F83580E16C002987
:1005000010D001B02046BDE8F04308470168C90596
:10051000D5D4016821F01001016084F8349084F88A
:100520003580CCE7BDE8F883380000202DE9F041A4
:10053000044600F08DF906465CB1002584F834507D
:10054000022084F835002068016821F00101016073
:100550000DE00120BDE8F08100F07AF9801B05284C
:1005600005D920206065032084F83500F2E7206873
:100570000068C007F0D12268116820480140D4E922
:1005800001031843D4E9033633431843636918431E
:10059000A3691843E3691843236A18430843616A4F
:1005A000042903D1D4E90B131943084310602068D0
:1005B0004069666A20F0070130460E43012704288F
:1005C0000CD1A06A0643E06A40B12046FFF788FEDE
:1005D00020B14020606584F83570BAE72068466134
:1005E0002046FFF769FE94F85C203F21914081602E
:1005F000656584F835700020ACE700003F8010F09E
:100600002DE9F0410446866D90F83400002501285C
:100610000DD0012084F8340094F835700020012FAB
:1006200007D084F8340002252846BDE8F081022076
:10063000FBE7022784F8357060652046FFF77AFEF5
:1006400094F85C103F208840B0602068016841F059
:10065000160101602068416941F080014161206C10
:1006600020B12068016841F008010160206801683C
:1006700041F001010160D7E770470000044910B55F
:100680000A68024202D00860FFF7F6FF10BD0000C2
:10069000143C01402DE9F84FDFF87CB100224FF007
:1006A00001084FF0030A4FF00F090BF1040E00BFD1
:1006B0000B6808FA02F42340A3426ED14D68022D64
:1006C00001D0122D0ED1D50800EB850CDCF820509E
:1006D0005607F70E09FA07F6B5430E69BE402E43DA
:1006E000CCF82060066855000F790AFA05FC07F07F
:1006F000030726EA0C06AF40374307604E68012E19
:1007000005D0022E03D0112E01D0122E0ED18668F4
:10071000CF6826EA0C06AF40374387604668A64399
:100720000C79C4F30014944034434460C6688C6868
:1007300026EA0C06AC403443C4604C68E40065D53E
:10074000364C256845F480452560246822F0030571
:1007500004F480440094324C2E19D6F808489507CA
:100760002F0F09FA07F5AC432E4DA84201D1002501
:1007700024E02D4DA84201D101251FE02B4DA842B8
:1007800001D102251AE02A4DA84201D1032515E026
:10079000284DA84202D1042510E037E0264DA8429A
:1007A00001D105250AE0254DA84201D1062505E025
:1007B000234DA84201D1072500E00825BD4025436F
:1007C000C6F80858DBF800405D464E689C43F603C7
:1007D00000D51C432C60DEF8004075464E689C43F3
:1007E000B60300D51C432C600B4D08352C684E68B1
:1007F0009C43F60200D51C432C60074D0C352C6839
:100800004E689C43B60200D51C432C60521C102A33
:10081000FFF44EAFBDE8F88F003C01404438024081
:100820000030014000000240000402400008024085
:10083000000C024000100240001402400018024068
:10084000001C02400AB1816170470904FBE7000007
:1008500001488068704700002C0000200248816831
:1008600002781144816070472C0000200B4810B5BD
:10087000016841F400710160016841F48061016028
:10088000016841F480710160032000F071F80020DC
:1008900000F006F800F024F8002010BD003C0240F3
:1008A00070B50D4D04464FF47A712878B1FBF0F025
:1008B0000A490968B1FBF0F000F0E2FA48B9102CDF
:1008C00007D200222146501E00F032F800206C6052
:1008D00070BD012070BD00002C00002038000020F9
:1008E0000B4882B0016841F480410160006800F467
:1008F000804000900648001F016841F0805101606F
:10090000006800F080500090072002B000F030B87E
:1009100044380240002809DB00F01F020121914009
:100920004009800000F1E020C0F80011704700008D
:10093000F0B40E4B1B680C46C3F30223C3F107054A
:10094000042D00D90425191D072901D2002300E038
:10095000DB1E012606FA05F1491E214099409E4002
:10096000761E16403143F0BC00F085BE0CED00E071
:10097000064900F0070208684FF6FF03184040EAF6
:100980000220034A10430860704700000CED00E0AD
:100990000000FA052DE9F0470E46050065D0DFF8A6
:1009A0001481D8F80000F7B200F00F00B04207D26F
:1009B00088F80070D8F8000000F00F00B04254D161
:1009C00028683D4C810712D5400703D5206840F4C4
:1009D000E05020602878000703D5206840F460408C
:1009E00020602068A96820F0F00008432060287883
:1009F000C0072DD0304968680839012812D0022874
:100A000013D0032811D00968890700292DDA21683D
:100A100021F0030101432160FFF71AFF814641F2F3
:100A2000883A0EE009688903EFE709688901ECE775
:100A3000FFF70EFFA0EB0901514502D90320BDE8E5
:100A4000F0872068696800F00C00B0EB810FEFD1EF
:100A5000D8F80010404601F00F01B14207D90770E5
:100A6000006800F00F00B04201D00120E7E72878CD
:100A7000400705D52068E96820F4E050084320606D
:100A80002878000706D52068296920F4604040EAEC
:100A9000C100206000F036F82168084AC1F3031154
:100AA000515CC840064908600020FFF7F9FE0020AD
:100AB000C5E70000003C0240083802401C1700084F
:100AC000380000200448054900680968044AC1F359
:100AD0008221515CC840704738000020083802402D
:100AE0002C1700080448054900680968044AC1F346
:100AF0004231515CC840704738000020083802403D
:100B00002C170008154810B5006810F00C021448A6
:100B100013D04110042A0FD0082A0ED10F4C241FE5
:100B20002268236802F03F025B0207D52068C0F309
:100B30008810A0FB010106E0084610BD2168C1F342
:100B40008811A1FB00010023FFF73AFB2168C1F3E4
:100B50000141491C4900B0FBF1F010BD08380240CA
:100B60000024F4002DE9F84F050076D02878DFF84E
:100B7000F8B2BE4CC00749D0DBF800105846C1F3AC
:100B80008101012908D00068C0F3810002280AD140
:100B9000201D0068400206D52068800336D56868AD
:100BA0000028E2D032E06868B0F5803F10D0B0F5A0
:100BB000A02F206810D020F480302060206820F41E
:100BC000802020606868A0B1FFF742FE06460CE076
:100BD000206840F48030F4E740F480202060F7E79C
:100BE000FFF736FE801B642873D820688003F7D592
:100BF0000CE0FFF72DFE064605E000BFFFF728FEDC
:100C0000801B6428F0D820688003F7D42878DFF8A8
:100C1000608280074FF000093ED5DBF8001058468F
:100C200011F00C0F09D00068C0F3810002280BD12D
:100C30008D48001F0068400206D42068800715D543
:100C4000E868012809D111E0E868B8B10120C8F8C6
:100C50000000FFF7FDFD064605E002E1FFF7F8FDA5
:100C6000801B0228C0D820688007F7D52068296932
:100C700020F0F80040EAC10020600DE0C8F80090C4
:100C8000FFF7E6FD064604E0FFF7E2FD801B0228C1
:100C90001FD820688007F7D42878000722D5724E25
:100CA000744869696C3671B101210160FFF7D0FDAC
:100CB000074604E0FFF7CCFDC01B022809D83068C6
:100CC0008007F7D50EE0C0F80090FFF7C1FD07469A
:100CD00005E083E0FFF7BCFDC01B02287ED830682A
:100CE0008007F7D42878400768D5DFF87CA1002773
:100CF0000AF1380ADAF80000C0000BD4DAF8001064
:100D000041F08051CAF80010DAF80000012700F025
:100D100080500090584E3068C00510D4306840F4C0
:100D200080703060FFF794FD009005E0FFF790FDC4
:100D30000099401A022851D83068C005F6D54A4EAD
:100D4000A868683601280FD00528306810D020F038
:100D500001003060306820F004003060A868B8B14D
:100D6000FFF776FD00900FE0306840F00100F4E7F7
:100D700040F004003060F7E7FFF76AFD0099411A80
:100D800041F28830814264D830688007F4D50EE0A3
:100D9000FFF75EFD009007E0FFF75AFD0099411A4A
:100DA00041F28830814254D830688007F4D42FB1A2
:100DB000DAF8001021F08051CAF80010A869C0B319
:100DC000DBF80010C1F3810102294AD0022848460D
:100DD00007D0C8F86000FFF73BFD00E039E00546AA
:100DE0003AE04746C8F86000FFF732FD064604E0E7
:100DF000FFF72EFD801B02282BD820688001F7D436
:100E0000D5E907010843A96A1C4A490802EB0141D8
:100E10006A6A41EA8211084395F82C1040EA0161A0
:100E20001148001F016001203866FFF711FD0546DB
:100E300005E014E0FFF70CFD401B022809D82068EC
:100E40008001F7D50BE000BFFFF702FD401B022831
:100E500002D90320BDE8F88F20688001F4D4002077
:100E6000F8E70120F6E700000838024000380240A9
:100E700000004742800E4742007000400000FFFF24
:100E800010B5401EB0F1807F01D3012010BD4FF09E
:100E9000E02460610F21601700F0EDFB0020A061ED
:100EA00007202061002010BD704770B5040004D0F9
:100EB00094F83900002510B106E0012070BD84F8D7
:100EC0003850204600F022F8242084F839002068A9
:100ED000C16821F40051C160204600F075FA206815
:100EE000016921F4904101612068416921F02A01E2
:100EF00041612068C16841F40051C160E563202070
:100F000084F8390084F83A00002070BDF0B587B04D
:100F1000064614216846FFF78BF92249306888425B
:100F20003DD121480025016841F40031016000688D
:100F300000F4003005901C481038016841F00101B0
:100F400001600068032700F0010005900C2000906C
:100F5000022001900120CDE9020707200490694694
:100F60001248FFF797FB134C114820604FF00060C8
:100F700060604020C4E902050001C4E90405A561E0
:100F80000420E561C4E90850C4E90A7520462563D8
:100F9000FFF7CCFA08B1FFF7F7F93463A66307B09F
:100FA000F0BD000000440040403802400000024014
:100FB000A06002407C00002070B5044690F8390023
:100FC000202830D169B362B394F8380001282AD0C0
:100FD000012084F838002162A284E2840025E563C0
:100FE000212084F83900236B1048D863236B104804
:100FF0001864236B0F48D864206B13460565266878
:10100000206B321DFFF7FCFA21686FF0400008608A
:1010100084F838502068416941F080014161002026
:1010200070BD012070BD022070BD00006313000878
:10103000911300081913000870477047FEE700007D
:101040002DE9F04F87B014216846FFF7F1F8714899
:101050000024016841F010010160016801F01001F5
:101060000591016841F004010160016801F004018B
:101070000591016841F080010160016801F0800183
:101080000591016841F001010160016801F0010171
:101090000591016841F002010160016801F002015F
:1010A0000591016841F0080101600068002200F02C
:1010B0000800059008215848FFF7C4FB012211469B
:1010C0005648FFF7BFFB4FF2100A00225146544822
:1010D000FFF7B8FB082501260095CDE901646946B4
:1010E0004D480394FFF7D6FA0096CDE901646946AE
:1010F0004A480394FFF7CEFA00950225CDE9015442
:101100000527CDE9034769464448FFF7C3FA454838
:101110000096CDE90104DFF810B169465846FFF7A3
:10112000B9FA10200090CDE901544FF00608CDE93E
:10113000034869465846FFF7ADFAE0200090CDE934
:101140000154CDE9034769465846FFF7A3FA4FF02B
:101150000409CDE90094694634480294FFF79AFAED
:1011600068020090CDE90154CDE9034769462F4854
:10117000FFF790FACDF800A0CDE901646946284850
:101180000394FFF787FA4FF4A4500090CDE901547F
:10119000CDE9034869462148FFF77CFA2802CDE9EA
:1011A0000004694658460294FFF774FA4FF4E05081
:1011B0000090CDE901540A20CDE903406946584624
:1011C000FFF768FA2020CDE900046946144802942C
:1011D000FFF760FA4FF4107000901220CDE901067D
:1011E000CDE9034969461148FFF754FA10480095C4
:1011F000CDE9010469460848FFF74CFA0022114680
:101200000620FFF795FB0620FFF784FB07B0BDE83B
:10121000F08F000030380240001002400008024009
:10122000000C0240000021100000024000040240B7
:1012300000001210FEE7704770477047FFF70EBBC3
:1012400030B593B030216846FEF7F2FF14210CA8A8
:10125000FEF7EEFF19480025016841F0805101605A
:10126000006800F0805011901548016841F48041F9
:1012700001600068022400F4804011900120039076
:1012800010200490009406940820CDE907505420C3
:10129000CDE9090407200B906846FFF763FC0CA911
:1012A0000F2081E83100E0020F904FF4A050109021
:1012B00002210CA8FFF76EFB13B030BD403802408E
:1012C000007000401048016841F4700101600F484F
:1012D000016841F0010101600C4A002108321160EF
:1012E00002680B4B1A400260031D0A4A1A6002682A
:1012F00022F48022026005480C3001600249580641
:10130000803908607047000088ED00E00038024036
:10131000FFFFF6FE1030002470B5846B2068406932
:1013200094F83910C0F3C0100025212904D118B158
:10133000E584204600F03FF82068406994F83A10B0
:10134000C0F38010222904D118B1E585204600F0B1
:1013500024F8E06B40F01000E0632046FFF7A4FDA6
:1013600070BD10B50146806B09680968C9050CD4C9
:101370000021C18401684A6922F080024A61006844
:10138000C16841F04001C16010BDFFF755FE10BDBE
:1013900010B5806BFFF751FE10BD0168CA6822F4DA
:1013A0009072CA6001684A6922F001024A612021F4
:1013B00080F83A1070470168CA6822F0C002CA601B
:1013C000202180F8391070472DE9F041044600686B
:1013D0000169E26821F44051114301612169A0686B
:1013E000E26908436169114322680843D16849F200
:1013F0000C6399430143D16020684169A26921F4DB
:10140000407111434161E2696425B2F5004F97488C
:10141000974922684FF032083FD08A4201D0824279
:101420007CD1FFF75FFB00EBC00101EB00106168AE
:101430008900B0FBF1F6FFF755FB00EBC00101EBB3
:10144000001061688900B0FBF1F0B0FBF5F06FF0BF
:101450001801484306EB800108EB0110B0FBF5F0E2
:1014600000F0F006FFF73EFB00EBC00101EB0010BF
:1014700061688900B0FBF1F0B0FBF5F006EB0016F7
:10148000FFF730FB00EBC00101EB00106168890041
:10149000B0FBF1F7FFF726FBD2E08A4201D082428F
:1014A0003DD1FFF71FFB00EBC00101EB00106168AD
:1014B0004900B0FBF1F0B0FBF5F00601FFF712FBBD
:1014C00000EBC00101EB001061684900B0FBF1F7CF
:1014D000FFF708FB00EBC00101EB00106168490059
:1014E000B0FBF1F0B0FBF5F06FF01801484307EBEB
:1014F000800108EBC100B0FBF5F000F0F80006EB4E
:101500004006FFF7EFFA00EBC00101EB0010616845
:101510004900B0FBF1F7FFF7E5FA3CE055E0FFF7D3
:10152000D1FA00EBC00101EB001061684900B0FB8B
:10153000F1F0B0FBF5F00601FFF7C4FA00EBC001D3
:1015400001EB001061684900B0FBF1F7FFF7BAFA50
:1015500000EBC00101EB001061684900B0FBF1F045
:10156000B0FBF5F06FF01801484307EB800108EB82
:10157000C100B0FBF5F000F0F80006EB4006FFF705
:10158000A1FA00EBC00101EB001061684900B0FB5B
:10159000F1F7FFF797FA00EBC00101EB001061686B
:1015A0004900B0FBF1F0B0FBF5F06FF018014843D3
:1015B00007EB800108EBC100B0FBF5F000F007007D
:1015C000216830448860BDE8F081FFF77BFA00EBCA
:1015D000C00101EB001061688900B0FBF1F6FFF774
:1015E00071FA00EBC00101EB001061688900B0FBEB
:1015F000F1F0B0FBF5F06FF01801484306EB800105
:1016000008EB0110B0FBF5F000F0F006FFF75AFA16
:1016100000EBC00101EB001061688900B0FBF1F044
:10162000B0FBF5F006EB0016FFF74CFA00EBC0013B
:1016300001EB001061688900B0FBF1F7FFF742FA97
:1016400000EBC00101EB001061688900B0FBF1F014
:10165000B0FBF5F06FF01801484307EB800108EB91
:101660000110B0FBF5F000F00F00A9E700140140F5
:1016700000100140FEE70907090E002804DB00F115
:10168000E02080F80014704700F00F0000F1E02027
:1016900080F8141D704702E008C8121F08C1002A14
:1016A000FAD170477047002001E001C1121F002AE3
:1016B000FBD1704708B5FFF7D9F8FFF7C1FDFFF779
:1016C000BFFC11480024016841F40011016000686A
:1016D000224600F40010009021461120FFF728F95F
:1016E0001120FFF717F90A48084901604FF4E1316A
:1016F000C0E901140C21C460C0E904418461C461E3
:10170000FFF7D3FBFEE70000303802400044004002
:101710003C00002000061016000610160000000015
:101720000000000001020304060708090000000091
:101730000102030454170008000000203C000000D0
:1017400096160008901700083C000020A404000032
:10175000A6160008204D656D6F727920746F2050B9
:1017600065726970686572616C204461746120748F
:1017700072616E736665720A000000002500000049
:101780000100000010000000000000000024F40030
:040000050800018965
:00000001FF
