:020000040800F2
:1000000000000220390F0008890F0008890F00083E
:10001000890F0008890F0008890F00080000000000
:10002000000000000000000000000000890F000830
:10003000890F000800000000890F0008F90C000873
:10004000890F0008890F0008890F0008890F000830
:10005000890F0008890F0008890F0008890F000820
:10006000890F0008890F0008890F0008890F000810
:10007000890F0008890F0008890F0008890F000800
:10008000890F0008890F0008890F0008890F0008F0
:10009000890F0008890F0008890F0008890F0008E0
:1000A000890F0008890F0008890F0008890F0008D0
:1000B000890F0008890F0008890F0008890F0008C0
:1000C000890F0008890F0008890F0008890F0008B0
:1000D000890F0008890F0008890F0008890F0008A0
:1000E000890F0008890F0008890F0008890F000890
:1000F000890F0008890F0008890F0008890F000880
:10010000890F0008890F0008890F0008890F00086F
:10011000890F0008890F0008050D0008890F0008E5
:10012000890F0008890F0008890F0008890F00084F
:10013000890F0008890F0008890F0008890F00083F
:10014000890F0008890F0008890F0008890F00082F
:10015000890F0008890F0008890F0008890F00081F
:10016000890F0008890F0008890F0008890F00080F
:10017000890F0008890F0008890F0008000000009F
:08018000890F0008890F000837
:1001880010B5054C237833B9044B13B10448AFF3C9
:1001980000800123237010BD2C0000200000000007
:1001A800D40F000808B5034B1BB103490348AFF34C
:1001B800008008BD0000000030000020D40F0008B7
:1001C800034613F8012B002AFBD1181A013870478F
:1001D80010B504460E4B18784FF47A73B3FBF0F35E
:1001E8000C4A1068B0FBF3F000F096F868B90F2CD1
:1001F80001D901200AE0002221464FF0FF3000F02B
:1002080049F8034B5C60002000E0012010BD00BFEE
:10021800000000202800002008B50B4B1A6842F4A3
:1002280000721A601A6842F480621A601A6842F40E
:1002380080721A60032000F01BF80020FFF7C8FF47
:1002480000F0DEFD002008BD003C0240034A1168B2
:10025800034B1B780B441360704700BF4800002015
:1002680000000020014B1868704700BF48000020BC
:10027800074AD36823F4E0631B041B0C000200F454
:10028800E060184340F0BF6040F40030D060704731
:1002980000ED00E030B4174BDB68C3F30223C3F171
:1002A8000704042C28BF04241D1D062D18D9033B60
:1002B8004FF0FF3505FA04F421EA0401994005FAE4
:1002C80003F322EA0303194300280BDB0901C9B22F
:1002D80000F1604000F5614080F8001330BC7047C1
:1002E8000023E5E700F00F000901C9B2024B1954D9
:1002F800F4E700BF00ED00E014ED00E0002807DBA4
:1003080000F01F02400901239340024A42F82030BE
:10031800704700BF00E100E00138B0F1807F0AD2E9
:10032800064B5860064AF02182F823100020986096
:1003380007221A6070470120704700BF10E000E0F4
:1003480000ED00E0704708B5FFF7FCFF08BD0000AE
:1003580000230F2B00F2D780F0B482B039E00722D7
:1003680000E00022B2403A430234674E46F82420A7
:10037800664A1468EA4302EA04064F6817F4803FA5
:1003880001D045EA0406614C2660646802EA040666
:100398004F6817F4003F01D045EA04065B4C6660DD
:1003A800A46802EA04064F6817F4801F01D045EAE2
:1003B8000406564CA660E46822404E6816F4001FF6
:1003C80001D045EA0402514CE26001330F2B00F2E0
:1003D800978001229A400C6804EA0205AA42F4D1E7
:1003E8004C68022C01D0122C10D1DE08083650F8C7
:1003F80026C003F00704A7000F24BC402CEA040C15
:100408000C69BC4044EA0C0440F8264004685F00CC
:100418000326BE40F64306EA040C4C6804F00304C5
:10042800BC4044EA0C0404604C6804F1FF3CBCF195
:10043800010F03D9112C01D0122C10D1846806EABF
:10044800040CCC68BC4044EA0C048460446824EA88
:1004580002024C68C4F300149C4014434460C26810
:1004680016408A68BA403243C2604A6812F0805F18
:10047800ABD000220192264A546C44F48044546460
:10048800526C02F480420192019A9C08A61C1E4AF2
:1004980052F8267003F0030296000F22B24027EAB2
:1004A80002071C4A90423FF45CAF02F5806290421A
:1004B8001AD002F58062904218D002F5806290420C
:1004C80016D002F58062904214D002F58062904204
:1004D80012D002F58062904210D002F580629042FC
:1004E8003FF43DAF08223DE701223BE7022239E70E
:1004F800032237E7042235E7052233E7062231E7EE
:1005080002B0F0BC7047704700380140003C014021
:100518000038024000000240436931EA030301D079
:10052800816170470904816170470000014B1868B8
:10053800704700BF2800002008B5FFF7F7FF044BFD
:100548009B68C3F38223034AD35CD84008BD00BF2D
:1005580000380240FC0F000808B5FFF7E7FF044B1E
:100568009B68C3F34233034AD35CD84008BD00BF3D
:1005780000380240FC0F00080268D36843F001030A
:10058800D3600268936803F00703062B03D013684F
:1005980043F00103136000207047704770477047AD
:1005A800704710B5044603681A6912F0020F11D09B
:1005B800DA6812F0020F0DD06FF002021A610123FF
:1005C800037703689B6913F0030F70D0FFF7E6FF0A
:1005D8000023237723681A6912F0040F12D0DA680F
:1005E80012F0040F0ED06FF004021A610223237771
:1005F80023689B6913F4407F5FD02046FFF7CEFF46
:100608000023237723681A6912F0080F12D0DA68DA
:1006180012F0080F0ED06FF008021A610423237736
:100628002368DB6913F0030F4ED02046FFF7B6FFAF
:100638000023237723681A6912F0100F12D0DA68A2
:1006480012F0100F0ED06FF010021A6108232377F2
:100658002368DB6913F4407F3DD02046FFF79EFFF7
:100668000023237723681A6912F0010F03D0DA6890
:1006780012F0010F36D123681A6912F0800F03D0E7
:10068800DA6812F0800F34D123681A6912F0400F2B
:1006980003D0DA6812F0400F32D123681A6912F0D9
:1006A800200F03D0DA6812F0200F30D110BDFFF709
:1006B80074FF2046FFF773FF8AE72046FFF76DFFB8
:1006C8002046FFF76CFF9BE72046FFF766FF2046B2
:1006D800FFF765FFACE72046FFF75FFF2046FFF70F
:1006E8005EFFBDE76FF001021A61204600F070FB63
:1006F800C1E76FF080021A61204600F08DF8C3E769
:100708006FF040021A612046FFF74AFFC5E76FF015
:1007180020021A61204600F07EF8C7E70368304AD5
:10072800904212D0B0F1804F0FD0A2F57C42904297
:100738000BD002F58062904207D002F580629042A9
:1007480003D002F57842904203D123F070034A683F
:100758001343234A90422AD0B0F1804F27D0A2F504
:100768007C42904223D002F5806290421FD002F56D
:10077800806290421BD002F57842904217D002F571
:100788007052904213D002F5806290420FD002F569
:10079800806290420BD0A2F59832904207D002F5C1
:1007A8008062904203D002F58062904203D123F424
:1007B8004073CA68134323F080034A6913430360F4
:1007C8008B68C3620B688362054B984203D003F5BC
:1007D8008063984201D10B69036301234361704729
:1007E80000000140A8B110B5044690F83D305BB157
:1007F800022384F83D30211D2068FFF78FFF012375
:1008080084F83D30002010BD80F83C3000F016FB25
:10081800EEE7012070477047704700002DE9F84364
:1008280004460268136923F44053C1680B431361FB
:1008380083680269134342691343C2691A43016812
:10084800CB6823F4164323F00C031343CB600268F0
:10085800536923F4407381690B435361C369B3F54A
:10086800004F60D00368B84A934200F0148102F543
:100878008062934200F00F81FFF75EFE00EB80007C
:1008880000EB80006568AD00B0FBF5F5AF4FA7FB46
:1008980005356D092E01FFF74FFE00EB800000EBD8
:1008A80080006568AD00B0FBF5F9FFF745FE00EB89
:1008B800800000EB80006568AD00B0FBF5F5A7FB94
:1008C80005356D094FF0640808FB15952D01323583
:1008D800A7FB05356D0905F0F0053544FFF72CFE3B
:1008E80000EB800000EB80006668B600B0FBF6F60F
:1008F800FFF722FE00EB800000EB800063689B009E
:10090800B0FBF3F0A7FB0030400908FB10684FEA82
:10091800081808F13208A7FB0837C7F343172368FC
:100928002F449F600DE10368874A93425BD002F52C
:100938008062934257D0FFF7FFFD00EB800000EB89
:10094800800065686D00B0FBF5F5804FA7FB0535A5
:100958006D092E01FFF7F0FD00EB800000EB800031
:1009680065686D00B0FBF5F9FFF7E6FD00EB800068
:1009780000EB800065686D00B0FBF5F5A7FB053559
:100988006D094FF0640808FB1595ED003235A7FB9B
:1009980005356D096D0005F4F8753544FFF7CCFD94
:1009A80000EB800000EB800066687600B0FBF6F68E
:1009B800FFF7C2FD00EB800000EB800063685B007E
:1009C800B0FBF3F3A7FB03235B0908FB13684FEAAB
:1009D800C80808F13208A7FB0837C7F3421723688D
:1009E8002F449F60ADE0FFF7B7FD00EB800000EB00
:1009F800800065686D00B0FBF5F5544FA7FB053521
:100A08006D092E01FFF7A8FD00EB800000EB8000C8
:100A180065686D00B0FBF5F9FFF79EFD00EB8000FF
:100A280000EB800065686D00B0FBF5F5A7FB0535A8
:100A38006D094FF0640808FB1595ED003235A7FBEA
:100A480005356D096D0005F4F8753544FFF784FD2B
:100A580000EB800000EB800066687600B0FBF6F6DD
:100A6800FFF77AFD00EB800000EB800063685B0015
:100A7800B0FBF3F3A7FB03235B0908FB13684FEAFA
:100A8800C80808F13208A7FB0837C7F342172368DC
:100A98002F449F6055E0FFF75FFD00EB800000EBFF
:100AA80080006568AD00B0FBF5F5284FA7FB05355C
:100AB8006D092E01FFF750FD00EB800000EB800070
:100AC8006568AD00B0FBF5F9FFF746FD00EB800067
:100AD80000EB80006568AD00B0FBF5F5A7FB0535B8
:100AE8006D094FF0640808FB15952D013235A7FBF9
:100AF80005356D0905F0F0053544FFF72DFD00EBD0
:100B0800800000EB80006668B600B0FBF6F6FFF7E1
:100B180023FD00EB800000EB800063689B00B0FBC6
:100B2800F3F0A7FB0030400908FB10684FEA0818EB
:100B380008F13208A7FB0837C7F3431723682F4487
:100B48009F60BDE8F88300BF001001401F85EB518E
:100B58002DE9F04105460F4616469846069C2B6837
:100B68001B6837EA03030CBF01230023B3421DD1DE
:100B7800B4F1FF3FF3D02CB1FFF774FBA0EB0800F2
:100B8800A042ECD92A68D36823F4D073D3602A68CA
:100B9800536923F001035361202385F8393085F820
:100BA8003A30002385F83830032000E00020BDE803
:100BB800F08158B310B5044690F839300BB32423AC
:100BC80084F839302268D36823F40053D360204670
:100BD800FFF724FE2268136923F490431361226807
:100BE800536923F02A0353612268D36843F40053FE
:100BF800D3600020E063202384F8393084F83A3049
:100C080010BD80F8383000F033F9D8E7012070477C
:100C18002DE9F04182B01E4690F83930DBB2202B26
:100C280055D104460D469046002955D0002A55D086
:100C380090F83830012B53D0012380F83830002346
:100C4800C363212380F83930FFF70CFB0746A4F86B
:100C58002480A4F8268010E000963B4600228021DC
:100C68002046FFF775FF00283CD12B882268C3F384
:100C7800080353602369C3B90235E38C9BB2B3B14F
:100C8800E38C013B9BB2E384A368B3F5805FE3D0B8
:100C980000963B46002280212046FFF759FF18BBEB
:100CA8002A7823685A600135E7E70135E5E70096B9
:100CB8003B46002240212046FFF74AFF0346A8B9D9
:100CC800202284F83920002284F8382000E002230A
:100CD800184602B0BDE8F0810123F9E70123F7E7E0
:100CE8000223F5E70323F3E70323F1E70323EFE701
:100CF80008B5FFF7ABFAFFF726FB08BD08B50248B1
:100D0800FFF74FFC08BD00BF4C000020FEE70000C5
:100D180008B50748074B036041F2873343601F2338
:100D2800C360FFF75FFD00B908BDFFF7EFFF00BF25
:100D38004C0000200010004000B587B00021009151
:100D48000B4B1A6B42F008021A631B6B03F0080383
:100D58000093009B4FF48053019301230293039166
:100D680001A90448FFF7F4FA07B05DF804FB00BFD7
:100D780000380240000C024008B50948094B0360DE
:100D88004FF4E133436000238360C36003618361F0
:100D98000C234361FFF70DFF00B908BDFFF7B6FF4D
:100DA8008C0000200044004008B5FFF735FAFFF733
:100DB800AFFFFFF7C1FFFFF7DFFF034B00221A6108
:100DC8000248FFF7D9FBFEE7001000404C00002066
:100DD80010B5084C2046FFF7F3F94FF0FF3382B205
:100DE80021460548FFF714FF4FF480510348FFF7E9
:100DF80093FB10BD080000208C000020000C02406E
:100E080008B50320FFF734FA0B4A536A43F4E0238A
:100E18005362002211466FF00B00FFF73BFA0022E5
:100E280011466FF00A00FFF735FA002211466FF0FD
:100E38000900FFF72FFA08BD00ED00E010B582B0F9
:100E480000240194094B1A6C42F010021A641B6CBE
:100E580003F010030193019B3620FFF74FFA224657
:100E68000F213620FFF716FA02B010BD00380240F5
:100E780030B589B000240194184B1A6C42F4003242
:100E88001A641A6C02F400320192019A02941A6BE5
:100E980042F001021A631B6B03F001030293029BE9
:100EA8000423039302230493012305930694072341
:100EB80007930B4D03A92846FFF74AFA0823039323
:100EC80003A92846FFF744FA2620FFF717FA224617
:100ED8000F212620FFF7DEF909B030BD00380240A7
:100EE800000002400F49D1F8883043F47003C1F87C
:100EF80088300D4B1A6842F001021A600020986091
:100F08001A6822F0847222F480321A60074A5A6002
:100F18001A6822F480221A60D8604FF000638B6050
:100F2800704700BF00ED00E0003802401030002498
:100F3800DFF834D0002103E00C4B5B5843500431F8
:100F48000B480C4B42189A42F6D30B4A02E0002396
:100F580042F8043B094B9A42F9D3FFF7C3FF00F06C
:100F680011F8FFF721FF7047000002200C1000085D
:100F7800000000202C0000202C000020CC000020C5
:100F8800FEE7000070B50D4E0D4CA41BA410002503
:100F9800A54209D10B4E0C4C00F018F8A41BA41064
:100FA8000025A54205D170BD56F825309847013572
:100FB800EEE756F8253098470135F2E704100008A7
:100FC800041000080410000808100008F8B500BF55
:100FD800F8BC08BC9E467047F8B500BFF8BC08BC12
:040FE8009E4670476A
:100FEC0000000000000000000102030406070809CD
:080FFC000000000001020304E3
:04100400AD01000832
:041008008901000852
:10100C00010000001000000057652061726520741B
:10101C00657374696E6720534C4545504F4E455867
:0C102C004954200A000000000024F400D9
:0400000508000F39A7
:00000001FF
