:020000040800F2
:1000000000000220AD160008491600084B16000833
:100010004D1600084F160008511600080000000099
:10002000000000000000000000000000531600085F
:100030005516000800000000571600085916000861
:10004000FD160008FD160008FD160008FD16000844
:10005000FD160008FD160008FD160008FD16000834
:10006000FD160008FD160008FD160008FD16000824
:10007000FD160008FD160008FD160008FD16000814
:10008000FD160008FD160008FD160008FD16000804
:10009000FD160008FD160008FD160008FD160008F4
:1000A000FD160008FD160008FD160008FD160008E4
:1000B000FD160008FD160008FD160008FD160008D4
:1000C000FD160008FD160008FD160008FD160008C4
:1000D000FD160008FD160008FD160008FD160008B4
:1000E000FD160008FD160008FD160008FD160008A4
:1000F000FD160008FD160008FD160008FD16000894
:10010000FD160008FD160008FD160008FD16000883
:10011000FD160008FD160008FD160008FD16000873
:10012000FD160008FD160008FD160008FD16000863
:10013000FD160008FD160008FD160008FD16000853
:10014000FD160008FD160008FD160008FD16000843
:10015000FD160008FD160008FD160008FD16000833
:10016000FD160008FD160008FD160008FD16000823
:10017000FD160008FD160008FD160008000000002E
:08018000FD160008FD16000841
:1001880010B5054C237833B9044B13B10448AFF3C9
:1001980000800123237010BD0C0000200000000027
:1001A8005817000808B5034B1BB103490348AFF3C0
:1001B800008008BD0000000010000020581700084B
:1001C80053B94AB9002908BF00281CBF4FF0FF31B6
:1001D8004FF0FF3000F072B9ADF1080C6DE904CEB4
:1001E80000F006F8DDF804E0DDE9022304B070470A
:1001F8002DE9F047089E04468846002B4BD18A42D9
:10020800154667D9B2FA82F24AB1C2F1200701FA5B
:1002180002F320FA07F7954047EA030894404FEAAB
:10022800154E230CB8FBFEF71FFA85FC0EFB17884A
:1002380043EA084307FB0CF1994209D9EB1807F187
:10024800FF3080F01B81994240F21881023F2B4415
:100258005B1AA4B2B3FBFEF00EFB103344EA03446E
:1002680000FB0CFCA44509D92C1900F1FF3380F0E0
:100278000781A44540F2048102382C4440EA074033
:10028800A4EB0C0400271EB1D4400023C6E90043A8
:100298003946BDE8F0878B4209D9002E00F0EB8083
:1002A8000027C6E9000138463946BDE8F087B3FAA9
:1002B80083F7002F47D18B4202D3824200F2FA80A3
:1002C800841A61EB030301209846002EE0D0C6E9AA
:1002D8000048DDE702B9FFDEB2FA82F2002A40F0F8
:1002E8008F80491B4FEA154E1FFA85F80127B1FB8D
:1002F800FEFC230C0EFB1C1143EA014308FB0CF126
:10030800994207D9EB180CF1FF3002D2994200F25A
:10031800CD808446591AA3B2B1FBFEF00EFB10142F
:1003280043EA044408FB00F8A04507D92C1900F15A
:10033800FF3302D2A04500F2B6801846A4EB0804A9
:1003480040EA0C409FE7C7F1200CBB4022FA0CFEA4
:100358004EEA030E01FA07F420FA0CF521FA0CF321
:100368004FEA1E482543B3FBF8F92C0C08FB193358
:100378001FFA8EFA44EA034309FB0AF49C4202FA84
:1003880007F200FA07F10BD91EEB030309F1FF305E
:1003980080F087809C4240F28480A9F1020973446E
:1003A8001B1BADB2B3FBF8F008FB103345EA03445E
:1003B80000FB0AFAA24508D91EEB040400F1FF333A
:1003C8006BD2A24569D90238744440EA0940A0FBBF
:1003D8000289A4EB0A044C45C2464B4654D351D07B
:1003E800002E69D0B1EB0A0564EB030404FA0CFC97
:1003F800FD40FC404CEA0505C6E90054002747E7E4
:10040800C2F1200320FA03F7954001FA02F021FA1D
:1004180003F34FEA154E3843010CB3FBFEF71FFAFE
:1004280085F80EFB173341EA034107FB08F38B42BB
:1004380004FA02F407D9691807F1FF3C2FD28B425E
:100448002DD9023F2944CB1A81B2B3FBFEF00EFB33
:10045800103341EA034100FB08F38B4207D96918BE
:1004680000F1FF3C17D28B4215D902382944C91A2A
:1004780040EA07473BE73746304609E70746E7E6DD
:100488001846FBE64145ABD2B8EB020A69EB0E020F
:1004980001381346A4E76046E9E7184695E767463A
:1004A800D1E781467CE702382C4447E7ACF1020CDF
:1004B8002B442FE7384608E73746E9E6704700BF80
:1004C80010B504460E4B18784FF47A73B3FBF0F36B
:1004D8000C4A1068B0FBF3F000F088F868B90F2CEC
:1004E80001D901200AE0002221464FF0FF3000F038
:1004F80049F8034B5C60002000E0012010BD00BFFC
:10050800000000200800002008B50B4B1A6842F4D0
:1005180000721A601A6842F480621A601A6842F41B
:1005280080721A60032000F01BF80020FFF7C8FF54
:1005380000F0F6FF002008BD003C0240034A1168A5
:10054800034B1B780B441360704700BF2800002042
:1005580000000020014B1868704700BF28000020E9
:10056800074AD36823F4E0631B041B0C000200F461
:10057800E060184340F0BF6040F40030D06070473E
:1005880000ED00E030B4174BDB68C3F30223C3F17E
:100598000704042C28BF04241D1D062D18D9033B6D
:1005A8004FF0FF3505FA04F421EA0401994005FAF1
:1005B80003F322EA0303194300280BDB0901C9B23C
:1005C80000F1604000F5614080F8001330BC7047CE
:1005D8000023E5E700F00F000901C9B2024B1954E6
:1005E800F4E700BF00ED00E014ED00E00138B0F1E1
:1005F800807F0AD2064B5860064AF02182F8231001
:100608000020986007221A6070470120704700BFD9
:1006180010E000E000ED00E000230F2B00F2D7808F
:10062800F0B482B039E0072200E00022B2403A4339
:100638000234674E46F82420664A1468EA4302EA00
:1006480004064F6817F4803F01D045EA0406614C60
:100658002660646802EA04064F6817F4003F01D078
:1006680045EA04065B4C6660A46802EA04064F6823
:1006780017F4801F01D045EA0406564CA660E468CA
:1006880022404E6816F4001F01D045EA0402514C7E
:10069800E26001330F2B00F2978001229A400C6828
:1006A80004EA0205AA42F4D14C68022C01D0122CAB
:1006B80010D1DE08083650F826C003F00704A7005A
:1006C8000F24BC402CEA040C0C69BC4044EA0C041E
:1006D80040F8264004685F000326BE40F64306EA59
:1006E800040C4C6804F00304BC4044EA0C040460A5
:1006F8004C6804F1FF3CBCF1010F03D9112C01D067
:10070800122C10D1846806EA040CCC68BC4044EA78
:100718000C048460446824EA02024C68C4F30014A0
:100728009C4014434460C26816408A68BA40324309
:10073800C2604A6812F0805FABD000220192264A5C
:10074800546C44F480445464526C02F48042019224
:10075800019A9C08A61C1E4A52F8267003F0030250
:1007680096000F22B24027EA02071C4A90423FF443
:100778005CAF02F5806290421AD002F58062904226
:1007880018D002F58062904216D002F5806290423D
:1007980014D002F58062904212D002F58062904235
:1007A80010D002F5806290423FF43DAF08223DE749
:1007B80001223BE7022239E7032237E7042235E723
:1007C800052233E7062231E702B0F0BC70477047D4
:1007D80000380140003C014000380240000002405F
:1007E80012B909048161704781617047002800F0DF
:1007F800BB8170B582B00446036813F0010F3BD08B
:10080800A74B9B6803F00C03042B2CD0A44B9B68CC
:1008180003F00C03082B21D06368B3F5803F4FD059
:10082800B3F5A02F52D09E4B1A6822F480321A607A
:100838001A6822F480221A606368002B50D0FFF7F0
:1008480089FE0546964B1B6813F4003F14D1FFF749
:1008580081FE401B6428F5D903208AE1904B5B6830
:1008680013F4800FD8D08E4B1B6813F4003F03D0CD
:100878006368002B00F07A81236813F0020F55D0CB
:10088800874B9B6813F00C0F3ED0854B9B6803F099
:100898000C03082B33D0E368002B68D0814B01226E
:1008A8001A60FFF757FE05467D4B1B6813F0020FD1
:1008B80054D1FFF74FFE401B0228F5D9032058E119
:1008C800774A136843F480331360B5E7744B1A68AA
:1008D80042F480221A601A6842F480321A60ABE748
:1008E800FFF738FE05466E4B1B6813F4003FC3D074
:1008F800FFF730FE401B6428F5D9032039E1684B27
:100908005B6813F4800FC6D1654B1B6813F0020FA8
:1009180004D0E368012B01D001202AE1604A136862
:1009280023F0F803216943EAC1031360236813F035
:10093800080F40D0636963B35B4B01221A60FFF76D
:1009480009FE0546564B5B6F13F0020F33D1FFF7D4
:1009580001FE401B0228F5D903200AE1504A13681A
:1009680023F0F803216943EAC1031360DEE74D4B26
:1009780000221A60FFF7EEFD0546494B1B6813F08D
:10098800020FD3D0FFF7E6FD401B0228F5D903205C
:10099800EFE0454B00221A60FFF7DCFD0546404BAF
:1009A8005B6F13F0020F06D0FFF7D4FD401B02283F
:1009B800F5D90320DDE0236813F0040F79D0384B14
:1009C8001B6C13F0805F33D100230193344B1A6CF6
:1009D80042F080521A641B6C03F080530193019B10
:1009E8000125324B1B6813F4807F23D0A368012BA9
:1009F80034D0052B38D02A4B1A6F22F001021A671F
:100A08001A6F22F004021A67A368002B36D0FFF78A
:100A1800A1FD0646224B1B6F13F0020F48D1FFF7CA
:100A280099FD801B41F288339842F3D90320A0E056
:100A38000025D6E71D4A136843F480731360FFF757
:100A480089FD0646194B1B6813F4807FCED1FFF74A
:100A580081FD801B0228F5D903208AE0104A136F14
:100A680043F001031367CFE70D4B1A6F42F00402FE
:100A78001A671A6F42F001021A67C5E7FFF76AFDA5
:100A88000646074B1B6F13F0020F11D0FFF762FDEC
:100A9800801B41F288339842F3D9032069E000BFF4
:100AA8000038024000004742800E47420070004074
:100AB800E5B9A369002B5BD0304A926802F00C02BA
:100AC800082A58D0022B17D02D4B00221A60FFF7A6
:100AD80041FD0446294B1B6813F0007F42D0FFF705
:100AE80039FD001B0228F5D9032042E0234A136C84
:100AF80023F080531364DCE7214B00221A60FFF7D0
:100B080029FD05461D4B1B6813F0007F06D0FFF733
:100B180021FD401B0228F5D903202AE0E369226A57
:100B28001343626A43EA8213A26A5208013A43EA0B
:100B38000243E26A43EA0263104A5360104B0122FF
:100B48001A60FFF707FD04460C4B1B6813F0007F83
:100B580006D1FFF7FFFC001B0228F5D9032008E0A7
:100B6800002006E0002004E001207047012000E09A
:100B7800002002B070BD0120FBE700BF0038024032
:100B880060004742324B9B6803F00C03042B5CD097
:100B9800082B01D02F4870472DE9F04B2C4B5A6891
:100BA80002F03F025B6813F4800F2BD0284B5B6880
:100BB800C3F388131E4600275C010025E41A65EB81
:100BC8000705A90141EA9461A001001B61EB050139
:100BD800CB0043EA5073C400A01943EB07014B0252
:100BE80043EAD0534402204619460023FFF7E8FAA7
:100BF800174B5B68C3F3014301335B00B0FBF3F0B1
:100C0800BDE8F08B124B5B68C3F388131E460027C0
:100C18005C010025E41A65EB0705A90141EA946126
:100C2800A001001B61EB0501CB0043EA5073C4002F
:100C3800A01943EB07018B0243EA90538402204634
:100C480019460023FFF7BCFAD2E70348704700BFF4
:100C5800003802400024F40000127A00002800F056
:100C68009D8070B504464F4B1B6803F00F038B4201
:100C780009D2CBB24B4A1370136803F00F038B42AF
:100C880001D0012070BD236813F0020F17D013F0B4
:100C9800040F04D0444A936843F4E05393602368F4
:100CA80013F0080F04D0404A936843F460439360FC
:100CB8003D4A936823F0F003A068034393600D4610
:100CC800236813F0010F32D06368012B21D09A1EDC
:100CD800012A25D9344A126812F0020F60D032492D
:100CE8008A6822F0030213438B60FFF733FC064641
:100CF8002D4B9B6803F00C036268B3EB820F16D090
:100D0800FFF728FC801B41F288339842F0D9032072
:100D1800B8E7254A126812F4003FE0D10120B1E794
:100D2800214A126812F0007FD9D10120AAE71D4B91
:100D38001B6803F00F03AB4209D9EAB2194B1A70CA
:100D48001B6803F00F03AB4201D001209AE7236828
:100D580013F0040F06D0144A936823F4E053E168B3
:100D68000B439360236813F0080F07D00E4A93686B
:100D780023F46043216943EAC1039360FFF702FF4C
:100D8800094B9B68C3F30313084AD35CD840084B4C
:100D980018600020FFF794FB002073E701207047DC
:100DA80001206FE7003C024000380240701700083D
:100DB80008000020014B1868704700BF0800002099
:100DC80008B5FFF7F7FF044B9B68C3F38223034A78
:100DD800D35CD84008BD00BF003802408017000827
:100DE80008B5FFF7E7FF044B9B68C3F34233034A98
:100DF800D35CD84008BD00BF003802408017000807
:100E080000283BD010B504460023836290F8513087
:100E1800002B2ED0022384F851302268136823F067
:100E2800400313606368A2681343E26813432269AE
:100E3800134362691343A26902F400721343E2691F
:100E48001343226A1343A16A22680B431360638B1E
:100E580003F00403616A22680B4353602268D36974
:100E680023F40063D36100206065012384F85130C6
:100E780010BD80F8503000F073FBCBE701207047BD
:100E88002DE9F84304460268136923F44053C16806
:100E98000B43136183680269134342691343C269B0
:100EA8001A430168CB6823F4164323F00C03134359
:100EB800CB600268536923F4407381690B43536123
:100EC800C369B3F5004F60D00368B84A934200F095
:100ED800148102F58062934200F00F81FFF770FFE2
:100EE80000EB800000EB80006568AD00B0FBF5F515
:100EF800AF4FA7FB05356D092E01FFF761FF00EB2A
:100F0800800000EB80006568AD00B0FBF5F9FFF7E5
:100F180057FF00EB800000EB80006568AD00B0FB78
:100F2800F5F5A7FB05356D094FF0640808FB159525
:100F38002D013235A7FB05356D0905F0F00535445F
:100F4800FFF73EFF00EB800000EB80006668B6000C
:100F5800B0FBF6F6FFF734FF00EB800000EB8000F3
:100F680063689B00B0FBF3F0A7FB0030400908FB67
:100F780010684FEA081808F13208A7FB0837C7F3CA
:100F8800431723682F449F600DE10368874A934203
:100F98005BD002F58062934257D0FFF711FF00EB58
:100FA800800000EB800065686D00B0FBF5F5804FB0
:100FB800A7FB05356D092E01FFF702FF00EB800046
:100FC80000EB800065686D00B0FBF5F9FFF7F8FEEF
:100FD80000EB800000EB800065686D00B0FBF5F564
:100FE800A7FB05356D094FF0640808FB1595ED0062
:100FF8003235A7FB05356D096D0005F4F8753544E4
:10100800FFF7DEFE00EB800000EB800066687600EC
:10101800B0FBF6F6FFF7D4FE00EB800000EB800093
:1010280063685B00B0FBF3F3A7FB03235B0908FBD2
:1010380013684FEAC80808F13208A7FB0837C7F356
:10104800421723682F449F60ADE0FFF7C9FE00EB0D
:10105800800000EB800065686D00B0FBF5F5544F2B
:10106800A7FB05356D092E01FFF7BAFE00EB8000DE
:1010780000EB800065686D00B0FBF5F9FFF7B0FE86
:1010880000EB800000EB800065686D00B0FBF5F5B3
:10109800A7FB05356D094FF0640808FB1595ED00B1
:1010A8003235A7FB05356D096D0005F4F875354433
:1010B800FFF796FE00EB800000EB80006668760084
:1010C800B0FBF6F6FFF78CFE00EB800000EB80002B
:1010D80063685B00B0FBF3F3A7FB03235B0908FB22
:1010E80013684FEAC80808F13208A7FB0837C7F3A6
:1010F800421723682F449F6055E0FFF771FE00EB0D
:10110800800000EB80006568AD00B0FBF5F5284F66
:10111800A7FB05356D092E01FFF762FE00EB800085
:1011280000EB80006568AD00B0FBF5F9FFF758FEED
:1011380000EB800000EB80006568AD00B0FBF5F5C2
:10114800A7FB05356D094FF0640808FB15952D01BF
:101158003235A7FB05356D0905F0F0053544FFF775
:101168003FFE00EB800000EB80006668B600B0FB35
:10117800F6F6FFF735FE00EB800000EB80006368B1
:101188009B00B0FBF3F0A7FB0030400908FB106898
:101198004FEA081808F13208A7FB0837C7F34317C6
:1011A80023682F449F60BDE8F88300BF001001400A
:1011B8001F85EB5158B310B5044690F839300BB37E
:1011C800242384F839302268D36823F40053D36089
:1011D8002046FFF755FE2268136923F490431361F4
:1011E8002268536923F02A0353612268D36843F4C1
:1011F8000053D3600020E063202384F8393084F85A
:101208003A3010BD80F8383000F0E0F9D8E7012016
:10121800704700002DE9F04F8DB000240794089422
:1012280009940A940B940194714B1A6B42F01002C2
:101238001A631A6B02F010020192019A02941A6B57
:1012480042F004021A631A6B02F004020292029A34
:1012580003941A6B42F080021A631A6B02F0800240
:101268000392039A04941A6B42F001021A631A6BF0
:1012780002F001020492049A05941A6B42F00202E9
:101288001A631A6B02F002020592059A06941A6B09
:1012980042F008021A631B6B03F008030693069BCF
:1012A800224608215348FFF79BFA534F0122114663
:1012B8003846FFF795FA22464FF210014F48FFF7DC
:1012C8008FFA082507950126089609940A9407A914
:1012D8004848FFF7A1F90796089609940A9407A9C0
:1012E8003846FFF799F907950225089509940A9455
:1012F8004FF0050BCDF82CB007A93846FFF78CF94D
:101308000796DFF80481CDF82080099407A93C48A6
:10131800FFF782F910230793089509940A944FF070
:10132800060ACDF82CA007A93548FFF775F94FF044
:101338000409CDF81C900894099407A93148FFF7CF
:101348006BF94FF480630793089509940A94CDF8D4
:101358002CB007A92B48FFF75FF94FF2100307934A
:10136800089609940A9407A92448FFF755F94FF4F9
:10137800A4530793089509940A94CDF82CA007A9BB
:101388003846FFF749F94FF4007307930894099416
:1013980007A91B48FFF740F94FF4E0530793089556
:1013A80009940A940A230B9307A91548FFF734F9FF
:1013B800202307930894099407A91048FFF72CF9EC
:1013C8004FF4107307931223089309960A94CDF8E3
:1013D8002C9007A90B48FFF71FF90795CDF8208037
:1013E800099407A90348FFF717F90DB0BDE8F08F76
:1013F800003802400010024000080240000C024081
:1014080000000240000402400000121008B50B481A
:101418000B4B03604FF48273436000238360C36007
:10142800036143614FF400728261C36103624362E6
:1014380083620A23C362FFF7E3FC08BD2C00002087
:101448000030014008B50848084B03604FF4E13309
:10145800436000238360C36003610C22426183619F
:10146800C361FFF7A7FE08BD8400002000440040C8
:1014780030B595B03022002108A800F061F90024A9
:101488000394049405940694079401941C4B1A6CD5
:1014980042F080521A641B6C03F080530193019B45
:1014A8000294184B1A6842F480421A601B6803F4CD
:1014B80080430293029B012308934FF480330993DE
:1014C80002250E954FF480030F93082310934FF4D1
:1014D800A873119312950723139308A8FFF786F9A9
:1014E8000F230393049505944FF4A05306934FF4E8
:1014F80080530793052103A8FFF7B0FB15B030BD53
:10150800003802400070004008B5FEF7FDFFFFF705
:10151800AFFFFFF77FFEFFF779FFFFF793FFFEE7C7
:1015280000B583B0002100910C4B5A6C42F4804204
:101538005A645A6C02F480420092009A01911A6C23
:1015480042F080521A641B6C03F080530193019B94
:101558000720FFF705F803B05DF804FB00380240E8
:1015680000B589B00023039304930593069307936A
:101578000268144B9A4202D009B05DF804FB0021BE
:10158800019103F584335A6C42F480525A645A6CC0
:1015980002F480520192019A02911A6B42F0010200
:1015A8001A631B6B03F001030293029BE02303936E
:1015B800022304930523079303A90348FFF72CF894
:1015C800DAE700BF003001400000024000B589B0F2
:1015D8000023039304930593069307930268164B1D
:1015E8009A4202D009B05DF804FB0021019103F58D
:1015F800FA331A6C42F400321A641A6C02F400329C
:101608000192019A02911A6B42F001021A631B6B54
:1016180003F001030293029B0C2303930223049318
:1016280001230593032306930723079303A903487C
:10163800FEF7F2FFD6E700BF00440040000002407A
:101648007047FEE7FEE7FEE7FEE770477047704722
:1016580008B5FEF773FF08BD0F49D1F8883043F489
:101668007003C1F888300D4B1A6842F001021A6005
:10167800002098601A6822F0847222F480321A607E
:10168800074A5A601A6822F480221A60D8604FF01C
:1016980000638B60704700BF00ED00E00038024037
:1016A80010300024DFF834D0002103E00C4B5B58E5
:1016B800435004310B480C4B42189A42F6D30B4A5C
:1016C80002E0002342F8043B094B9A42F9D3FFF7A2
:1016D800C3FF00F011F8FFF717FF70470000022062
:1016E80098170008000000200C0000200C000020C3
:1016F800C4000020FEE7000070B50D4E0D4CA41B81
:10170800A4100025A54209D10B4E0C4C00F020F87E
:10171800A41BA4100025A54205D170BD56F825309C
:1017280098470135EEE756F8253098470135F2E736
:1017380090170008901700089017000894170008E1
:1017480002440346934200D1704703F8011BF9E7AE
:10175800F8B500BFF8BC08BC9E467047F8B500BF96
:08176800F8BC08BC9E46704766
:101770000000000000000000010203040607080941
:08178000000000000102030457
:0817880070EAFF7F0100000080
:04179000AD0100089F
:0417940089010008BF
:0C17980001000000100000000024F4001C
:04000005080016AD2C
:00000001FF
