:020000040800F2
:1000000000000220150B0008650B0008650B0008B6
:10001000650B0008650B0008650B00080000000078
:10002000000000000000000000000000650B000858
:10003000650B000800000000650B0008FF080008C1
:10004000650B0008650B0008650B0008650B0008D0
:10005000650B0008650B0008650B0008650B0008C0
:10006000650B0008650B0008650B0008650B0008B0
:10007000650B0008650B0008650B0008650B0008A0
:10008000650B0008650B0008650B0008650B000890
:10009000650B0008650B0008650B0008650B000880
:1000A000650B0008650B0008650B0008650B000870
:1000B000650B0008650B0008650B0008650B000860
:1000C000650B0008650B0008650B0008650B000850
:1000D000650B0008650B0008650B0008650B000840
:1000E000650B0008650B0008650B0008650B000830
:1000F000650B0008650B0008650B0008650B000820
:10010000650B0008650B0008650B0008650B00080F
:10011000650B0008650B0008650B0008650B0008FF
:10012000650B0008650B0008650B0008650B0008EF
:10013000650B0008650B0008650B0008650B0008DF
:10014000650B0008650B0008650B0008650B0008CF
:10015000650B0008650B0008650B0008650B0008BF
:10016000650B0008650B0008650B0008650B0008AF
:10017000650B0008650B0008650B00080000000017
:08018000650B0008650B000887
:1001880010B5054C237833B9044B13B10448AFF3C9
:1001980000800123237010BD2C0000200000000007
:1001A800B00B000808B5034B1BB103490348AFF374
:1001B800008008BD0000000030000020B00B0008DF
:1001C800034613F8012B002AFBD1181A013870478F
:1001D80010B504460E4B18784FF47A73B3FBF0F35E
:1001E8000C4A1068B0FBF3F000F090F868B90F2CD7
:1001F80001D901200AE0002221464FF0FF3000F02B
:1002080043F8034B5C60002000E0012010BD00BFF4
:10021800000000202800002008B50B4B1A6842F4A3
:1002280000721A601A6842F480621A601A6842F40E
:1002380080721A60032000F015F80020FFF7C8FF4D
:1002480000F0E2FB002008BD003C0240034A1168B0
:10025800034B1B780B441360704700BF4800002015
:1002680000000020074AD36823F4E0631B041B0C3A
:10027800000200F4E060184340F0BF6040F4003032
:10028800D060704700ED00E030B4174BDB68C3F373
:100298000223C3F10704042C28BF04241D1D062DC6
:1002A80018D9033B4FF0FF3505FA04F421EA04019D
:1002B800994005FA03F322EA0303194300280BDBEC
:1002C8000901C9B200F1604000F5614080F80013EF
:1002D80030BC70470023E5E700F00F000901C9B200
:1002E800024B1954F4E700BF00ED00E014ED00E004
:1002F800002807DB00F01F02400901239340024A4F
:1003080042F82030704700BF00E100E00138B0F14A
:10031800807F0AD2064B5860064AF02182F82310E3
:100328000020986007221A6070470120704700BFBC
:1003380010E000E000ED00E0704708B5FFF7FCFFB3
:1003480008BD000000230F2B00F2D780F0B482B064
:1003580039E0072200E00022B2403A430234674EF7
:1003680046F82420664A1468EA4302EA04064F68FD
:1003780017F4803F01D045EA0406614C26606468A2
:1003880002EA04064F6817F4003F01D045EA040664
:100398005B4C6660A46802EA04064F6817F4801F85
:1003A80001D045EA0406564CA660E46822404E682F
:1003B80016F4001F01D045EA0402514CE2600133F3
:1003C8000F2B00F2978001229A400C6804EA02057C
:1003D800AA42F4D14C68022C01D0122C10D1DE08AC
:1003E800083650F826C003F00704A7000F24BC40C5
:1003F8002CEA040C0C69BC4044EA0C0440F8264082
:1004080004685F000326BE40F64306EA040C4C6805
:1004180004F00304BC4044EA0C0404604C6804F192
:10042800FF3CBCF1010F03D9112C01D0122C10D1C3
:10043800846806EA040CCC68BC4044EA0C04846076
:10044800446824EA02024C68C4F300149C40144334
:100458004460C26816408A68BA403243C2604A683B
:1004680012F0805FABD000220192264A546C44F40B
:1004780080445464526C02F480420192019A9C08B0
:10048800A61C1E4A52F8267003F0030296000F229B
:10049800B24027EA02071C4A90423FF45CAF02F5DB
:1004A800806290421AD002F58062904218D002F51C
:1004B8008062904216D002F58062904214D002F514
:1004C8008062904212D002F58062904210D002F50C
:1004D800806290423FF43DAF08223DE701223BE7AE
:1004E800022239E7032237E7042235E7052233E7FA
:1004F800062231E702B0F0BC70477047003801406F
:10050800003C01400038024000000240014B01223B
:100518001A60704720000E42014B1868704700BFF0
:100528002800002008B5FFF7F7FF044B9B68C3F3CA
:100538008223034AD35CD84008BD00BF003802407C
:10054800D80B000808B5FFF7E7FF044B9B68C3F317
:100558004233034AD35CD84008BD00BF003802408C
:10056800D80B00082DE9F84304460268136923F400
:100578004053C1680B43136183680269134342699E
:100588001343C2691A430168CB6823F4164323F066
:100598000C031343CB600268536923F440738169E9
:1005A8000B435361C369B3F5004F60D00368B84A81
:1005B800934200F0148102F58062934200F00F81AB
:1005C800FFF7B0FF00EB800000EB80006568AD002E
:1005D800B0FBF5F5AF4FA7FB05356D092E01FFF709
:1005E800A1FF00EB800000EB80006568AD00B0FB68
:1005F800F5F9FFF797FF00EB800000EB80006568D6
:10060800AD00B0FBF5F5A7FB05356D094FF06408A3
:1006180008FB15952D013235A7FB05356D0905F049
:10062800F0053544FFF77EFF00EB800000EB80000B
:100638006668B600B0FBF6F6FFF774FF00EB8000C3
:1006480000EB800063689B00B0FBF3F0A7FB003071
:10065800400908FB10684FEA081808F13208A7FBA0
:100668000837C7F3431723682F449F600DE10368D9
:10067800874A93425BD002F58062934257D0FFF7D6
:1006880051FF00EB800000EB800065686D00B0FB57
:10069800F5F5804FA7FB05356D092E01FFF742FFE1
:1006A80000EB800000EB800065686D00B0FBF5F999
:1006B800FFF738FF00EB800000EB800065686D00F5
:1006C800B0FBF5F5A7FB05356D094FF0640808FB8D
:1006D8001595ED003235A7FB05356D096D0005F45C
:1006E800F8753544FFF71EFF00EB800000EB800033
:1006F80066687600B0FBF6F6FFF714FF00EB8000A3
:1007080000EB800063685B00B0FBF3F3A7FB0323F7
:100718005B0908FB13684FEAC80808F13208A7FB11
:100728000837C7F3421723682F449F60ADE0FFF7EF
:1007380009FF00EB800000EB800065686D00B0FBEE
:10074800F5F5544FA7FB05356D092E01FFF7FAFEA5
:1007580000EB800000EB800065686D00B0FBF5F9E8
:10076800FFF7F0FE00EB800000EB800065686D008D
:10077800B0FBF5F5A7FB05356D094FF0640808FBDC
:100788001595ED003235A7FB05356D096D0005F4AB
:10079800F8753544FFF7D6FE00EB800000EB8000CB
:1007A80066687600B0FBF6F6FFF7CCFE00EB80003B
:1007B80000EB800063685B00B0FBF3F3A7FB032347
:1007C8005B0908FB13684FEAC80808F13208A7FB61
:1007D8000837C7F3421723682F449F6055E0FFF797
:1007E800B1FE00EB800000EB80006568AD00B0FB57
:1007F800F5F5284FA7FB05356D092E01FFF7A2FE79
:1008080000EB800000EB80006568AD00B0FBF5F9F7
:10081800FFF798FE00EB800000EB80006568AD00F4
:10082800B0FBF5F5A7FB05356D094FF0640808FB2B
:1008380015952D013235A7FB05356D0905F0F00535
:100848003544FFF77FFE00EB800000EB8000666810
:10085800B600B0FBF6F6FFF775FE00EB800000EB84
:10086800800063689B00B0FBF3F0A7FB00304009F1
:1008780008FB10684FEA081808F13208A7FB083788
:10088800C7F3431723682F449F60BDE8F88300BF70
:10089800001001401F85EB5158B310B5044690F87D
:1008A80039300BB3242384F839302268D36823F411
:1008B8000053D3602046FFF755FE2268136923F4DE
:1008C800904313612268536923F02A035361226815
:1008D800D36843F40053D3600020E063202384F8F6
:1008E800393084F83A3010BD80F8383000F0AAF872
:1008F800D8E70120704708B5FFF7A8FCFFF71DFDF2
:1009080008BDFEE730B58DB000240094154B1A6B76
:1009180042F008021A631A6B02F008020092009A69
:1009280001941A6B42F001021A631A6B02F0010279
:100938000192019A1A6D22F008021A654FF4805349
:10094800079301250895099407A90748FFF7FAFCBA
:1009580002950394099402A90448FFF7F3FC0DB02B
:1009680030BD00BF00380240000C024000000240C9
:1009780008B50948094B03604FF4E133436000238D
:100988008360C360036183610C234361FFF784FFC5
:1009980000B908BDFFF7B5FF4C0000200044004037
:1009A80010B582B0FFF738FCFFF7ACFFFFF7E0FFA8
:1009B80000240094124B1A6B42F480221A631A6BBB
:1009C80002F480220092009A01941A6C42F080523C
:1009D8001A641B6C03F080530193019BFFF796FD8B
:1009E80008E004F1402303F50033064A125D1A704B
:1009F8000134A4B20348FFF7E3FB8442F1D3FEE7D6
:100A0800003802400800002008B50320FFF72AFC40
:100A18000B4A536A43F4E0235362002211466FF0F5
:100A28000B00FFF731FC002211466FF00A00FFF7B8
:100A38002BFC002211466FF00900FFF725FC08BDCA
:100A480000ED00E030B589B0002401941A4B1A6C0F
:100A580042F400321A641A6C02F400320192019ACC
:100A680002941A6B42F001021A631A6B02F0010237
:100A78000292029A1A6E22F400321A660423039331
:100A880002230493012305930694072307930B4D30
:100A980003A92846FFF756FC0823039303A9284611
:100AA800FFF750FC2620FFF723FC22460F212620C3
:100AB800FFF7EAFB09B030BD0038024000000240F1
:100AC8000F49D1F8883043F47003C1F888300D4BD2
:100AD8001A6842F001021A60002098601A6822F031
:100AE800847222F480321A60074A5A601A6822F423
:100AF80080221A60D8604FF000638B60704700BF97
:100B080000ED00E00038024010300024DFF834D057
:100B1800002103E00C4B5B58435004310B480C4B4D
:100B280042189A42F6D30B4A02E0002342F8043BEB
:100B3800094B9A42F9D3FFF7C3FF00F011F8FFF70A
:100B48002FFF704700000220E80B0008000000207B
:100B58002C0000202C0000208C000020FEE7000064
:100B680070B50D4E0D4CA41BA4100025A54209D14B
:100B78000B4E0C4C00F018F8A41BA4100025A5423D
:100B880005D170BD56F8253098470135EEE756F87F
:100B9800253098470135F2E7E00B0008E00B000824
:100BA800E00B0008E40B0008F8B500BFF8BC08BC6F
:100BB8009E467047F8B500BFF8BC08BC9E46704713
:100BC80000000000000000000102030406070809F5
:080BD80000000000010203040B
:040BE000AD0100085B
:040BE400890100087B
:100BE8000100000010000000576520617265207444
:100BF800657374696E67205746492D42500D0A0087
:0C0C080000000000000000000024F400C8
:0400000508000B15CF
:00000001FF
