:020000040800F2
:1000000000000220ED2000083D2100083D210008ED
:100010003D2100083D2100083D21000800000000AE
:100020000000000000000000000000003D2100086A
:100030003D210008000000003D210008511B000880
:100040003D2100083D2100083D2100083D21000818
:100050003D2100083D2100083D2100083D21000808
:100060003D2100083D2100083D2100083D210008F8
:100070003D2100083D2100083D2100083D210008E8
:100080003D2100083D2100083D2100085D1B0008BE
:100090006D1B00087D1B00088D1B00083D2100081A
:1000A0003D2100083D2100083D2100083D210008B8
:1000B0003D2100083D2100083D2100083D210008A8
:1000C0003D2100083D2100083D2100083D21000898
:1000D0003D2100083D2100083D2100083D21000888
:1000E0003D2100083D2100083D2100083D21000878
:1000F0003D2100083D2100083D2100083D21000868
:100100003D2100083D2100083D2100083D21000857
:100110003D2100083D2100083D2100083D21000847
:100120003D2100083D2100083D2100083D21000837
:100130003D2100083D2100083D2100083D21000827
:100140003D2100083D2100083D2100083D21000817
:100150003D2100083D2100083D2100083D21000807
:100160003D2100083D2100083D2100083D210008F7
:100170003D2100083D2100083D210008000000004D
:080180003D2100083D210008AB
:1001900010B5054C237833B9044B13B10448AFF3C1
:1001A00000800123237010BD7000002000000000BB
:1001B000A029000808B5034B1BB103490348AFF35E
:1001C000008008BD0000000074000020A029000885
:1001D00053B94AB9002908BF00281CBF4FF0FF31AE
:1001E0004FF0FF3000F072B9ADF1080C6DE904CEAC
:1001F00000F006F8DDF804E0DDE9022304B0704702
:100200002DE9F047089E04468846002B4BD18A42D0
:10021000154667D9B2FA82F24AB1C2F1200701FA53
:1002200002F320FA07F7954047EA030894404FEAA3
:10023000154E230CB8FBFEF71FFA85FC0EFB178842
:1002400043EA084307FB0CF1994209D9EB1807F17F
:10025000FF3080F01B81994240F21881023F2B440D
:100260005B1AA4B2B3FBFEF00EFB103344EA034466
:1002700000FB0CFCA44509D92C1900F1FF3380F0D8
:100280000781A44540F2048102382C4440EA07402B
:10029000A4EB0C0400271EB1D4400023C6E90043A0
:1002A0003946BDE8F0878B4209D9002E00F0EB807B
:1002B0000027C6E9000138463946BDE8F087B3FAA1
:1002C00083F7002F47D18B4202D3824200F2FA809B
:1002D000841A61EB030301209846002EE0D0C6E9A2
:1002E0000048DDE702B9FFDEB2FA82F2002A40F0F0
:1002F0008F80491B4FEA154E1FFA85F80127B1FB85
:10030000FEFC230C0EFB1C1143EA014308FB0CF11D
:10031000994207D9EB180CF1FF3002D2994200F252
:10032000CD808446591AA3B2B1FBFEF00EFB101427
:1003300043EA044408FB00F8A04507D92C1900F152
:10034000FF3302D2A04500F2B6801846A4EB0804A1
:1003500040EA0C409FE7C7F1200CBB4022FA0CFE9C
:100360004EEA030E01FA07F420FA0CF521FA0CF319
:100370004FEA1E482543B3FBF8F92C0C08FB193350
:100380001FFA8EFA44EA034309FB0AF49C4202FA7C
:1003900007F200FA07F10BD91EEB030309F1FF3056
:1003A00080F087809C4240F28480A9F10209734466
:1003B0001B1BADB2B3FBF8F008FB103345EA034456
:1003C00000FB0AFAA24508D91EEB040400F1FF3332
:1003D0006BD2A24569D90238744440EA0940A0FBB7
:1003E0000289A4EB0A044C45C2464B4654D351D073
:1003F000002E69D0B1EB0A0564EB030404FA0CFC8F
:10040000FD40FC404CEA0505C6E90054002747E7DB
:10041000C2F1200320FA03F7954001FA02F021FA15
:1004200003F34FEA154E3843010CB3FBFEF71FFAF6
:1004300085F80EFB173341EA034107FB08F38B42B3
:1004400004FA02F407D9691807F1FF3C2FD28B4256
:100450002DD9023F2944CB1A81B2B3FBFEF00EFB2B
:10046000103341EA034100FB08F38B4207D96918B6
:1004700000F1FF3C17D28B4215D902382944C91A22
:1004800040EA07473BE73746304609E70746E7E6D5
:100490001846FBE64145ABD2B8EB020A69EB0E0207
:1004A00001381346A4E76046E9E7184695E7674632
:1004B000D1E781467CE702382C4447E7ACF1020CD7
:1004C0002B442FE7384608E73746E9E6704700BF78
:1004D000034613F8012B002AFBD1181A0138704784
:1004E00001F0FF01102A2BDB10F0070F08D010F8E5
:1004F000013B013A8B422DD010F0070F42B3F6D1E9
:10050000F0B441EA012141EA014122F007047FF001
:1005100000070023F0E80256083C85EA010586EA58
:10052000010685FA47F5A3FA87F586FA47F6A5FA94
:1005300087F68EB9EED1F0BC01F0FF0102F00702A0
:1005400032B110F8013B013A83EA010313B1F8D14B
:100550000020704701387047002D06BF354603382C
:10056000073815F0010F07D1013015F4807F02BF65
:10057000013015F4C03F0130F0BC0138704700BFB6
:1005800010B504460E4B18784FF47A73B3FBF0F3B2
:100590000C4A1068B0FBF3F000F056FC68B90F2C61
:1005A00001D901200AE0002221464FF0FF3000F07F
:1005B00009FC034B5C60002000E0012010BD00BF7F
:1005C000000000200800002008B50B4B1A6842F418
:1005D00000721A601A6842F480621A601A6842F463
:1005E00080721A60032000F0DBFB0020FFF7C8FFD9
:1005F00001F0B4FC002008BD003C0240034A116831
:10060000034B1B780B441360704700BF9C00002015
:1006100000000020014B1868704700BF9C000020BC
:10062000002800F0A18038B5044690F82030D3B1FE
:100630002268136823F002031360FFF7EBFF0546FF
:1006400023685A6812F0020F10D0FFF7E3FF401B37
:100650000A28F5D9636A43F400336362052384F8FA
:100660002030012038BD01F097FCE1E71A6842F024
:1006700001021A60FFF7CEFF054623685A6812F0A0
:10068000010F0DD1FFF7C6FF401B0A28F5D9636A99
:1006900043F400336362052384F820300120E1E74E
:1006A000227E012A3DD01A6822F080021A60637E01
:1006B000012B3BD02268136823F040031360A37E14
:1006C000012B39D02268136823F020031360E37EE6
:1006D000012B37D02268136843F010031360237F87
:1006E000012B35D02268136823F008031360637F61
:1006F000012B33D02268136823F004031360A3682E
:10070000E268134322691343626913436268013A42
:1007100021681343CB6100206062012384F82030FC
:10072000A0E71A6842F080021A60C0E722681368E6
:1007300043F040031360C2E72268136843F02003CC
:100740001360C4E72268136823F010031360C6E740
:100750002268136843F008031360C8E7226813682F
:1007600043F004031360CAE70120704790F820307B
:10077000013BDBB2012B05D9436A43F4802343627A
:100780000120704770B4434BD3F8002242F00102BD
:10079000C3F80022D3F8002222F47C52C3F80022CE
:1007A000D3F80022486A42EA0022C3F800224A69CC
:1007B00002F01F02012000FA02F2D3F81C42D043DB
:1007C0000440C3F81C42CB69B3B9324BD3F80C4296
:1007D0000440C3F80C42CE688D884C6945EA064552
:1007E000483443F834508E680C884D6944EA064416
:1007F000483503EBC5035C60CB69012B1DD08B69C9
:10080000002B32D1234CD4F804320340C4F8043214
:100810000B698BBB1F4BD3F814422040C3F8140262
:100820000B6A012B2FD01B4AD2F8003223F00103B0
:10083000C2F80032002070BC7047164BD3F80C424F
:100840001443C3F80C420E688D884C6945EA06458E
:10085000483443F834508E688C894D6944EA064424
:10086000483503EBC5035C60C9E70A4CD4F8043291
:100870001343C4F80432CBE70648D0F814321343CC
:10088000C0F81432CCE70349D1F81C321A43C1F83E
:100890001C22C8E70064004038B590F82030DBB275
:1008A000012B05D0436A43F400234362012038BD85
:1008B0000446022380F820300268136823F0010305
:1008C0001360FFF7A7FE054623685B6813F0010F6E
:1008D0000DD0FFF79FFE401B0A28F5D9636A43F449
:1008E00000336362052384F820300120DFE7002015
:1008F0006062DCE770B490F820400568AD68013CA8
:10090000E4B2012C06D9436A43F4802343620120F8
:1009100070BC704715F0E05F5BD0C5F30165022D38
:100920003ED80124AC401C608B68002B3ED10E6881
:10093000CB68046843EA465605F118031B01E650EC
:1009400003680C6905F1180603EB06135C600B7D68
:10095000012B36D0D17993791B0443EA0163517995
:1009600043EA01231479016823432C012144C1F88F
:100970008C31D17893781B0443EA0163517843EAC0
:100980000123117802680B432244C2F888310268BF
:1009900018352D01535943F0010353510020B7E797
:1009A000436A43F4000343620120B1E74C6843EA21
:1009B000C403CC680668234305F1180424013351AD
:1009C000BEE7036803EB0613596841F48071596070
:1009D000C0E7436A43F400134362012098E730B450
:1009E00090F82040013CE4B2012C06D9436A43F45C
:1009F00080234362012030BC704700296FD1046816
:100A0000E46814F0030F64D0056801F11B042401AD
:100A10002C5904F004049460002C6BD1056801F19A
:100A20001B0424012C59640D1460056801F11B049A
:100A300024012D59C5F34005D560056825446D682E
:100A400005F00F051561056825446D68C5F3072598
:100A5000956105682C446468240C546104680A019B
:100A60001444D4F8B8411C7004681444D4F8B84154
:100A7000C4F307245C7004681444D4F8B841C4F388
:100A800007449C7004681444D4F8B841240EDC7008
:100A900004681444D4F8BC411C7104681444D4F8AC
:100AA000BC41C4F307245C7104681444D4F8BC410D
:100AB000C4F307449C7104682244D2F8BC21120E8E
:100AC000DA71F9B90268D36843F02003D3600020DB
:100AD00091E7436A43F40013436201208BE7046803
:100AE000246914F0030F8FD1436A43F40013436267
:100AF000012080E7056801F11B0424012C59E4085A
:100B0000546092E70268136943F0200313610020E8
:100B100071E790F82030013BDBB2012B05D9436A25
:100B200043F48023436201207047026853691943EC
:100B30005161002070477047704770477047704799
:100B40007047704770472DE9F84F054603685C69A8
:100B50005F689E68D3F80C90D3F81080D3F818A083
:100B600014F0010F5AD016F0010F17D001229A602D
:100B700016F0020F08D116F0040F30D116F0080F4E
:100B800007D04FF4805B0BE001F026F84FF0000B2C
:100B900006E0FFF7D0FF4FF0000B01E04FF0000B35
:100BA00016F4807F0BD02B684FF480729A6016F495
:100BB000007F17D116F4806F18D04BF4005B16F449
:100BC000803F2DD02B684FF480329A6016F4003F9E
:100BD00016D116F4802F17D04BF4004B20E04FF4C1
:100BE000006BDDE7284601F015F8E8E716F4006F22
:100BF00002D04BF4804BE2E72846FFF79DFFDEE78B
:100C0000284601F025F80BE016F4002F02D04BF433
:100C1000803B05E02846FFF790FF01E04FF0000B16
:100C200014F0080F07D019F0100F04D04BF4007B1C
:100C30002B681022DA6014F0040F02D019F0080FAC
:100C400060D114F0020F04D02B68DB6813F0030F9F
:100C50005FD114F0400F07D018F0100F04D04BF400
:100C6000806B2B6810221A6114F0200F02D018F04C
:100C7000080F52D114F0100F04D02B681B6913F029
:100C8000030F51D114F4003F02D017F0100F4FD1D1
:100C900014F4803F02D017F0080F50D114F4004F25
:100CA00067D017F0040F61D014F4807F04D01AF0DD
:100CB000010F01D04BF0010B14F4007F04D01AF0A7
:100CC000020F01D04BF0020B14F4806F04D01AF025
:100CD000040F01D04BF0040B14F4006F46D01AF04F
:100CE000700A43D0BAF1300F48D02FD9BAF1500F63
:100CF00047D0BAF1600F47D0BAF1400F31D14BF075
:100D0000400B2EE02B680822DA602846FFF716FF1A
:100D100097E7284601F0FEF89BE72B6808221A6146
:100D20002846FFF70DFFA5E72846FFF708FFA9E7CC
:100D30002B6810225A602846FFF703FFA8E72B68AC
:100D400008225A602846FFF7FDFEA7E7BAF1100F08
:100D500005D0BAF1200F04D14BF0100B01E04BF09D
:100D6000080B2A68936923F0700393612B680422AF
:100D70005A60BBF1000F0AD1BDE8F88F4BF0200B91
:100D8000EFE74BF0800BECE74BF4807BE9E76B6A15
:100D900043EA0B036B62284600F078FFECE70000A3
:100DA000074AD36823F4E0631B041B0C000200F421
:100DB000E060184340F0BF6040F40030D0607047FE
:100DC00000ED00E030B4174BDB68C3F30223C3F13E
:100DD0000704042C28BF04241D1D062D18D9033B2D
:100DE0004FF0FF3505FA04F421EA0401994005FAB1
:100DF00003F322EA0303194300280BDB0901C9B2FC
:100E000000F1604000F5614080F8001330BC70478D
:100E10000023E5E700F00F000901C9B2024B1954A5
:100E2000F4E700BF00ED00E014ED00E0002807DB70
:100E300000F01F02400901239340024A42F820308B
:100E4000704700BF00E100E00138B0F1807F0AD2B6
:100E5000064B5860064AF02182F823100020986063
:100E600007221A6070470120704700BF10E000E0C1
:100E700000ED00E0042805D0054A136823F00403C0
:100E800013607047024A136843F00403136070470D
:100E900010E000E0704708B5FFF7FCFF08BD000058
:100EA00000230F2B00F2D780F0B482B039E0072284
:100EB00000E00022B2403A430234674E46F8242054
:100EC000664A1468EA4302EA04064F6817F4803F52
:100ED00001D045EA0406614C2660646802EA040613
:100EE0004F6817F4003F01D045EA04065B4C66608A
:100EF000A46802EA04064F6817F4801F01D045EA8F
:100F00000406564CA660E46822404E6816F4001FA2
:100F100001D045EA0402514CE26001330F2B00F28C
:100F2000978001229A400C6804EA0205AA42F4D193
:100F30004C68022C01D0122C10D1DE08083650F873
:100F400026C003F00704A7000F24BC402CEA040CC1
:100F50000C69BC4044EA0C0440F8264004685F0079
:100F60000326BE40F64306EA040C4C6804F0030472
:100F7000BC4044EA0C0404604C6804F1FF3CBCF142
:100F8000010F03D9112C01D0122C10D1846806EA6C
:100F9000040CCC68BC4044EA0C048460446824EA35
:100FA00002024C68C4F300149C4014434460C268BD
:100FB00016408A68BA403243C2604A6812F0805FC5
:100FC000ABD000220192264A546C44F4804454640D
:100FD000526C02F480420192019A9C08A61C1E4A9F
:100FE00052F8267003F0030296000F22B24027EA5F
:100FF00002071C4A90423FF45CAF02F580629042C7
:101000001AD002F58062904218D002F580629042B8
:1010100016D002F58062904214D002F580629042B0
:1010200012D002F58062904210D002F580629042A8
:101030003FF43DAF08223DE701223BE7022239E7BA
:10104000032237E7042235E7052233E7062231E79A
:1010500002B0F0BC7047704700380140003C0140CE
:101060000038024000000240002800F0BB8170B54B
:1010700082B00446036813F0010F3BD0A74B9B6876
:1010800003F00C03042B2CD0A44B9B6803F00C033F
:10109000082B21D06368B3F5803F4FD0B3F5A02F64
:1010A00052D09E4B1A6822F480321A601A6822F4D9
:1010B00080221A606368002B50D0FFF7ABFA054618
:1010C000964B1B6813F4003F14D1FFF7A3FA401BA3
:1010D0006428F5D903208AE1904B5B6813F4800FF4
:1010E000D8D08E4B1B6813F4003F03D06368002BED
:1010F00000F07A81236813F0020F55D0874B9B686C
:1011000013F00C0F3ED0854B9B6803F00C03082BAB
:1011100033D0E368002B68D0814B01221A60FFF7BF
:1011200079FA05467D4B1B6813F0020F54D1FFF787
:1011300071FA401B0228F5D9032058E1774A136859
:1011400043F480331360B5E7744B1A6842F480228D
:101150001A601A6842F480321A60ABE7FFF75AFA55
:1011600005466E4B1B6813F4003FC3D0FFF752FADD
:10117000401B6428F5D9032039E1684B5B6813F400
:10118000800FC6D1654B1B6813F0020F04D0E368D3
:10119000012B01D001202AE1604A136823F0F803F3
:1011A000216943EAC1031360236813F0080F40D09C
:1011B000636963B35B4B01221A60FFF72BFA0546A4
:1011C000564B5B6F13F0020F33D1FFF723FA401B2E
:1011D0000228F5D903200AE1504A136823F0F803E6
:1011E000216943EAC1031360DEE74D4B00221A6018
:1011F000FFF710FA0546494B1B6813F0020FD3D0D6
:10120000FFF708FA401B0228F5D90320EFE0454B11
:1012100000221A60FFF7FEF90546404B5B6F13F0A2
:10122000020F06D0FFF7F6F9401B0228F5D903207C
:10123000DDE0236813F0040F79D0384B1B6C13F0FA
:10124000805F33D100230193344B1A6C42F08052FB
:101250001A641B6C03F080530193019B0125324BF0
:101260001B6813F4807F23D0A368012B34D0052B97
:1012700038D02A4B1A6F22F001021A671A6F22F037
:1012800004021A67A368002B36D0FFF7C3F906469D
:10129000224B1B6F13F0020F48D1FFF7BBF9801BE5
:1012A00041F288339842F3D90320A0E00025D6E725
:1012B0001D4A136843F480731360FFF7ABF90646C9
:1012C000194B1B6813F4807FCED1FFF7A3F9801B65
:1012D0000228F5D903208AE0104A136F43F0010376
:1012E0001367CFE70D4B1A6F42F004021A671A6FAB
:1012F00042F001021A67C5E7FFF78CF90646074B73
:101300001B6F13F0020F11D0FFF784F9801B41F21D
:1013100088339842F3D9032069E000BF00380240C7
:1013200000004742800E474200700040E5B9A369C3
:10133000002B5BD0304A926802F00C02082A58D089
:10134000022B17D02D4B00221A60FFF763F90446D9
:10135000294B1B6813F0007F42D0FFF75BF9001B9D
:101360000228F5D9032042E0234A136C23F080536E
:101370001364DCE7214B00221A60FFF74BF90546A6
:101380001D4B1B6813F0007F06D0FFF743F9401B8D
:101390000228F5D903202AE0E369226A1343626A2E
:1013A00043EA8213A26A5208013A43EA0243E26A1C
:1013B00043EA0263104A5360104B01221A60FFF7A0
:1013C00029F904460C4B1B6813F0007F06D1FFF788
:1013D00021F9001B0228F5D9032008E0002006E0CF
:1013E000002004E001207047012000E0002002B04E
:1013F00070BD0120FBE700BF00380240600047429B
:10140000324B9B6803F00C03042B5CD0082B01D0FB
:101410002F4870472DE9F04B2C4B5A6802F03F02E1
:101420005B6813F4800F2BD0284B5B68C3F38813E1
:101430001E4600275C010025E41A65EB0705A9019B
:1014400041EA9461A001001B61EB0501CB0043EA76
:101450005073C400A01943EB07014B0243EAD05379
:101460004402204619460023FEF7B2FE174B5B6884
:10147000C3F3014301335B00B0FBF3F0BDE8F08B35
:10148000124B5B68C3F388131E4600275C010025DE
:10149000E41A65EB0705A90141EA9461A001001B6C
:1014A00061EB0501CB0043EA5073C400A01943EB84
:1014B00007018B0243EA9053840220461946002319
:1014C000FEF786FED2E70348704700BF00380240AF
:1014D0000024F40000127A00002800F09D8070B50E
:1014E00004464F4B1B6803F00F038B4209D2CBB26B
:1014F0004B4A1370136803F00F038B4201D0012095
:1015000070BD236813F0020F17D013F0040F04D03E
:10151000444A936843F4E0539360236813F0080F40
:1015200004D0404A936843F4604393603D4A936813
:1015300023F0F003A068034393600D46236813F083
:10154000010F32D06368012B21D09A1E012A25D9C0
:10155000344A126812F0020F60D032498A6822F0D1
:10156000030213438B60FFF755F806462D4B9B682B
:1015700003F00C036268B3EB820F16D0FFF74AF852
:10158000801B41F288339842F0D90320B8E7254AFE
:10159000126812F4003FE0D10120B1E7214A12683D
:1015A00012F0007FD9D10120AAE71D4B1B6803F080
:1015B0000F03AB4209D9EAB2194B1A701B6803F04A
:1015C0000F03AB4201D001209AE7236813F0040F08
:1015D00006D0144A936823F4E053E1680B43936008
:1015E000236813F0080F07D00E4A936823F4604372
:1015F000216943EAC1039360FFF702FF094B9B682F
:10160000C3F30313084AD35CD840084B186000208A
:10161000FEF7B6FF002073E70120704701206FE757
:10162000003C024000380240C029000808000020A9
:10163000014B1868704700BF0800002008B5FFF78D
:10164000F7FF044B9B68C3F38223034AD35CD84063
:1016500008BD00BF00380240D029000808B5FFF7D8
:10166000E7FF044B9B68C3F34233034AD35CD84083
:1016700008BD00BF00380240D02900082DE9F8431A
:1016800004460268136923F44053C1680B43136195
:1016900083680269134342691343C2691A430168AC
:1016A000CB6823F4164323F00C031343CB6002688A
:1016B000536923F4407381690B435361C369B3F5E4
:1016C000004F60D00368B84A934200F0148102F5DD
:1016D0008062934200F00F81FFF7B0FF00EB8000C3
:1016E00000EB80006568AD00B0FBF5F5AF4FA7FBE0
:1016F00005356D092E01FFF7A1FF00EB800000EB1F
:1017000080006568AD00B0FBF5F9FFF797FF00EBCF
:10171000800000EB80006568AD00B0FBF5F5A7FB2D
:1017200005356D094FF0640808FB15952D0132351C
:10173000A7FB05356D0905F0F0053544FFF77EFF81
:1017400000EB800000EB80006668B600B0FBF6F6A8
:10175000FFF774FF00EB800000EB800063689B00E4
:10176000B0FBF3F0A7FB0030400908FB10684FEA1C
:10177000081808F13208A7FB0837C7F34317236896
:101780002F449F600DE10368874A93425BD002F5C6
:101790008062934257D0FFF751FF00EB800000EBCF
:1017A000800065686D00B0FBF5F5804FA7FB05353F
:1017B0006D092E01FFF742FF00EB800000EB800077
:1017C00065686D00B0FBF5F9FFF738FF00EB8000AE
:1017D00000EB800065686D00B0FBF5F5A7FB0535F3
:1017E0006D094FF0640808FB1595ED003235A7FB35
:1017F00005356D096D0005F4F8753544FFF71EFFDA
:1018000000EB800000EB800066687600B0FBF6F627
:10181000FFF714FF00EB800000EB800063685B00C3
:10182000B0FBF3F3A7FB03235B0908FB13684FEA44
:10183000C80808F13208A7FB0837C7F34217236826
:101840002F449F60ADE0FFF709FF00EB800000EB45
:10185000800065686D00B0FBF5F5544FA7FB0535BA
:101860006D092E01FFF7FAFE00EB800000EB80000F
:1018700065686D00B0FBF5F9FFF7F0FE00EB800046
:1018800000EB800065686D00B0FBF5F5A7FB053542
:101890006D094FF0640808FB1595ED003235A7FB84
:1018A00005356D096D0005F4F8753544FFF7D6FE72
:1018B00000EB800000EB800066687600B0FBF6F677
:1018C000FFF7CCFE00EB800000EB800063685B005C
:1018D000B0FBF3F3A7FB03235B0908FB13684FEA94
:1018E000C80808F13208A7FB0837C7F34217236876
:1018F0002F449F6055E0FFF7B1FE00EB800000EB46
:1019000080006568AD00B0FBF5F5284FA7FB0535F5
:101910006D092E01FFF7A2FE00EB800000EB8000B6
:101920006568AD00B0FBF5F9FFF798FE00EB8000AD
:1019300000EB80006568AD00B0FBF5F5A7FB053551
:101940006D094FF0640808FB15952D013235A7FB92
:1019500005356D0905F0F0053544FFF77FFE00EB16
:10196000800000EB80006668B600B0FBF6F6FFF77B
:1019700075FE00EB800000EB800063689B00B0FB0D
:10198000F3F0A7FB0030400908FB10684FEA081885
:1019900008F13208A7FB0837C7F3431723682F4421
:1019A0009F60BDE8F88300BF001001401F85EB5128
:1019B0002DE9F04105460F4616469846069C2B68D1
:1019C0001B6837EA03030CBF01230023B3421DD178
:1019D000B4F1FF3FF3D02CB1FEF71CFEA0EB0800E2
:1019E000A042ECD92A68D36823F4D073D3602A6864
:1019F000536923F001035361202385F8393085F8BA
:101A00003A30002385F83830032000E00020BDE89C
:101A1000F08158B310B5044690F839300BB3242345
:101A200084F839302268D36823F40053D360204609
:101A3000FFF724FE2268136923F4904313612268A0
:101A4000536923F02A0353612268D36843F4005397
:101A5000D3600020E063202384F8393084F83A30E2
:101A600010BD80F8383000F0C3FAD8E70120704785
:101A70002DE9F04182B01E4690F83930DBB2202BC0
:101A800055D104460D469046002955D0002A55D020
:101A900090F83830012B53D0012380F838300023E0
:101AA000C363212380F83930FEF7B4FD0746A4F85C
:101AB0002480A4F8268010E000963B460022802176
:101AC0002046FFF775FF00283CD12B882268C3F31E
:101AD000080353602369C3B90235E38C9BB2B3B1E9
:101AE000E38C013B9BB2E384A368B3F5805FE3D052
:101AF00000963B46002280212046FFF759FF18BB85
:101B00002A7823685A600135E7E70135E5E7009652
:101B10003B46002240212046FFF74AFF0346A8B972
:101B2000202284F83920002284F8382000E00223A3
:101B3000184602B0BDE8F0810123F9E70123F7E779
:101B40000223F5E70323F3E70323F1E70323EFE79A
:101B500008B5FEF753FDFFF79EF908BD08B502482A
:101B6000FEF7F1FF08BD00BFE000002008B5024805
:101B7000FEF7E9FF08BD00BFE000002008B50248FD
:101B8000FEF7E1FF08BD00BFE000002008B50248F5
:101B9000FEF7D9FF08BD00BFE000002000B587B008
:101BA000002300930A4B1A6B42F008021A631B6B66
:101BB00003F008030093009B4FF48053019301232B
:101BC000029301A90348FFF76BF907B05DF804FB26
:101BD00000380240000C024030B58FB001AC0B4D14
:101BE0000FCD0FC495E8070003C424F8022B120C94
:101BF000227001A8FEF76CFC4FF0FF3382B201A9FE
:101C00000348FFF735FF0FB030BD00BFD8290008EB
:101C1000A000002030B58FB001AC0B4D0FCD0FC42C
:101C200095E8070003C424F8022B120C227001A8C7
:101C3000FEF74EFC4FF0FF3382B201A90348FFF7D5
:101C400017FF0FB030BD00BFF4290008A00000202E
:101C500030B58FB001AC0B4D0FCD0FC495E8070028
:101C600003C424F8022B120C227001A8FEF730FCEA
:101C70004FF0FF3382B201A90348FFF7F9FE0FB01E
:101C800030BD00BF102A0008A000002030B58FB082
:101C900001AC0A4D0FCD0FC42B6824F8023B1B0C7E
:101CA000237001A8FEF714FC4FF0FF3382B201A9A4
:101CB0000348FFF7DDFE0FB030BD00BF2C2A00083F
:101CC000A0000020FEE7000010B592B002230693AA
:101CD0000122099210220A920C9300230D9354289A
:101CE00044D017D9782851D0B4283DD110230E9371
:101CF0004FF4B4730F93022310930F2201920293B7
:101D00004FF4A05304934FF480530593002303939F
:101D1000052411E0322827D110230E9364230F935A
:101D2000022310930F22019202934FF480530493E5
:101D300005930023039301240223119306A8FFF7C0
:101D400093F9002835D1214601A8FFF7C5FB0028EB
:101D500031D1FFF76DFC194BA3FB00308009FFF771
:101D600073F80420FFF786F812B010BD10230E930D
:101D7000A8230F93022410940F23019302944FF48D
:101D800080530493059300230393D5E710230E9308
:101D9000F0230F93022310930F22019202934FF42A
:101DA000A05304934FF4805305930023039303241B
:101DB000C2E7FFF787FFFFF785FF00BFD34D621033
:101DC00008B50948094B03604FF4E1334360002331
:101DD0008360C360036183610C234361FFF719FED5
:101DE00000B908BDFFF76EFFA000002000440040CE
:101DF00008B50D480D4B03604FF08043836000230E
:101E000043760122C27683760377037643770522F1
:101E10004260C3604FF4E02202614361FEF700FCC0
:101E200000B908BDFFF74EFFE0000020006400404D
:101E300030B597B0154B93E8030000908DF804106F
:101E40000523149340F25D631093002312931393C0
:101E50000FAB6A4610A90E48FEF74CFDA0B902ACC4
:101E60000C4D0FCD0FC495E8030044F8040B21700E
:101E700002A8FEF72DFB4FF0FF3382B202A90648FD
:101E8000FFF7F6FD17B030BDFFF71CFFB8290008BB
:101E9000E0000020402A0008A000002000B58BB020
:101EA0000122089200230593049300930193029367
:101EB00003930693079269460448FEF757FC10B94E
:101EC0000BB05DF804FBFFF7FDFE00BFE000002053
:101ED00008B5FEF779FB3220FFF7F6FEFFF770FF3B
:101EE000FFF75CFEFFF784FFFFF7D8FF40F20341E6
:101EF0000748FEF70EFE08B1FFF7E4FE0448FEF7C0
:101F0000CBFC08B1FFF7DEFEFFF792FFFEE700BF54
:101F1000E000002000B599B00EAB11AA00210C48DA
:101F2000FEF75DFD88B90EAA0A4901A800F032F952
:101F300001A8FEF7CDFA4FF0FF3382B201A906489F
:101F4000FFF796FD19B05DF804FBFFF7BBFE00BF7D
:101F5000E0000020582A0008A000002008B5032057
:101F6000FEF71EFF0B4A536A43F4E023536200223C
:101F700011466FF00B00FEF725FF002211466FF0AF
:101F80000A00FEF71FFF002211466FF00900FEF75E
:101F900019FF08BD00ED00E000B589B000220192F4
:101FA000114B196C41F000711964196C01F000714A
:101FB000019101990292196B41F0080119631B6BA1
:101FC00003F008030293029B03230393022104916D
:101FD000059206930923079303A90448FEF760FFBF
:101FE00009B05DF804FB00BF00380240000C02405D
:101FF00030B589B000240194184B1A6C42F40032B9
:102000001A641A6C02F400320192019A02941A6B5B
:1020100042F001021A631B6B03F001030293029B5F
:1020200004230393022304930123059306940723B7
:1020300007930B4D03A92846FEF732FF08230393AD
:1020400003A92846FEF72CFF2620FEF7EFFE2246C6
:102050000F212620FEF7B6FE09B030BD0038024041
:102060000000024008B503460B4A126842B10A4A12
:10207000106803446A46934206D8074A136008BDB5
:10208000054A06491160F2E700F05AF80C23036094
:102090004FF0FF30F3E700BF8C000020100100205C
:1020A0000F49D1F8883043F47003C1F888300D4BE4
:1020B0001A6842F001021A60002098601A6822F043
:1020C000847222F480321A60074A5A601A6822F435
:1020D00080221A60D8604FF000638B60704700BFA9
:1020E00000ED00E00038024010300024DFF834D06A
:1020F000002103E00C4B5B58435004310B480C4B60
:1021000042189A42F6D30B4A02E0002342F8043BFD
:10211000094B9A42F9D3FFF7C3FF00F017F8FFF716
:10212000D7FE704700000220B42A000800000020FB
:1021300070000020700000200C010020FEE700006D
:10214000014B1868704700BF0C00002070B50D4EA1
:102150000D4CA41BA4100025A54209D10B4E0C4C1C
:1021600000F01EFCA41BA4100025A54205D170BDE3
:1021700056F8253098470135EEE756F82530984750
:102180000135F2E7AC2A0008AC2A0008AC2A0008A6
:10219000B02A00080EB400B59CB01DAB02900690AA
:1021A0006FF00041094807910491094953F8042B45
:1021B00005910068019302A900F066F8029B0022D5
:1021C0001A701CB05DF804EB03B070470C000020DF
:1021D0000802FFFF2DE9F0478E689E4282460C46BA
:1021E0009046994637D88A8912F4906F31D0256885
:1021F00009696F1A6569022305EB450595FBF3F53F
:1022000009F101033B449D4238BF1D46530530D5BB
:10221000294600F02BFB064650B90C23CAF80030C3
:10222000A38943F04003A3814FF0FF30BDE8F0875E
:102230003A46216900F0A8FAA38923F4906343F099
:102240008003A381266165613E44ED1B2660A56085
:102250004E464E4500D94E4632464146206800F073
:102260009EFAA3689B1BA36023681E44266000207F
:10227000DCE72A4600F054FB06460028E2D121693B
:10228000504600F0A5FAC8E72DE9F04F1D468B89AE
:102290001F069DB080460C4616460FD50B696BB9DC
:1022A000402100F0E3FA2060206128B90C23C8F82F
:1022B00000304FF0FF30C8E04023636100230993F2
:1022C00020238DF8293030238DF82A3003954FF0E4
:1022D000010B37463D4615F8013B0BB1252B3ED18E
:1022E000B7EB060A0BD05346324621464046FFF76D
:1022F00071FF013000F0A480099B534409933B789F
:10230000002B00F09D8000234FF0FF32CDE9052324
:10231000049307938DF853301A932F46052217F82C
:10232000011B5048FEF7DCF8049BD0B9D90644BF26
:1023300020228DF853201A0744BF2B228DF85320FA
:102340002A782A2A15D0079A2F4600200A253946CE
:1023500011F8013B303B092B4DD9B8B10FE02F46A6
:10236000B8E7404A801A0BFA00F0184304903D4643
:10237000D3E7039A111D12680391002A01DB07922B
:1023800004E0524243F00203079204933B782E2B61
:102390000CD17B782A2B33D1039B1A1D1B68039227
:1023A000002BB8BF4FF0FF33023705932E4D39781D
:1023B00003222846FEF794F838B14023401B03FA65
:1023C00000F0049B034301370493397827488DF8C4
:1023D000281006227E1CFEF783F8002838D0244BF4
:1023E00013BB039B073323F0070308330393099BB5
:1023F0004B4409936DE705FB023201200F46A6E727
:1024000000230137059319460A25384610F8012B99
:10241000303A092A03D9002BC8D00591C6E705FB3D
:10242000012101230746F0E703AB00932246114B3D
:1024300004A94046AFF30080B0F1FF3F8146D6D1FA
:10244000A3895B063FF535AF09981DB0BDE8F08F55
:1024500003AB00932246074B04A9404600F082F8E4
:10246000EAE700BF702A0008762A00087A2A0008E6
:1024700000000000D52100082DE9F04791461F46D5
:102480008A680B69DDF820809342B8BF1346C9F80B
:10249000003091F8432006460C4612B10133C9F8CA
:1024A00000302368990642BFD9F800300233C9F8DA
:1024B0000030256815F0060507D104F1190AE36814
:1024C000D9F800209B1AAB4228DC94F843302268EC
:1024D000003318BF012392062DD404F1430239467C
:1024E0003046C047013020D02368E568D9F8002085
:1024F00003F00603042B08BFAD1AA36822690CBFC2
:1025000025EAE57500259342C4BF9B1AED184FF0EC
:1025100000091A344D451AD1002008E00123524623
:1025200039463046C047013003D14FF0FF30BDE897
:10253000F0870135C3E7E1185A1C302081F84300C9
:10254000224494F8451082F843100233C5E7012372
:10255000224639463046C0470130E6D009F101092C
:10256000D8E700002DE9F04301F1430C0C46097E49
:1025700085B06E291746064698460C9A00F0B3803F
:1025800022D8632936D00AD8002900F0B98058290A
:1025900000F0838004F1420584F8421032E064299F
:1025A00001D06929F6D120681368050603F10401FA
:1025B0002AD51B681160002B03DA2D225B4284F8B8
:1025C00043206F480A2239E0732900F09D8008D823
:1025D0006F2920D07029DDD1236843F020032360C8
:1025E00003E0752917D07829D4D1782384F84530B1
:1025F000644855E01368191D1B68116004F1420519
:1026000084F8423001238CE01B68116010F0400F09
:1026100018BF1BB2CFE713682568181D1060280685
:1026200001D51B6802E06806FBD51B8854486F295A
:1026300014BF0A220822002184F843106568A560AF
:10264000002DC0F29580216821F004012160002B4B
:102650003DD1002D40F08E806546082A0BD12368BD
:10266000DB0708D5236962689A42DEBF302305F88C
:10267000013C05F1FF35ACEB05032361CDF800808B
:102680003B4603AA21463046FFF7F6FE01304DD106
:102690004FF0FF3005B0BDE8F083394884F84510AD
:1026A000136821681D1D1B6815600A060BD5CA0733
:1026B00044BF41F0200121601BB9226822F02002B2
:1026C00022601022B7E74D0648BF9BB2EFE7654690
:1026D000B3FBF2F102FB1133C35C05F8013D0B467D
:1026E0000029F5D1B9E7136825686169181D1060E4
:1026F00028061B6801D5196002E06A06FBD519801F
:10270000002323616546B9E71368191D11601D6830
:10271000626800212846FDF7E3FE08B1401B6060B7
:1027200063682361002384F84330A7E723692A46BE
:1027300039463046C0470130AAD023689B0713D4DE
:10274000E068039B9842B8BF1846A3E701234A46B6
:1027500039463046C04701309AD00135E368039AC4
:102760009B1AAB42F2DCEBE7002504F11909F5E70F
:10277000002BACD1037884F8423004F142056CE7B9
:10278000812A0008922A000810B5431E0A4491428B
:1027900000D110BD11F8014B03F8014FF7E7884253
:1027A00010B501EB020307D8421E99420AD011F876
:1027B000014B02F8014FF8E78342F5D98118D21A8C
:1027C000D34200D110BD13F8014D01F8014DF7E7D8
:1027D00038B50546002945D051F8043C0C1F002BA4
:1027E000B8BFE41800F0D2F81F4A1368104633B996
:1027F000636014602846BDE8384000F0C8B8A342C2
:102800000CD921686218934204BF1A685B68636040
:1028100004BF521822600460ECE713465A680AB1FC
:10282000A242FAD919685818A0420BD12068014475
:10283000581882421960DDD1106852685A6001440C
:102840001960D7E702D90C232B60D3E72068211841
:102850008A4204BF11685268626004BF091821608F
:102860005C60C7E738BD00BF9400002070B5CD1C88
:1028700025F0030508350C2D38BF0C25002D064624
:1028800001DBA94203D90C233360002070BD00F0A6
:102890007DF8214A1468214691B9204C23681BB960
:1028A000304600F063F820602946304600F05EF8BC
:1028B000431C24D10C233360304600F068F8E4E771
:1028C0000B685B1B18D40B2B0FD90B60CD50CC18A9
:1028D000304600F05CF804F10B00231D20F00700E7
:1028E000C31AD3D05A42E250D0E78C424B6816BF8D
:1028F000636013600C46EBE70C464968CCE7C41CE8
:1029000024F00304A04205D0211A304600F02EF82E
:102910000130CFD02560DBE7940000209800002034
:10292000F8B5074614460E4621B91146BDE8F840F1
:10293000FFF79CBF22B9FFF74BFF25462846F8BD9D
:1029400000F026F8A0420FD221463846FFF78EFF4E
:1029500005460028F2D031462246FFF715FF3146E2
:102960003846FFF735FFE9E73546E7E738B5064C67
:102970000023054608462360FFF774FB431C02D181
:10298000236803B12B6038BD0801002070477047F1
:1029900051F8043C181F002BBCBF0B58C0187047DF
:1029A000F8B500BFF8BC08BC9E467047F8B500BF3C
:0829B000F8BC08BC9E4670470C
:1029B80068656C6C6F0000000000000000000000FB
:1029C80001020304060708090000000001020304CD
:1029D8004D657373616765207472616E736D697498
:1029E800746564203A204D30200A00004D657373E9
:1029F800616765207472616E736D697474656420B3
:102A08003A204D31200A00004D65737361676520D7
:102A18007472616E736D6974746564203A204D3206
:102A2800200A00004572726F72206F6E2043414E7B
:102A380020427573200A00004D6573736167652035
:102A48007472616E736D69747465640A00000000C5
:102A58004D65737361676520526563656976656462
:102A6800203A2025730D0A00232D302B2000686C96
:102A78004C00656667454647003031323334353699
:102A880037383941424344454600303132333435D2
:0C2A9800363738396162636465660000FF
:082AA4005CD7FF7F0100000078
:042AAC00B501000868
:042AB0009101000888
:102AB40001000000100000000024F40010000020B9
:102AC4000000000000000000000000000000000002
:102AD40000000000000000000000000000000000F2
:102AE40000000000000000000000000000000000E2
:102AF40000000000000000000000000000000000D2
:102B040000000000000000000000000000000000C1
:102B140000000000000000000000000000000000B1
:04000005080020EDE2
:00000001FF
